:100000000C94E51B0C940D1C0C940D1C0C940D1CF5
:100010000C940D1C0C940D1C0C940D1C0C940D1CBC
:100020000C940D1C0C940D1C0C940D1C0C94C434DD
:100030000C940D1C0C940D1C0C940D1C0C940D1C9C
:100040000C9437350C940D1C0C940D1C0C940D1C49
:100050000C940D1C0C940D1C0C940D1C0C940D1C7C
:100060000C940D1C0C940D1C8022A1227C22802259
:100070008422A1229122392455249A244E243F24FB
:1000800058246C248724204C3A0020033A002F0087
:10009000043A0044494747455200444947474552BE
:1000A00000CF00D800E400DF00C600BB00AF005462
:1000B0006F67676C65204D6F6465004C6576656C95
:1000C00020646F776E004C6576656C207570004E0D
:1000D00065772047616D6500526573756D650053E6
:1000E000617665004C6F6164001408430C46733000
:1000F000C638602210842082705D40218AA79883D0
:100100004C8B479874407C40F86A18E7E1FE0295F2
:10011000000008411CF0011441ECE8DB9F49538BBF
:1001200020887A1084A5297B8286309202100010E4
:10013000C024154B81254F7CD8150557A1E1260811
:10014000430C4673302108430C467330C638623383
:10015000988D500142108401001108003D012321B7
:100160000841906314403A8813C8EA0A6B18A8C47F
:100170002A829BD1BD88A2C8F9FE4AAEA7A86ABF51
:10018000944216D5FCFCA427A1A97CC218A20F0298
:1001900051F856007F11001B2A0421862339981438
:1001A00008430C467330C638623398EA010C510C90
:1001B0008A3104221D763294A500230A808410C15E
:1001C000FFFC2421083055D7804329D4FA0800A029
:1001D0000010C461840066D0032C27E20903F18675
:1001E00050DA29A21029A8880204BA3E82412C4480
:1001F000FE3EA8CC2211218FC010C462AF83F88CC0
:10020000E6601C08430C4673308422086118C70C52
:1002100046419B02700010C0060004206CE21210E0
:1002200090C465A20820D3741C3F471886288460B8
:1002300004A810D3B6E887A00C70C467318420AB43
:10024000EA638C8B00010C466006824A7EA430BEB5
:10025000FF9430C46733001908430C46733086009E
:1002600002188CC001E60400367EC002084600E990
:10027000FCC0748316A0AE319E4310DEC24D8134A3
:100280000A2A7C8713D1F91D81529D4DE4761BA764
:1002900085EC467F10064DAB92EE083A889A5237AD
:1002A000A2542BA835798340F3FFE00308430C46A2
:1002B00073300000450497EA199A72A6348986398A
:1002C00095390D1FDAC2A3CDEAC6C2F5AB870190FE
:1002D000E8AB9781ED3EA080989E43B5725D96A3F2
:1002E000BD7CB70F43B7842BBD72CD1B7CED0002E4
:1002F00008430C467330C4318E1834773C541324B1
:100300008A3A9EDFD1F7FF9DAD437E7FAD84233EC9
:100310007D1084D1FE66FCFF2789F3D8FF3ECFF322
:10032000FF2BF9C218623399802408430C467330BE
:100330000008623094820682A10929A1045105D3E4
:100340005088757715538406F6345272290817536E
:10035000FC64EE632F9881086180DB12800259CC27
:100360008425A8419C6009240D484215420A849DB9
:10037000427C0A9F9BF24A52E8671E80318E188C9D
:1003800030FD7C202908430C467330000860039040
:100390008810185505A7C10C63086A2212F88C85CD
:1003A0003406B88E6A29E6A1F23E1A8FB8A919EC74
:1003B000102BF848305A1A26A3BC0E5907C2318EAA
:1003C000682000050340A8A6800E61022492F9224D
:1003D000D288308822883E1208934D90521485FAB4
:1003E00033820C84B249C08E68F83F88CE663C08E0
:1003F000430C467339024088640800003229A9C2C0
:10040000021082882A7D002308E20D1EA1172353C3
:100410007600002188C42118C63184BC474038F0DA
:10042000431AE68B68042109ED802401044A807593
:1004300038460FA4001D51A1A4243D100A847A3E21
:100440008220D3032FCA4C44612109F0E01154AE3D
:10045000102208430C467331062100000800310EBB
:1004600048962A01CB21A7F4100348088399E83C59
:100470000EA0126A18C043F0780AAC01500004259F
:10048000B1695F5510C55100401441510AA418C408
:100490003F634039043F01B508CA518FE1A23C9047
:1004A00084800000025446A96A92547A355110059E
:1004B0007C0862AB82219168202208430C4673308D
:1004C0000001000D8CA609E2A008C24B8726084F48
:1004D000390C8009824212A2E8E600844216860D99
:1004E000C0001848118C631847F0701A12FB047989
:1004F0001F086B8D0C822089F112AA8C7E33D48167
:1005000020C2008F48902A5F400327F1F3EB299126
:100510000A3F800057000002188CB2CD939C260839
:10052000430C4673334000004124728984810835AE
:10053000021023E266194413C90632108404537171
:100540000E888A4630464109BBB98681A8A7AA48C9
:100550009108C3F42F40ACFFA27C20F800040001F6
:1005600011044886A0EE25BDD03A17D420037A06A0
:1005700083FC7B45C23208C4001108417964886E4F
:100580007CDC202D08430C467330800110848623C8
:1005900010001982C4018862886440840100863199
:1005A000C31191475152C2F4000D08442694419260
:1005B000A62084321084E62A7FB2A326875605211E
:1005C000EE2E0F807A4104417C06A809F0B74CF862
:1005D000341A872808008003980034301072C471E0
:1005E000FC1070C6E1C44673300E08430C467330ED
:1005F000C8320C8421C00043000661108E4304936E
:1006000051E241CE5720E857C9382D0B8A052032D8
:1006100046041907F1F0F392B42B0AD8B8F49F42BC
:100620008CE4076D04031DE388FE1B1E87DC2BF39F
:10063000A8541D03D3F2B4118C70C0C9E8AAD937ED
:10064000D1B04673303408430C46733084210820FF
:10065000102189B2A428C63196A7D05350E8FF1DB7
:100660004FF01425882A49AC3D48F436CD810280EC
:10067000007CB2C200108618B43E39F0C300C1102D
:10068000683DC6552C9EA521084254348E8FFCAF80
:10069000E7DA8766E099E02208430C467330842845
:1006A000623218272084631C3119D4A2ABC6D094BF
:1006B000A52D48108618083B2084BF884842109515
:1006C00005CA2154E2108552FCBBD688D037C80039
:1006D0004631E112C7406AA020A87E218278086FC7
:1006E00080CB000689B9D6375AC778B7110123AB3A
:1006F0006F0B99801508430C4673311A408C76E8CD
:100700000813042D2342000171000010571A01093B
:1007100028E677854F9BE8FA8FA3A3F12DA8F51F54
:100720009F47F93D8CD7E018C798E91F0B6A6CEB1F
:10073000520E101B4334917E310C5144673477D2F2
:1007400075200F08430C4673334006323100001801
:10075000C5A10926B18863A8C15055402124CA8487
:100760003758C7A052ADBD32CF8803EE060318C676
:1007700096072C543DD5472D681F3FF6D086B419F7
:100780003B0C0696000421139CF8063182328E75CC
:10079000368D7C4774DEA9BF8C4322D0400B0843C2
:1007A0000C4673301A008842108918840069A280B0
:1007B0000679A62B09EAA2CAC84112A7F03D2D145A
:1007C0009A17C3A00A7A08C638623398EA7B9F4317
:1007D00000010C463A22EA7A9430C68F4237D0881C
:1007E0006456E4357DD7F1F273300708430C467345
:1007F000334000004C10851C4C200841388EB88EC8
:100800008425D4231CB0030846D02686681F0E809A
:10081000C8EFE20C30114793E14A5294719478107A
:10082000F40C00A328F0210000000E328F2A41545E
:1008300071DE8FBFE8FBFE8FBF8421862339982DA0
:1008400008430C4673300000362900063208841530
:1008500040318E188C2A121084A872B902A1D22AB3
:100860002CD3E0F62A5E63D06FC42A94C4A434313A
:100870000AA7F8A90F9EA5FA3E418C7A2D4AD0000E
:1008800000F88554842BCCB596FCF956A7F10821C5
:100890000C3119CCC01808430C4673318631C31192
:1008A00098C5386735480006801548AA0054765028
:1008B000C1A1AEA7B2BE107F048CB9800000A222F5
:1008C0009A8002001A125482A8B432553F3B5B5101
:1008D0006A175D4F54D4FD45464F8E3397271C242D
:1008E000006324B6B5B6AE2BD5001008430C467392
:1008F000308428606390E71A980018C70C461A3DA8
:100900003D53D5FA062FF514A5A9FF708400000009
:100910003192429AAA7ABF47ABC2118C210C732044
:100920009638A01AD6C3118719521A9EA800BF0B79
:10093000EA95C24208430C467330882243114105B0
:100940003088410D3B445C36C68320CD559E8342A2
:10095000DD7F8689E05536568010847194AE100094
:1009600010C0245000D53D4C0D1EA7F987A3FCE014
:1009700010042F9162210822063894013804218640
:100980002339981108430C4673300006846310C65F
:10099000419A73A84150888318E7309348A6B50D53
:1009A00082A2FE0211933120E7CF81BF0631C84EEB
:1009B000750803F07A239CC378006310E31FE2A25A
:1009C000FE03F0DA021CFC41D423D0BE06E304A9E6
:1009D0003D90FB1F04FBFC7C151AFA008043192490
:1009E000926841862339980608430C467330C6380E
:1009F000623398EA7B9F42001B1434031B4114545A
:100A000093C455297C44BC62A94BE2FE23398EA7CE
:100A1000B9FE207C3154A5F136A26D94DF909A0C7A
:100A2000552803E3FE23398C2132EB7A9430C467D6
:100A300033000808430C4673301A0002188F270A47
:100A4000806318C6210A1896AA5A6EABD1042212E6
:100A500021D4AA7A9F46FBC6D085BF055D30FC9F96
:100A6000818C63535F2017F853153E85F94A753E14
:100A7000A1267C20680008623C6FC0186233998010
:100A80001908430C46733182418C241104210C81D6
:100A900000881A44600C50410470C79248C2B88A5A
:100AA00058CC025BC67D8207B00800BD47801DB5EB
:100AB000BCF340054008C021DC7A8F9420D2221B71
:100AC00087C808C84F8C3208B43A287CC5C4108047
:100AD000400003CD4813C7904D82C008884DD2A076
:100AE0009C45D67A24E67B9916821708430C4673F8
:100AF000300006C411E4E3506A23DFE89004441494
:100B0000303E4080022A236823A839BF25A122C68F
:100B100041C31150BE3D080318E18212A300022A0E
:100B2000801600AA70134106602105B520C6AF24C7
:100B30005A3B5B88532427CA10C31190E61D01BE9F
:100B4000C7E11E4E397EFE100108430C4673308605
:100B5000120463180678C24810678D62A204B41AA2
:100B60000042CC4798542A00320D03A2D0FF9F8444
:100B70005D46B51E685D4086288790154A509431C1
:100B80000943E47C0209040002188C7C1F84841150
:100B900004168444036A3DE3908CFD8FE7BD57FE45
:100BA000132E6E022A4F7FFE3908430C467330180D
:100BB00000006168C63088421049504D1500062A71
:100BC0009041C20D519061294A5D1EA3003430004E
:100BD0000068C21092E8C007A04E140109D0CC6191
:100BE0000884210EA4B4042D044418331E83C0A825
:100BF000AC858391A9F43EC482D1EA418884B4349F
:100C000061545DC1063D83E888645A081808430CA6
:100C1000467332C00000228C40118C84206381C353
:100C200004AAA621548210B53AE340FE22A08267AE
:100C3000C20630E46111082D009F493D21869020B5
:100C4000BE521341BE7A80C764AA6A6EA1A0DE625A
:100C5000AF0F7BF43E808803113409006307C24F55
:100C6000A6A120EA009A3810BACFE62A95C2170842
:100C7000430C467330C638623318000110218E01D0
:100C800053D30208484A8A39CC0841541FC0471D33
:100C9000C9D8113DDDA42117C0420C4315802A8C10
:100CA000841531A1D524D03F808E3B93B905832C88
:100CB00017C9DF7C64A8C82159C4AA021079560D4F
:100CC000A2410CC1086188CE661708430C467338F0
:100CD0004266800C001A18C420CE884243040801E2
:100CE0004CD454FD35A0E6E000F5AE2B0CF459ECE5
:100CF000D38108FA0F603A2DBDF8FC77D771E05424
:100D0000BBC585E493ABFE06D88253F8B70CB3A1FC
:100D1000D0BE86F97FD0C0BA82B88CE6601F084387
:100D20000C467332C2A00010C464721081080642DF
:100D30000E400C804103C28C47487F221E235090F6
:100D40002408C7645B138FC55828000431D80B42B0
:100D50001DC3F0E85519350D13502683F0450318CF
:100D6000F618C388D0337D6F19B62FAC6642066F74
:100D7000A32426D04842106209081273FF78400E5F
:100D800008430C467330C8320C8421C0004300066F
:100D900061108E43049351AAF2CE5720E857C93808
:100DA0002D0B8A05203246041907F1F0F392742BBB
:100DB0000AD8B8F49F428CE4076D04031DE388FE53
:100DC0001B1E87DC2BF3A8521D03D3F2B4118C70C9
:100DD000C0C9E8A6D937D1B04673301B08430C46CA
:100DE00073310848608200C0338000003381EB60BB
:100DF0000802021062A800220C6425F158E31926AB
:100E0000E7F80464F04641CD000431F872150FF1A3
:100E1000AACBA4BE04020C879478847C1CC441B87D
:100E20008C631FE1A18F4018079D347A024690928F
:100E30004805B24203A10F01EC1341FC2A15AB9106
:100E4000BC3E06FD26D0761916822608430C467352
:100E500038C6020C23084841908421299202783D2B
:100E6000F5915E1A04516084000000808452C546EA
:100E700033E85F090299001E4035826F1545E14055
:100E8000584120B59500000009F0806411067AC72A
:100E9000408ABA116E59C23F12006318F08A83402B
:100EA0009AB00BE008D12642618109824213614861
:100EB000C2AD406BF86F9916821E08430C46733022
:100EC0008428604218000860016042320C9108F9E1
:100ED000300C01094A6294B700484B2001A839DD63
:100EE0000AA02680AAA8631C303D1098010811674B
:100EF0003AC7C5598C6002F9206823188411847A96
:100F000058C7244C12067184080027B20008049ABE
:100F1000241A8BE0C27299C44CA9081200426825B9
:100F2000027A1A0FF1154AE12608430C4673334042
:100F300000000158442143118042008E292048427C
:100F40004311854263597740E21D0748D0000043B2
:100F500011823E09A5BA16B119CC23184838A0222F
:100F6000108428EA80FC2D0B02DA06124A865820EB
:100F7000C8320425F62A0A6360294A5A2000003B39
:100F80009A8A69E43E2112A7A80842102320E304AC
:100F9000CD44E43A88CE662D08430C467330880170
:100FA0008C6320641108421042418361204200D3C7
:100FB00018068290909A05405294A4BC03A20000A7
:100FC0003800418B904CD0007C40EE03F08FF0163F
:100FD000835080841590420E401907C8041A1EF1F0
:100FE000C8DF03D6BE11085E40C442461A01098913
:100FF0000E61E400007156013B12742190341A8492
:10100000890917580CE6A8BB28F2741808430C4647
:10101000733188118C03004812340000179C4E2055
:101020008C87D503D8A433018E4120C551687E85B5
:10103000C16C02A3D07830907FD7A2927C1F9545D7
:10104000655D322D43F10D310483385434A56A9A1D
:101050008A76E0FE0EDB65F802409221914210C3D1
:10106000119CCE1108430C4673300000849182E538
:1010700009A49501AB01D8180E31516C2406A1CCFE
:10108000E89C5625A4FC5D166DA35F378C9411C9AE
:1010900084B080160403D07531EE3B17152DD6179A
:1010A0000DB5E0691FA8389D13ABD23F26E7585015
:1010B0001A109084CB364E702208430C467330C60B
:1010C00038A092404710925820C000022A924170E6
:1010D0000491C81A0E4760AC421B43D0088420F824
:1010E0003405433C52150621A47C231908422C8464
:1010F000F43E8B2826294B0C0423C0341DA4000485
:10110000303A886DF807536502BE2A321084110404
:101110004127B1F8071E07E0087A8AA42DF8E33AC0
:101120004ABA95FD801E08430C467330C631804292
:101130001431198AA4B22EA8C82121081A9C6B194F
:101140002A0C6001860219A728D0D20002188C2A26
:101150003FA03780425294BC8CD51C0C61D683A42E
:1011600061249E0714D4F90541C6689C9049ED009E
:101170007785426A846127F230704DD01212736312
:10118000492E0B0A3399802808430C467338842172
:1011900004242102000218184231D443A867808039
:1011A0009510EDA1D40320F439E289001A20887A41
:1011B0001F223C03900E89A9840419218902A100F1
:1011C00002CF206210BA8D0CA50F100A9F43006B4E
:1011D000827C1A007E3180440700518C2327C3642F
:1011E00000950001780482F817508426A88242688E
:1011F00019CC6733002A08430C46733106718C847E
:101200008608422C751D0129084294482964151D41
:10121000C35092A40001680C4188345A9823F87195
:10122000810850C4635004351761E4467F153F6D53
:10123000FC25286762530427C21084230E103A9CB1
:1012400010C590421B92C62A6DE63399EB70600878
:10125000430C467332C631C3119CC41092182453F8
:101260002149950D83FC4555FE2FD1F6F97D35B505
:10127000E8F53FCFF2E8FB97CF46FF3F3E5FF384B0
:10128000631C3119CC61086188CE64304017084373
:101290000C4673300006C411E4E3506A23DFE89083
:1012A000044410C621F204001151E8350F37E4B4AC
:1012B000C458C838622A168E300C6386084F8C00DA
:1012C00008AA005802A9C04D0419808416D4831AB4
:1012D000BC9168ED6E214C909F28430C4643987456
:1012E00006FB1F847938E5FBF8401A08430C467367
:1012F00033400000018C2500908400430C0494448A
:1013000075D8D4399479D1F519800984806318C7C8
:101310002CF0219C05408C84BE2E2ACEC015B1F045
:10132000A80017F10C00951F0032040308368EE266
:10133000315D303F42A046E771611281AC81C31339
:101340008B6F0190840B651000988D614C1251A435
:101350002E8FB64EF6000908430C467330863108CE
:10136000411908208000036A318C2118AA121084C8
:1013700004D1508D63228C19E03148C8305B059E42
:10138000BE9B27C8BC783EC42155B78D8008C4AD2C
:10139000BA2FE4D12FA8F33AD20E3FE74AC38030E8
:1013A0008F008A6681085B0545E584222089C88113
:1013B0004009AE8D83EE95C21808430C467330C6C3
:1013C000386042BB65100000B2C0A00311A8231D05
:1013D000AECCD05B187ABA1F521213D8190988689C
:1013E00060D06A1DF81B893480451F2688119E3203
:1013F0001AB78CE01A09347D183B9ABE2B440A00B8
:10140000F61D186BF8B6AF80DD97B52B8402084344
:101410000C467330C6010C638E06000001862A015B
:101420008EAA980006D73A0671A8E33A8E80218AE0
:10143000ABEE49518C9F8FF070F5238C3E0986806E
:10144000F9EE900E21F83218CA70A46A2036D3380B
:10145000CE3887E0180DC0E8FA10343F13E2EE3EB4
:1014600015EC63CCDBA8DB519CCC0208430C467323
:1014700031860080110C863304231D215446600000
:10148000C7EC01B55363CE63C1D3F9AA986318E9D9
:10149000DA9884A92AFD1FE7DF2A56FF4D8F3DFD0C
:1014A000DFE118FF7FE463085750EE3C8F60337D27
:1014B00010C46733000A08430C467330000860000C
:1014C00054AAACE16118C618A832079FFE5499408F
:1014D000C6216C5C8801D0D0318926AA6038C086CC
:1014E0000B24210443FDCD3B5643A080080000009F
:1014F000E719001BA2FC1BDCB1DD663A82B603D4FF
:101500009A114BA3108109B4BF94350ECB2B8411D3
:1015100008430C467330C635C411C4B33812A0104A
:10152000850C54F50E57A11064189B53D46318B45E
:101530006F07E3A8430C6E7D04F029C4428606526F
:101540009793B845C0886000072D705217C00110EE
:101550004418C951585505E820840108618B0A5C7C
:1015600008000860C12000844D56AE2BD500160837
:10157000430C467330C62308631C31300C8425406D
:10158000210AA008882A9F20AA2A5DE741268F52B7
:1015900067174FC2296398D02A7A685F01341C8389
:1015A00047F8463F07419ABE2AA6A7D03A0DC24245
:1015B000D1F41178BF28844F808427C6BEC7D1914B
:1015C00068201408430C467330C4318842862319BE
:1015D000807500C70C46731E860000085463A2FD88
:1015E0001B7FE010DB54FF51516AFCCD467FF45263
:1015F000C689FEF9353FF5E568E3184A50D4FA1F6D
:10160000C3A326A459AA44842186233998120843E7
:101610000C46733000D03400088631C31185414C2C
:10162000D51538424212182686002AA7A93E40C383
:10163000118FCE10DFA200010C02A310842E2EB950
:10164000F478D9F0213042BFB0199681A817B2D0F2
:101650003330D42217A3F1211A98692AC3D3FE1B71
:10166000C6F9BFD01708430C467330000001118142
:101670000840884210B3F08F98A9342DA81530C7C0
:10168000C40C7DD54E386072104A5294B53DC97C69
:10169000854A00000054F5006188CFA09F1AD6C388
:1016A0000DF9323F4800E6FE418EB2D09761042624
:1016B000A933EE2A7A93B5800E08430C46733000A6
:1016C00008623208C4310C5505BE1A687509084213
:1016D0000404268FC80C630806394E60A9BE18A6FC
:1016E000380B34410AA008425284260AB1AF87530E
:1016F000B203F4FCD586D02AC6D19132AE07A190B0
:10170000908479779C79EC66FC22F1FDBC200A0874
:10171000430C467332C6318C6168000046610D345B
:10172000308064180364D40A90C04212A1368FA09E
:101730000C601E89BD23B26D44DD1B58086188C84A
:101740006210A18B6654D1773E92A7A9C23D5F3348
:10175000A8821860252C99F0B400043119CC196EB8
:10176000C9CE000608430C467330C00001B14806DC
:1017700031C303A865C926E2A8895AE055093F2C60
:10178000E1A0E8175178B48E899154DCCE83CC77F0
:1017900019A771F0501CC92A52681DD4E7EC8FE1DB
:1017A000EE66927A55174199C79A10CD9D376AFC1B
:1017B0004210C3119CCC0F08430C467330C6300056
:1017C00010C014001AA410EDCE69B53D44000420E9
:1017D0001AF4506855087B8EAEA118EA79CB4307FE
:1017E000F1DC97D8EC639093C8B8557454B906836C
:1017F0008D763E07004D080318EE9DA6A3E3C2D0E8
:1018000084E12103106723982721D43AACAE100E4F
:1018100008430C467332C6318C5150850C08610D5B
:101820003351CA58854A0056E10F06211360EAFE7B
:10183000024E348F621863E2A0B2CD0FD900002CA3
:101840009B4406D1A3D49B007A8084A5D8884D06FA
:10185000A08ABE41FC1908BC1DE400001BA0182191
:1018600026177CE3322D040D08430C4673318000AB
:1018700043005482318C63CF48424304A9FFFD13D7
:10188000DC8EAA520C4317060C29B536F03A83E8D1
:10189000054EB98350DC74668024D1FE2CA2A0686A
:1018A000000E04611C401210840E703C02D1B8E797
:1018B00019E6A5E8552E7C1FC46733000908430CC0
:1018C0004673300008623398426A8357C6A89D1158
:1018D000B8854C121090C461A3FBFC9FCF3DFE9ACB
:1018E000FEAFA3F778BF59580002D1F43F938708A1
:1018F000075269FA8800BCBF7F080B08430C467387
:101900003000086233988C108F57D1DBAAC9BF060C
:101910008FC9B740C3B47CFF8B1F8042109B4E120F
:10192000218862154BC080631C31A44653D02DBF63
:1019300082A3D082A00000E838AF86682F6615FC2D
:101940002DD0AFAA87B18CE6600A08430C467331EC
:101950000800340004311990210041B3E5551E7F81
:10196000C4E824D5788F22493670101229FE1776E4
:101970006E5C47CF19802DEEB2DDEF35F3393B9722
:10198000E026E84CD344DCB35F335803739F4097A1
:10199000E65733001008430C467332C00000028C37
:1019A000A391033F084631C303A83381882210BFA7
:1019B00092FF1A010000882421218C267809AA2D83
:1019C000035CD06C9D148318863F8398104639863B
:1019D0003A9078816E3C0535A061220884216E75AD
:1019E0003E8FA18002EB3D22FC43A93DB00421863D
:1019F0002339980C08430C467330C421431180C628
:101A0000386024A825B8F2A7B1F435E9FF18FE1113
:101A10000C431038FF9AA1AF2A6A26A7E83F1D049D
:101A2000A52C31A3F520002180C80802A6CA946322
:101A3000BC6B2D18C32009FD13E60C3119CCC00571
:101A400008430C467330C000B1810302C006601029
:101A5000EA1A22B8A2AA59DB40E234158C63862325
:101A6000398BE78C24AF8A8CF8EA496340D62BBDCA
:101A70000430C467327C00002188CE62A875FEACB9
:101A8000B508B5FEABE11FF46A9FD7FFC00108435C
:101A90000C4673300E0002188CE61A9ED7D001ABAC
:101AA000D4FFBE8FABFCABA9FFB2689AB8006A9EA8
:101AB000A7D1B55E02A7A9F47D4B62F9FF818075BD
:101AC000186188CE662408430C467332C000431167
:101AD0009CC260841A88E2AE98012102024511C3BB
:101AE00002C065151511510218A8863C622AE459F6
:101AF000A1461A2543F1F21F27200033E7F8680DAD
:101B000013BA66D3E054F3D54FF10E2A947E3DC24A
:101B100021917E10C3119CCC1108430C46733006F2
:101B200001806B0906320C24210F50180601861122
:101B300092B0CAAA505460000153FC753E85DCC5C2
:101B40005F3F62C2048427CC634311868F99682665
:101B5000033E5CF47786899E6855267DC06899F6B9
:101B60009030006708430C4673301A08430C4673E4
:101B7000308421040000A208EEA71D471C6824D071
:101B80004C6343118D4CC3108486084330210846B2
:101B90001D1F4300160002188CE60084C626402252
:101BA0001B99EE7D81088230EA0FDAA50906421002
:101BB000DFC92A7A80C0AA6A216886212A9A9C8372
:101BC000A62AAF8030C46733002D08430C46733219
:101BD000C00000631C3119108108AA7A6C410E7391
:101BE000A3909A0D4F4E0F47A7AA7A7F4017CD4E6C
:101BF0000BE7CD7E7A7EA7CDFE117045F44B529B4C
:101C0000EA07B32998210C3119CCC027318D0C4635
:101C10007332C02100008CE623180218EA88CE62D5
:101C200031863294621467315405000B6446730E9A
:101C3000800055164467845426357319CC0CF82956
:101C4000031AC18CE61F8BD1917C0A9EA718084D00
:101C50006633987E0212A98CE62A92C19148631AD3
:101C6000188CE6602C08430C467332C00000E1007B
:101C7000411085800042486036056B50D011052F19
:101C80003D54FB95478BFC4DEEBE8B8A3908E6B080
:101C900004842430426F586548CA93C80059A3D4BD
:101CA0005F3E80739CFA3E8FF27B9F01BE10C31192
:101CB0009CCC5A08430C467333000043000864C6AA
:101CC000CAD53DEA2030216CA7C80D6318E1819A7E
:101CD000441842CB65989C75C806ED14B94C108425
:101CE00086084A8255A9EA7D1F47F998267CFF3F5E
:101CF000CFF3FCC1862339982D08430C467332C0BC
:101D0000004300648800042000842862D810051075
:101D10005445A94C6318D53E8262108409B47A9068
:101D200024A859F0FF1A210CCF88A5862A6F881F96
:101D3000C4626F42A7A9299D1F42018C63181F2E00
:101D4000D52AD4ECA9C218623399801308430C46F3
:101D50007332C0000042143023088220821A6403C8
:101D600018E18A6C95132C20539A2D3FA2E6FA3F76
:101D7000E39B0F40180210C3119F803F805987F7E3
:101D8000CD0B2018C70C46731842220A2191680A0D
:101D90009EE7D1F8708430C4673300413042186246
:101DA0003398CC13300158C638623103330698009B
:101DB0000D40218A99019A10C6154FF54CE2122068
:101DC0002188C7A8BE097518C68629A254155108CE
:101DD00048629AA87E8A9EA3A6BE7F8A9AF6C84ABF
:101DE000AAA1A7EABD0337D50211E6FFD8C26084D5
:101DF00030C467319804318D0C46733340C03221B2
:101E000091406300210C3119CC2DD0020002188CB6
:101E1000C000E85ABF300D06A1D45B99B341F83534
:101E20000204910F53A18B000057C48BB8D0778F59
:101E30009F4508430C467A2615996A5A167FA9FCD5
:101E40000D036219141F01A188CE663C08430C469D
:101E500073308428623398EA7B9C21369FA3FDFF70
:101E600030C212C3011C65248420035A0002188C5E
:101E700025ACA481862339843A08E188CE62D03C1F
:101E8000693AA7B9F47E1C215FDFF306188CE6607F
:101E90003B08430C467330000030842430424E2C03
:101EA000A8C1BB326A600831D95C88C5859094F0BE
:101EB00004209290A82AE154FAAD31A3FF74CFCF49
:101EC000FC2E9BF9FF9A6FE2184631D5C3184C10CF
:101ED000800C000210C31184C134545A5EE14C33AB
:101EE0000ED5B9800708430C46733000086233985A
:101EF000EA026BFD492A1D5F33A8F57CC743D5E68E
:101F0000AA9354CCB450B5AD6B733A989F3E8DF103
:101F1000FF1F3E69AA7C26CFC2137C0BCDF55C7FE8
:101F20006F6308430C4673300008600610850C464A
:101F30002109980008557D424300031EAF51553AD0
:101F4000BD49A82F57A9357D1FFAD5EA4D5F47D562
:101F5000FF8A9B57D1F5661747D4FF01842186235A
:101F600039981A08430C4673308000109140823132
:101F7000B268054F51500188748D04431D4240B230
:101F8000B917C3E8D47F00001F869AA9FE3A9EA223
:101F9000143155FCC2D80355FCB4CD5BF2537A9092
:101FA000C6CF8CB4D8005D0BC80849E82FF127C311
:101FB000D032C0084D194B54100908430C467330F9
:101FC00008424302104000430C2540318E188C2AF1
:101FD00032543FA8FFFBF180D100CD1F47D119B487
:101FE0007172868FA3E8598E872968FA3F3199E884
:101FF00032A68FA3FC19DAC23E10D73E6E102B0812
:10200000430C467330022080F141E512108BA92C5D
:10201000AA8C43A9EA410D9A3ED621F41F3FC54C34
:10202000544301C00C00F14D446094210C5529CE5D
:102030001695F52AD4F678424001BB0C5529541563
:1020400047C0425E31449114FC12CCF15206188C08
:10205000E6602A08430C467330842860225822899F
:102060008EA32846318C25A9C451840038023AAB8E
:10207000E228C15000E10555F0D3150E800AABE00F
:10208000A67403D95A88434D0034C545FC0434D6A0
:102090008FFC04218623007D13732EBF60FCDB3090
:1020A0008098C1A84F644C5D4DC23F6003E8FFA813
:1020B000AA57085D08430C467331084860821885AA
:1020C0002E54C510CB53E8A3D1F451E8FA3E8E103C
:1020D000C31188C7338C631922992A51A8A52B9262
:1020E000F8E849A100F5EFCE004AB53D45C4FC0B28
:1020F000D10FA0108420CC1086188CE660300843E5
:102100000C467332D8318E188CC63030210006212F
:102110000A188CC6005444212188CEA5D1F47D1F15
:102120004728CB10C85F2800086233F9463862336D
:10213000D142DD3DB40D43F19FFAA9F4FD17E33719
:10214000CE18623399800F08430C467332C20000E8
:10215000206C4120B2680D00488645A92C1917B0A3
:10216000A9EA7D1F47F809F844322FC410C3119C17
:10217000C23F80008623398F41104510C8BE000041
:10218000300E21917402D816C46730FC2004311936
:10219000CC66CDF8704608430C467332C631C31185
:1021A0009CC4108C8420C70C5C049AAA1996A2BE09
:1021B000343987239A7E0C13C00EC3A0E75A2ED25F
:1021C0003D0F61914753F65D1E8731D75A3CC5A438
:1021D000FCF4EEC7F3F711C906608430C46733001E
:1021E0001508430C467332C0200010C46734042025
:1021F00000EAF008751D5F4D547AB535527F22868E
:1022000029AA98658629BD17DB972A620C64A9E97B
:10221000B0B401AB3E426F5567C74C9AAEF8B306F7
:10222000772CFEC210C3119CCC0A08430C467332B3
:10223000C631C3031842210C6210821A7472B54071
:102240007100408803A804151802708020E423BBA5
:1022500042A0ACEA46DE390EC3A202A21822118CBB
:1022600077DB3FA8AA50187F0A448302B5800C5A36
:1022700096F151511105484A9F48D04B511B434894
:1022800003557C41862339980608430C4673330076
:10229000CB1E7C00016046110B27AA8A38FEE58A16
:1022A0009F52CC347D406330E4AF88802440358C2D
:1022B00072E7C17D8C750715F333A0033E6A882150
:1022C000863A8A9F32D5345CF751F9335DD31FDBF0
:1022D000C22F08430C467330C621046100010C462E
:1022E000552B400862A718D6321090C467FCEE0345
:1022F0009066190D9B88FD1FB732087E7F89951760
:10230000CFFCEE43F4BECA97E7F8751F9FFB3781F9
:10231000F0FDE108EA2F9FE3F1FFC01108430C46EE
:10232000733000086002910006541A98C77AD100F1
:10233000D54206651526D1B05CDF17E6CF9FE70FC3
:10234000B6CA9EF9E0BA900A6B188FF4ED1F00C26E
:102350004212180FA2001FE158CD52501A8FC01D13
:1023600017B8F434208430C461E9591475AD8C0079
:102370004208430C467330180002188F278A82E502
:10238000CBB4020C84212E08E668D0A62A96E9A9CF
:10239000EA7FE430C48B452800043005C880568F9E
:1023A000C7FC2421218936A224CD6D1347D1FE011B
:1023B0008C70C4673118210C3119CCC00C08430C47
:1023C000467330C631AE2992642084020001149E07
:1023D00055D0F613834719084860603CABA3AB4760
:1023E00008000001A0698D144D41086188C4C6EA47
:1023F00027CF9407F9C7F5006704AB518AA0D02412
:10240000AA8BECD03E6F6FF83CA9F006188CE66002
:102410000508430C467330000862330306318EA171
:10242000D7FA818C5A3F07501327DC7A017C7ABE99
:10243000804A8F67EC063168FC132A0264FB8FC068
:102440002F8F57A80951ECFD80C62D1F4418C96471
:102450008E188CD6309BE1F5E6601308430C46736A
:1024600032C6308842108D190678882AC2539526C4
:10247000A550E2751FF3A0619527F04A73E1EE3F86
:10248000A1F9334E8C30839EA9860BDAA7A9C2002E
:102490003400600008C9B285414C582100592D54C0
:1024A0000421218210671CB81086188CE66016087B
:1024B000430C467332C0000040147449A421884480
:1024C0001044356542408F601D43A96864D0220FD7
:1024D000EC9A197E0882AB1687895498C6842F829D
:1024E00020A6F441F703F8C82F0881268110537500
:1024F000104210B628A7342F20409A69BA94661D5E
:10250000B751FA319CCC1A08430C467332C6318855
:10251000628864008C600C5153D4E3197471874451
:10252000ADEA40876AD8F4510AB7F819F25D7B0723
:10253000C7ED040CACFE32109748000D86A7A859D1
:1025400054FC8310BE008618D18631C3119CC2137F
:1025500061BA6F140F08430C467332C631C3119C25
:10256000C59FF17518CC20883108823A9696A9EA61
:102570007D0C5A172119FC22F886018221903A0F0E
:102580008EA7C6298D1F72EC7D8F9EA10300007C53
:1025900001284B10C818C4421B22E08CC7355BD9F8
:1025A00036D03708430C4673301A0002186477346B
:1025B000541A8AEE9E607DC36A121090C4C121E84D
:1025C00023A8C776481A3DD9A0FF011C41D0C84CAA
:1025D000F80006C411C4AB7D69724C8800908486F3
:1025E00007261B411D4616497E4B3DCF86450001FF
:1025F0000C462C8CFE0C663399801E08430C4673E7
:10260000308631C30B8EE6810433355D53DCFA3FEF
:102610000FF3FFFF0114320C90C4664254241D6076
:102620009860646491526803DA374A9BFBD007F1E3
:102630004955F54431C3119CC7531AE708430C466A
:1026400073302908430C467331084088429023C2F6
:10265000544318E188CEA2FA580000638C7FBCB0C6
:1026600021160798AF20CE3480F81EC7C1A3789FEB
:102670002D93504977C8BC1A90E09E383EEBE1A1FB
:102680000842770DDA000D8279A92D093B433EE01F
:102690006A9FF98AA570801408430C467332C631CC
:1026A000C303184601822060434C82A210040886AE
:1026B000A3D0CA0280AC2D44C0000CD1F42F47F047
:1026C000D0730D0C033545A3E8F99E86C0000CD1EC
:1026D000FE2CE2290E67A1D4BA3E820D1F47FEC12F
:1026E000744401086188CE661A08430C467330842E
:1026F000212E280800086230084631C30318401113
:10270000886294425294A38A2A1BD02DE56A2068DD
:10271000518FCB31842210A181545F2E7953D4FF85
:102720000B000FC4212E8E10F704204368D4B4058B
:1027300045F18841002A7F907501806F8830C46719
:1027400033001C08430C4673300008623398EA7B60
:102750009F40FDFE7A844221090C465F20C7FFFCA2
:1027600003D97FDA20631EC14BCF151340C0442D1F
:102770000546BCA007002A80019CC74042102CD00F
:102780002B0A0679A8BCCFA2A718C70C462136820F
:1027900018623399801408430C467331021692185C
:1027A00018E58190841D42300C30C54F53E8221843
:1027B000F80D1E79A9FE31713A3FC0127E3EC75115
:1027C0007DD420CCFE11AEF9A89A103400004250FE
:1027D0008430C4673203E0632F8C4328EA2A3B220B
:1027E0002190EA11D4F5298210C3119CC612084326
:1027F0000C46733084286042580008623008657BBC
:10280000D42128CA52C317BE8FCBFCFC87143E5D6F
:10281000BF38421862336FCC318E188C2FFA87E2A2
:102820002049A4DD55202A0F86A7654062473A3E1D
:102830008FF106188CE6601408430C467332C4000E
:1028400008115022A1042300C03146528CE010CD63
:10285000E488718D189B10B91D0701D1F47FF252E5
:10286000D0737BAF42CD774D1731D4F4104BBB18EA
:1028700009A01420002188CC00A2291ADC06AC4251
:1028800018623399801808430C467331C002000067
:102890008E2309802708690886CAB8288A80328C66
:1028A000D1651F08D031FB2AA4D47E7FE731EE2CFE
:1028B000D1D75AAFF751747B91F9008EA3F7392025
:1028C000AF4127B7A97F3F08799D46E925437CFBA7
:1028D0007F218210C3119CCC1E08430C467330002C
:1028E000008043862319E831D0C50C46384E80BDA0
:1028F0006346D2747D18C1FA3F0D1B3AA6B47F9F80
:1029000047EA747D1FEC296188C69C0819D0F71C22
:10291000037E4003A0ACE4A0848426E3A97713DD02
:102920002119CCC01208430C467332C0310850C480
:1029300066300021000631C31198EA404300247933
:102940003C6821086188CE83CBF6DF8B4FD282169C
:10295000E4FBA7C39FE623D641FCE5C4A90A52C302
:102960001198747D782317C4618C70C46750FF116F
:1029700054AE101708430C4673300006C411E4E34C
:10298000506A23DFE890044410C621F2040011517C
:102990001B41A879BF25A122C641C31150BE3D08E5
:1029A0000318E18212A300022A801600AA701341C4
:1029B00006602105B520C6AF245A3B5B8853242707
:1029C000CA10C31190E61D01BEC7E11E4E397EFE3E
:1029D000101A08430C467333400000018C25009008
:1029E0008400430C04944475D8D4399479D1F519F2
:1029F000800984806318C72CF0219C05408C84BE1C
:102A00002E2ACEC015B1F0A80017F10C0368A878E3
:102A10000190201841B477118AE981FA1502373BF9
:102A20008B08940D640E189C5B780C84205B2880C6
:102A300004C46B0A60928D21747DB277B00A08439A
:102A40000C467331822108421C30318C8D0B4210B0
:102A50000661A024221023A870AA90633D45F55476
:102A6000C0A200BFB2A7D07E7A9800001A306C4195
:102A7000CAAA021080A809B010952723A01E88D6E4
:102A800019F0B7E91B46323746086188CE61F87302
:102A900018AA55CBF7F0800108430C467330861214
:102AA0000463180678C24810678D62A204B41A0045
:102AB00042CC4798542A00320D03A2D0FF9F845D78
:102AC00046B51E685D4086288708154A509431092E
:102AD00043E47C0209040002188C7C1F84841104E6
:102AE000168444036A3DE3908CFD8FE7BD57FE13C7
:102AF0002E6E022A4F7FFE0708430C467330C62114
:102B00000800048039800010422A86791CB21B829A
:102B1000A121084AE43A8049607C01086180D41F01
:102B200007F01080000003A1E4388802088318CC65
:102B30003C0C26A06D43FC6B039A342D8461253236
:102B40003D03E2D1AA1CE7E007C24184440B4000E8
:102B500012A6D044100C60E6160203E018C4420727
:102B6000386E81FC454697C00B08430C4673300015
:102B70000880920CB118D4521DF0102AA33D93A3E3
:102B80001F98F855BC06F23FB582E79EC68398723F
:102B90001A9F17A3F1212687899FF85681AD68FCFB
:102BA00081EE0D055AB607A3CE5D1680626A1782C4
:102BB000F91CC09F07951E4E801408430C467330C5
:102BC0008428604208E5318C2118C70C4A15385A10
:102BD000000063212EEA8644A9E609E03A1CA5F02C
:102BE000DCE30B5B14548010484EA2A206D40A8882
:102BF00093C02A50543F3E834C7C0AB4368F8E9942
:102C0000F8C953817529A18185A1086188CE661113
:102C100008426882388CE621086318844210220B2F
:102C200048D2373850AC0A80231869926803A90843
:102C300013E8B50F91F08347104218603504A9F0EE
:102C400080008623810842C63C1A8ED018E7808413
:102C500061184631C303F9A826F723DF2D31085444
:102C6000C689B8613F168E11104B19070C7C2DF9DF
:102C7000A339980908430C46733086310841190876
:102C8000208000036A318C2118AA12108404D150CC
:102C90008D63234C19E03148C8305B059EBE9B27ED
:102CA000C8BC783EC42155B78D8008C4ADBA2FE4A6
:102CB000D12FA8F33AD20E3FE74AC380308F008A63
:102CC0006681085B0545E584222089C8814009AEFC
:102CD0008D83EE95C20908430C467331042110829E
:102CE0001C70218C63182A2B0434006B0306A00C83
:102CF000A21112B090378D001A27C1B1682DE409D6
:102D00009268DD87A5907E3A08423AC691ACB42617
:102D10008FF0D1360D0413B6C5A183B4F4B70F807C
:102D200034BFE7F02C6D002188C010C461A0EC32E4
:102D30002D041B08430C4673308421082D04803178
:102D40008C4311AA5054C31D4F944F3F386921F44E
:102D500042084A5294B5091A00021800714EEA5608
:102D600055E442740004D5A3EA17DFC1260342D418
:102D7000B4520C6208430C463F3846218A2008575B
:102D800053EF2419387F5C201F08430C46733084AE
:102D900028623118C822460108C6386231C2423161
:102DA00054F50B6A06E82B20C8388743213E10945F
:102DB000A58C3E027C14484E100015083F8863E144
:102DC0001D4E418A20F8B80A9F442109F2D4F51912
:102DD000F47D1421E83E0113E0DE46ACA350F83A3E
:102DE0008C0A33D60DBD000C08430C467330081016
:102DF0000C6118C00960421882165701A82E805B2A
:102E00002BA82F8A8DA3A8BFCF4740BAA5108C5EF0
:102E100085D44E2042D244408C8124403D045F88BA
:102E200085F56B3F003E227300EC0944461F1637C0
:102E3000B000269C47E0665ADD922A8B3BFE462D69
:102E4000A26B210246EF42EA15966B7330140843D9
:102E50000C4673308428842318C669A27808D63BB0
:102E6000080050309A88152815FC1084A9C0040267
:102E700091A9FE04000118C631FC1148821A62A013
:102E8000254B7948954682425E35BE8C218B32D1E6
:102E90002A7FAC210C3118CBE10A00004300010865
:102EA000486230D1F970801408430C467330C44135
:102EB00008630884118C72812A29806B18C0000075
:102EC0007A28422A203514F431760200041A23F2BB
:102ED000F834AC22501ABF017F5E81398204604011
:102EE000343DE08210AA202B41FE36AE474510F259
:102EF0000E4084DA3A81FC05950648EF4120C880EF
:102F0000000000A2118882A801CC640218006A6443
:102F100081086188CE661E08430C46733000000CA1
:102F20008410C6310C5108433454248C2A1B2021B0
:102F3000C4000A8743A885510421F9EA2A6338A905
:102F4000C2100021F66B9B67E008044112D00431E7
:102F500018D45B4908150010C011E82C144D40101E
:102F60002100468210AB30D03F8501485773C454CE
:102F7000160E419C7C01318D98FD0A00010C7C31BC
:102F80000C8B41001708430C46733340D0000300FC
:102F9000E21904810908421001ADEA0FAAA7D0BCCA
:102FA0008F80291A4710B2A2D739408B4709884130
:102FB0008C630C3199D5219E2A4D149A0713516BBD
:102FC0009A081B52692BCE747CEB6BD1F4AD1F4673
:102FD000DF3B401408430C467330C431443228C4EC
:102FE00010D3F76541A3F29FC7BFFDD43EFD37A3C1
:102FF000F9FEC06D0BA23398EA5B7EA70841C5803D
:103000000DA9C1CEFC0BA98BF31B46CF3A00C3110F
:103010009CCC0C08430C467330C421431180C63845
:103020006022A825B8F2A7B1F435E9FF18FE110C0B
:10303000431038FF9AA1AF2A6A242300060D13F12A
:10304000D04A52C31A3F520002180C80802A6CA941
:103050006B10567A31824013FA268FACC793A000CA
:1030600008430C467330C2388645A02A605CC6D13E
:10307000015056A0F8A93ACEF0F83236DAF52523F9
:103080005AB7429DB83F83B7D93E400E45A9C350B9
:103090005EDA152759DE010AE97B934888645A0CE9
:1030A0001B08430C467330C638623398EA7B9F474F
:1030B000E1FE7FFFE7FFFE7FFFE7FFFE7FFC216B66
:1030C0005B0C35A00000018AA7A9402AA021210994
:1030D0000C466427C66ABEA3584218623399800F13
:1030E00008430C467330C6386061600008623008DF
:1030F00054002000270134450AA832A1D2191E85A8
:10310000CC202CCE2C0D60FF0E8531663F1E713019
:103110009084212A1D1EA257C08F8738D1FE4D10E2
:1031200021863E5DA2529A28157C3A1679A8E82B92
:10313000F84DA77C593EEC0B08430C467330C6385B
:10314000623318853C540218A21902FC0869FAB7C8
:10315000FA8AA5000CBA18C42143118943F2719E62
:10316000082A7A7AA7A7F47A7FE7FBC7F3FEA210B2
:10317000421F20215E9FCE1ADAC0A5701A08430CA8
:1031800046733084286042210840B18C6182118CE2
:1031900070C0CB53302150000863430547A3D43897
:1031A0004FCDA18AA7D80210C3028ED5706C9B8523
:1031B000F6290ABCA9C953E8A421347F905FC7CF80
:1031C000F08D7DCA7E3DC8210C3119CCC012084358
:1031D0000C462697C6000218032440102186367C30
:1031E000AB40090631C31199329259386E63A10C74
:1031F00020000006463DCE860D5248D1F502133020
:10320000D1FE1AC23AD1BDDFE34420C6386233EEA4
:103210007365EEBA08000862339872DC97A314084D
:10322000430C4673308222106318C6121080008649
:1032300010AE82204240DA00086A00041104B03067
:10324000800004835213A101EA1C0344D6422DA03E
:103250009F01FF217F22B6B0AD092118C64080DF53
:103260004C81F813F9CA47ACC53500C5509004D05D
:10327000C7E4043A008241773FC7E0015E1E05C300
:10328000A1102420C9A010601807A07751E4E81409
:1032900008430C46733108486081208828848208DE
:1032A00040003220902399C001088428604118C74B
:1032B0000C4606A9A9E18C21294B0C6657207A7A85
:1032C0008082254F907558D043C48BB8E0FB817C39
:1032D0006BF02B21044326F3C968442049F0CF3E0C
:1032E00047C340FC44C4BD1FE05C87CB1E4E802416
:1032F00008430C4673308428623314E410800318AA
:10330000E188CAA7ABC25294BA1043AE0B995FCB07
:1033100059906418CDF3E56219081097C4FF3A1F5D
:10332000802409022C0430C4635056350800086319
:10333000E0A9368A9EE9D43F8CEEA5D80242121845
:103340008C4210C3119CCC2A08430C467332C02017
:103350000C6386230000021675506F2208C84210C5
:10336000810DE3504B150715501044154BF2643E88
:103370008687F37804887E7D0AA1F86A7DE7F8D114
:10338000F61FA4C317B7F15531DEF0318AA29C7243
:103390004A62A200263110848609C17552B84035B0
:1033A00008430C4673310631C30230861964240881
:1033B0004130042310AA7082DAA93CAA849BCF7200
:1033C0004FCAA321380093C918C530F05584C5A150
:1033D000884216B3509360D084418331E807520885
:1033E00044583F0A9F44EC347D0AA2188648C346DD
:1033F000154E31FC3FC4673300080670E8F8607072
:10340000D8080670B8F83070D8080670F8702070C8
:10341000D8080670A8702070D8080670F8F87020D8
:10342000D8080620582470205808061068903810D4
:1034300068080670A8F87020D80806002050B870F8
:1034400020080620702070A82408067848485848AC
:1034500048080600FC844830FC08060020508850CC
:103460002008069024885004480806007078F8F870
:10347000700806FC84FCFC30FC080600000000001C
:103480000003053F213F1208120A100A0E1C0E0C01
:103490001E0C141A14161F161E131E1E1B1E1E1F92
:1034A0001E3F213F3A2F3A173D173F213F181F0279
:1034B000040A041F0E04040E1F0A1F0A0E0E1F0426
:1034C000110E2E252E2F2A2E262929021F02081F13
:1034D00008150E04040E150E15151B151B04060405
:1034E000040C040000000017000300031F0A1F164D
:1034F000371A1904130A153A000300000E11110EB1
:10350000000A040A040E0400300004040400100041
:103510001804031F111F121F101D151711151F0767
:10352000041F17151D1F151D01011F1F151F17153E
:103530001F000A00003200040A110A0A0A110A04D4
:103540000115020E11171E051E1F150A0E110A1F66
:10355000110E1F15111F05010E111D1F041F111F34
:103560001108100F1F041B1F10101F061F1E040F31
:103570000E110E1F09060E112E1F051A1215090134
:103580001F011F101F0F180F1F0C1F1B041B031CF4
:1035900003191513001F11030418111F0002010263
:1035A0002020200001020C121E1F120C0C12120C03
:1035B000121F0C1A14041E05242A1E1F021C141D9F
:1035C0001020201D1F0814111F101E041E1E021C97
:1035D0000C120C3E0A040C123E1E040214160A02BF
:1035E0000F120E101E0E100E1E081E120C12262890
:1035F0001E322A26041E21001F00211E0401020182
:103600003F213F0A4E6F2053442063617264206F54
:10361000720A6E6F204C4F414445522E4845580A5D
:103620000A153A45786974001D20466C6173686913
:103630006E670A20206C6F616465722E2E2E0A0A56
:10364000444F4E2754205455524E204F4646210099
:103650000A0A153A49676E6F7265006D560A0A507C
:103660004C45415345205455524E204F464620006C
:103670004C4F572042415454455259212000175372
:10368000440016137800161314001510200015209E
:103690001000540A03E181867F3E186D830F0F0EE0
:1036A0000183866033186DC3198F1803C38E60338E
:1036B000186DE330CF1803C39E603630CDE360CF82
:1036C0003006C79E7E3E30CDB360CF300CC6F6606C
:1036D0003330D9B660CF33CFCCF66061B0DB1E603B
:1036E000CF30D86CE6C061B0DB1E618F19986CC614
:1036F000C063B19B0E330F0FB078C6FF7E1F1B0651
:103700001E0F05008930080238024978681400004D
:10371000F6E8DBCFC3B8AEA49B928A827B746E6856
:10372000625C57524E4945413E3A3734312E2C297E
:10373000272523211F1D1C1A1917161514131211E2
:10374000100F0E0D0C0B0A09080706450068010052
:10375000000500680138010000050038016801001B
:1037600000693765370101FF030101F7030000001D
:103770000800020100000304070000000000000030
:1037800000010204081020408001020408102001FA
:1037900002040810200404040404040404020202C5
:1037A00002020203030303030300000000230026B8
:1037B00000290000000000250028002B0000000068
:1037C00000240027002A0000B72411241FBECFEFD9
:1037D000D8E0DEBFCDBF12E0A0E0B1E0EEEAF5E751
:1037E00002C005900D92A637B107D9F726E0A6E7EB
:1037F000B2E001C01D92AD33B207E1F717E3CAECA6
:10380000D7E304C02297FE010E94A13AC83CD10729
:10381000C9F70E9451370C94D53A0C9400000C94CF
:10382000BF3A0C94C73A109283028AEF80930B013F
:1038300010927F0210927E021092810210928002FA
:1038400010927B0210927D0208951F93CF93DF9315
:10385000162F2091790230917A02E82FF0E0EE0FD6
:10386000FF1FE45FFE4FC90137FD079643E09595C2
:1038700087954A95E1F70190F081E02DE80FF91F57
:10388000C4913196E491D0E0DC2FCC27CE0FD11D2E
:10389000E12FF0E0C90168E070E00E944A3A40E19F
:1038A00050E0481B590B4E1B5F0B02C0D595C795C6
:1038B0004A95E2F72E0F3F1F30937A022093790248
:1038C00081E090E002C0880F991F1A95E2F70197F6
:1038D0008C23DF91CF911F910895482F809177021B
:1038E0009091780264E170E00E944A3A77279C0147
:1038F00033274930E9F188F44730D1F1483009F0F5
:1039000043C08EE0829FF001839FF00D1124E60FEB
:10391000F71FE257FD4F88E429C04C3081F04D304D
:10392000D1F04A3089F58EE0829FF001839FF00D3F
:103930001124E60FF71FE257FD4F8AE417C08EE00F
:10394000829FF001839FF00D1124E60FF71FE257CD
:10395000FD4F8AE80BC08EE0829FF001839FF00D3F
:103960001124E60FF71FE257FD4F88EC808308957E
:103970008EE0829FF001839FF00D1124E60FF71F68
:10398000E257FD4F408308958EE0829FF001839FB0
:10399000F00D1124E60FF71FE257FD4F40834B3027
:1039A00041F430938D0220938C0270938B026093CC
:1039B0008A020895CF92DF92EF92FF920F931F93A6
:1039C000CF93DF93F82E1092840210927A02109215
:1039D0007902109278021092770268E00E94251C0A
:1039E00080938502C4E1D0E0EEE0EE2E20917702D4
:1039F00030917802283131400CF04DC061E08F2DBC
:103A00000E94251C8823B1F166E08F2D0E94251CA1
:103A1000082F63E08F2D0E94251C73E0C72EC80E6F
:103A2000D12C10E0DC1410F720917702309178024D
:103A3000283181E03807E4F4C901801B910BBE01F5
:103A40000E944A3AE89EF001E99EF00D1124E60F2B
:103A5000F71FE257FD4F80810E946D1C2091770275
:103A6000309178022F5F3F4F309378022093770296
:103A7000D394D8CF64E08F2D0E94251C0E946D1C2A
:103A800020917702309178022F5F3F4F3093780278
:103A900020937702ABCFDF91CF911F910F91FF90D1
:103AA000EF90DF90CF90089590918302973920F5A1
:103AB00080917C02811106C080917E028F5F80938D
:103AC0007E0205C0809180028F5F809380022091EA
:103AD0007F0280917E02821708F4822F80937F02FA
:103AE0002091810280918002821708F4822F8093B6
:103AF00081029F5F90938302809183020C94DA1C71
:103B00000F931F93CF93DF9380E090E00E940F1CF0
:103B1000813D09F04AC081E090E00E940F1C86368A
:103B200009F043C082E090E00E940F1C8933E9F560
:103B300083E090E00E940F1CC1E0811101C0C0E051
:103B4000C0937C0284E090E00E940F1CD82F8093E9
:103B50007E0285E090E00E940F1C082F80937F0278
:103B600086E090E00E940F1C80930B0188E090E0BB
:103B70000E940F1C182F8093800289E090E00E9421
:103B80000F1C902F0D1708F49D2F90937F02811723
:103B900008F4812F80938102C111D12FD093830229
:103BA000C11101C0892F80938202DF91CF911F91B3
:103BB0000F91089563E970E086EA93E00E9468310E
:103BC0000E94801D809183020C94DA1C86EA93E0A7
:103BD0000E94E5310E94DA1D1092BE03089561ED46
:103BE00080E090E00E94111C66E681E090E00E9477
:103BF000111C69E382E090E00E94111C60917C023C
:103C000083E090E00E94111C60917E0284E090E0CD
:103C10000E94111C60917F0285E090E00E94111CBF
:103C200060910B0186E090E00E94111C609180027F
:103C300088E090E00E94111C6091810289E090E090
:103C40000C94111C9EEF980F913168F49EEF960F23
:103C50009B3048F49EE0899FF0011124E60FF11D8E
:103C6000E257FD4F4083089540918C0250918D02A0
:103C700020918A0230918B029EE0949FF001959FE3
:103C8000F00D1124E20FF31FE257FD4F1082480F91
:103C9000511D87FD5A9550938D0240938C02260F3B
:103CA000311D67FD3A9530938B0220938A02949FD1
:103CB000F001959FF00D1124E20FF31FE257FD4F25
:103CC0008BE080830895662321F08BEC93E00C94C5
:103CD000143548E062E080EB93E00E94F3258823EE
:103CE000B1F080918C0290918D02029620918A020F
:103CF00030918B024EE0489FF001499FF00D112456
:103D0000E20FF31FE257FD4F80818823F9F048E06E
:103D100060E080EB93E00E94F325882361F18091BD
:103D20008C0290918D02029720918A0230918B0231
:103D30004EE0489FF001499FF00D1124E20FF31F60
:103D4000E257FD4F8081882361F0089582E08083EF
:103D500060E081E00E94341E8BEC93E00E94FE3410
:103D6000D6CF82E0808360E08FEF0E94341E8BEC20
:103D700093E00C94FE34089580918A02E0918C02C5
:103D80009EE0E99FF0011124E80FF11DE257FD4F7D
:103D90008CE0808381E080937D0280910B018150D3
:103DA00080930B01811103C082E080937B02089510
:103DB000BF92CF92DF92EF92FF920F931F93CF9318
:103DC000DF93E82EF62E082F10E0C8010197C62FCA
:103DD000D0E0DE0111974EE0489FB001499F700D81
:103DE0001124CB018A0F9B1F82579D4FFC018081BC
:103DF0008B3009F447C0CB018C0F9D1F82579D4F1C
:103E0000FC0180818B30F1F19E012F5F3F4FFB0160
:103E1000E20FF31FE257FD4F80818B3099F1409FF5
:103E2000B001419F700D1124CB018A0F9B1F825757
:103E30009D4FFC0180818B3029F1FB01E20FF31FC4
:103E4000E257FD4F80818B30E9F0C8010196489F11
:103E5000F001499FF00D1124AE0FBF1FA257BD4FB7
:103E60008C918B3079F0DF01AC0FBD1FA257BD4F95
:103E70008C918B3039F0E20FF31FE257FD4F8081B8
:103E80008B3011F40E94BC1EBB24BA94BE0C40E0DF
:103E9000DD24D394DF0C6D2D8B2D0E94221E40E07B
:103EA0006D2D8E2D0E94221ECC24C394CE0C40E09A
:103EB0006D2D8C2D0E94221E80917C02DD24DA94CF
:103EC000DF0C811122C08EE0809FF001819FF00DF8
:103ED0001124EC0FFD1FE257FD4F84E0808344E086
:103EE0006D2D8B2D0E94221E44E06F2D8B2D0E9484
:103EF000221E44E06D2D8E2D0E94221E44E06D2D69
:103F00008C2D0E94221E44E020C08EE0809FF00194
:103F1000819FF00D1124EC0FFD1FE257FD4F108221
:103F200040E06D2D8B2D0E94221E40E06F2D8B2DC9
:103F30000E94221E40E06D2D8E2D0E94221E40E028
:103F40006D2D8C2D0E94221E40E06F2D8C2DDF9157
:103F5000CF911F910F91FF90EF90DF90CF90BF9086
:103F60000C94221EEF92FF920F931F93CF93DF9337
:103F70004830B9F040F4473009F04EC0062F10E049
:103F80000F5F1F4F12C0493039F04A3009F044C06A
:103F9000C82FD0E021961FC0062F10E00150110954
:103FA00004C0C82FD0E0219716C0E82EF12CF801EC
:103FB0009EE0899FE00DF11D1124E257FD4F8081A5
:103FC0008B3011F40E94BC1E8EE08E9DF0018F9DFF
:103FD000F00D112417C0062F10E08EE08C9FF00129
:103FE0008D9FF00D1124E00FF11FE257FD4F8081EE
:103FF0008B3011F40E94BC1E8EE08C9FF0018D9FCF
:10400000F00D1124E00FF11FE257FD4F81E0908188
:10401000992319F080E001C081E0DF91CF911F91D9
:104020000F91FF90EF9008950F931F93CF93DF931D
:10403000182F062F8EE0189FF0011124E60FF11DB6
:10404000E257FD4FC081DC2FD07CCF70D03469F0B7
:1040500018F4DD2331F028C0D03879F0D03CC9F015
:1040600023C0C730F1F4C9E01FC0CA30E1F4C8E092
:104070001BC0CF5FCB3008F0C7E04C2F602F812FE3
:104080000E94B21F8823A9F30FC0C150C73008F4A3
:10409000CAE04C2F602F812F0E94B21F8823A9F302
:1040A00003C0C7E001C0CAE08C2F8D0FDF91CF9114
:1040B0001F910F910895CF92DF92EF92FF920F938D
:1040C0001F93CF93DF93F82EE62ED42E6091170422
:1040D000709118048091190490911A042AE030E03C
:1040E00040E050E00E945E3A672B682B692B09F094
:1040F000BEC00F2D10E0C8010197CE2DD0E04EE0DC
:10410000489FF001499FF00D1124EC0FFD1FE2576D
:10411000FD4F5081552301F198012F5F3F4F429F82
:10412000F001439FF00D1124EC0FFD1FE257FD4FEE
:104130002081222389F0409FF001419FF00D11243E
:10414000E257FD4FEC0FFD1FDF0111972C91222349
:1041500019F0218121118BC027E0D2120CC08EE012
:10416000809F6001819FD00C1124DE01AC0DBD1D2C
:10417000A157BD4F0EC029E0D21219C08EE0809F1A
:104180006001819FD00C1124DE01AC0DBD1DA35731
:10419000BD4F8C918F7049F08B3009F450C06E2D5B
:1041A0008F2D0E941420F6015DC0F6013FC028E06B
:1041B000D21221C0252F2F7071F02B3009F43FC08F
:1041C0006E2D8F2D0E9414209EE0909FF001919FF4
:1041D000F00D112447C02EE0289FD001299FB00D7B
:1041E0001124AC0FBD1FA257BD4F209FF001219F8E
:1041F000F00D11241BC08AE0D81239C0C801019605
:10420000FEE0DF2ED89ED001D99EB00D1124AC0F58
:10421000BD1FA257BD4F8C918F7019F08B3079F074
:1042200018C0D09EF001D19EF00D1124EC0FFD1F9F
:10423000E257FD4F808180628C93108218C0DF911D
:10424000CF911F910F91FF90EF90DF90CF900C9442
:10425000BC1E6E2D8F2D0E941420D09EF001D19E89
:10426000F00D1124EC0FFD1FE257FD4F8083DF910D
:10427000CF911F910F91FF90EF90DF90CF90089515
:10428000FF920F931F93CF93DF93F42EC62FD0E0AE
:10429000082F10E02EE0829FF0011124DF01AC0F07
:1042A000BD1FA257BD4F9C9194FF18C0E257FD4F10
:1042B000EC0FFD1F91819F70993069F028F49730C1
:1042C00051F0983041F00AC09A3029F09B3031F417
:1042D0000E94BC1E03C06F5F0E94D81E2EE0209F6C
:1042E000C001219F900D1124DC01AC0FBD1FA2570E
:1042F000BD4F2C912F7E2C939E012F5F3F4FFC01D1
:10430000E20FF31FE257FD4F4081411105C0F082DB
:104310001C92808180614DC0423011F04430D1F553
:10432000C80101964EE0489FF001499FF00D11240D
:10433000DF01A20FB31FA257BD4F8C91811107C09F
:10434000EC0FFD1FE257FD4F80818823B9F0C801B3
:1043500001974EE0489FF001499FF00D1124DF01C5
:10436000A20FB31FA257BD4F8C91811123C0EC0F38
:10437000FD1FE257FD4F808181111CC0FC92409FC0
:10438000F001419FF00D1124EC0FFD1FE257FD4F8E
:10439000108210C022E0F2120DC0453059F4FC0129
:1043A000EC0FFD1FE057FD4F8081811103C01C926F
:1043B00084E18083DF91CF911F910F91FF90089549
:1043C000EF92FF920F931F93CF93DF9360911704A7
:1043D000709118048091190490911A0425E030E03E
:1043E00040E050E00E945E3A672B682B692B09F091
:1043F0004AC00AE912E0ACE0FA2EC0E0D0E0EE24B8
:10440000E394F801EC0FFD1F96859F729730A1F0A1
:1044100030F4923059F09430C1F444E008C099303F
:1044200069F070F09A3089F44AE00BC042E06F2DD9
:104430008E2D0E94402109C047E003C049E001C021
:1044400048E06F2D8E2D0E945B20E3942E96CC3F8A
:10445000D105B9F6FA9401501109F110CECF2AE92D
:1044600032E080E090E0F901E80FF91F46854F7DCA
:1044700046870E968C3F9105B1F72150310982E0B5
:104480002E38380771F7DF91CF911F910F91FF9070
:10449000EF9008950F931F9327E0260F382F330FC7
:1044A000230F20930A0125E02093760220918C02AD
:1044B00030918D02280F311D87FD3A954EE0429FC5
:1044C000F001439FF00D112420918A0230918B025C
:1044D000E20FF31FE60FF11D67FDFA95E257FD4F5E
:1044E00040814F7E042F10E00730110580F5F80160
:1044F000EC5CFF4F0C949F3A1F910F910C94631E3C
:104500001F910F910C94341E0E94341E80918402DE
:104510008F5F809384028BEC93E01F910F910C943A
:10452000E8343091850220918402231750F00E94D4
:10453000341E8BEC93E00E94E8341F910F910C9491
:10454000541D8BEC93E01F910F910C9414351F9127
:104550000F910C94BC1E44E064E080EB93E00E9459
:104560000126882329F080917D02882309F482C0E6
:1045700044E065E080EB93E00E940126882321F06F
:1045800080917D0281117DC080917D02811130C0BA
:1045900044E062E080EB93E00E940126882321F052
:1045A00060E081E00E944A2244E060E080EB93E01A
:1045B0000E940126882321F060E08FEF0E944A22AA
:1045C00044E063E080EB93E00E940126882321F021
:1045D00061E080E00E944A2244E061E080EB93E0E9
:1045E0000E940126882321F06FEF80E00E944A227A
:1045F00080918A0290918B02E6E0E89F9001E99F0A
:10460000300D1124255131094091880250918902C1
:10461000CA01880F991F840F951F60918C027091B9
:104620008D02E69FA001E79F500D112447525109CA
:10463000840F951F97FD039695958795959587957A
:10464000909389028093880240918602509187025C
:10465000CA01880F991F840F951F820F931F97FD22
:104660000396959587959595879590938702809366
:10467000860208958BEC93E00E94E8340E94BC1EF1
:1046800077CF8BEC93E00E94FE34809183020E94EE
:10469000DA1C10927D0278CF8F929F92AF92BF92D8
:1046A000CF92DF92EF920F93CF93DF93BEE8AB2EC2
:1046B000B2E0BB2EC12CD12C812C912CC0E0D0E0DB
:1046C0008091880290918902BE01681B790B8091CC
:1046D000860290918702F501E80DF91DE081EF70E7
:1046E000E43029F42091170420FD9AC005C0EB3076
:1046F00019F4E0910A01E55F9B012A5F3F4F2B35DA
:10470000310598F4A601481B590B4133510568F453
:10471000F0E0EE0FFF1FE65CFD4F20813181E12CC0
:1047200000E084EF93E00E94152A26968EE0880E22
:10473000911CC837D10521F686E0C80ED11C8FEF39
:10474000A81AB80A84E5C816D10409F0B5CF80913B
:104750007602811103C097E090930A018150809303
:10476000760260917C0284EF93E00E94ED2606E0E1
:1047700024E540E060E084EF93E00E943B276091F5
:104780007C0281E0682784EF93E00E94ED2610927E
:10479000FD031092FE0360E970E084EF93E00E9455
:1047A0009E374AE050E06091840284EF93E00E94DB
:1047B000A8386EE870E084EF93E00E949E374AE0EC
:1047C00050E06091850284EF93E00E94A8386AE887
:1047D00070E084EF93E00E949E374AE050E06091E1
:1047E0000B0184EF93E00E94A83866E870E084EF44
:1047F00093E00E949E376091830270E06F5F7F4F6D
:104800004AE050E084EF93E0DF91CF910F91EF9079
:10481000DF90CF90BF90AF909F908F900C94933883
:10482000EDE06ACF86EA93E00E94D92D882309F44F
:104830009DC080917B02813031F008F47EC08230CF
:1048400009F48BC0089547E061EA70E086EA93E0DE
:104850000E94932E992787FD9095A92FB92FFC01CF
:104860003196E830F10508F081C0E55CFF4F0C940B
:104870009F3A6AE970E086EA93E00C94683180918F
:104880000B01882309F472C0815080930B010E94B0
:10489000EF1D10927B0210927D0208950E94801DF0
:1048A00010927B0210927D025DC00E94131C5AC0C0
:1048B00010927B0210927D029091830280917C0283
:1048C000811103C080917F0202C0809181029817FC
:1048D00008F04CC00C94541D90918302992391F0E0
:1048E00080917C02811106C080917E02815080936C
:1048F0007E0205C080918002815080938002915099
:104900009093830210927D0210927B022BC08091C3
:104910007C0291E0892780937C02811103C0809101
:104920007E0202C0809180028093830210927D02F9
:104930000E94DA1C10927B02089566E080EB93E0FF
:104940000E94EA25882319F081E080937B020E946F
:10495000AB220E94E0210C944C230E94131C81E0A6
:1049600080937B02809183020C94DA1C089510924C
:10497000F7031092F6038AE692E09093F503809392
:10498000F4030895CF93CFB7F89480912D0481114B
:1049900027C0EFE9F7E38491EBE8F7E39491E82F80
:1049A000F0E0EE0FFF1FE354F84CA591B4918C9109
:1049B000892321F461E08AE00E94F13661E08AE017
:1049C0000E94B8368CB580618CBD8CB580648CBD7E
:1049D00061E08DE00E94B83661E08BE00E94B8365D
:1049E00080912D048F5F80932D04CFBFCF910895C8
:1049F00021E0FC012083089570E085E00C943036BE
:104A0000AF92BF92CF92DF92EF92FF920F931F93DC
:104A1000CF93DF93EC0189819A812FE0289F800159
:104A2000299F100D112485E10E941336800F911FDC
:104A300024E0969587952A95E1F79A8389832881C2
:104A4000222391F1AC81AD80B12CC12CD12CE88511
:104A5000F9857F0100E010E06E817F819B0140E0DD
:104A600050E08617970728F0BC01E817F90708F40B
:104A7000BF0180E090E01F921F921F92AF930E94AF
:104A8000B5386B830F900F900F900F9070E085E01A
:104A9000DF91CF911F910F91FF90EF90DF90CF901A
:104AA000BF90AF900C943036DF91CF911F910F9152
:104AB000FF90EF90DF90CF90BF90AF900895FC01F2
:104AC0008CE39FE09383828384E0818381E0848709
:104AD0000895CF93DF93EC018C819D81892B81F127
:104AE0008C858F7151F584E10E941336BC018827B3
:104AF00077FD8095982F0E942B3926EE3FE34EECF0
:104B000050E40E94B7390E94FD389B017B836A8381
:104B10006115710581F084E08983FE0140E08481A4
:104B200095812817390710F449830AC04F5F3296E0
:104B30004430A9F702C08FEF89838C858F5F8C8703
:104B4000DF91CF910895FC0188E0808389E0818323
:104B500087E0828386E0838384E0848382E08583A8
:104B600081E186830895DF92EF92FF920F931F9366
:104B7000CF93DF937C01EC0100E010E0DD24DA94B8
:104B800062E088810E94B83688810E942737F70149
:104B9000E00FF11F892B21F487818F5F878308C085
:104BA0008781882349F08F3F11F4178201C0D78293
:104BB00060E088810E94B8360F5F1F4F2196073052
:104BC0001105F1F6DF91CF911F910F91FF90EF90BA
:104BD000DF900895FC01E60FF11D81E0978191308F
:104BE00009F080E00895860F911DFC01278130E0D7
:104BF00050E04F5F5F4F81E02417350709F080E0F8
:104C00000895262F30E0FC01E20FF31F8781423028
:104C100028F481508E3F48F080E008958F3FE1F303
:104C2000642F0E942A3A9130B9F781E008958EBD31
:104C300000000DB407FEFDCF8EB50895DC0164358C
:104C400008F053C0403308F050C090968C91909774
:104C5000342F359535953595E62FFF27E7FDF095EF
:104C6000242F2770823099F4DF01A25DBB4F84E5C9
:104C70003802A00DB11D11248C9190E0022E02C0CB
:104C8000959587950A94E2F78095817009C08330E5
:104C900039F446271C968C91482740FF03C014C066
:104CA000811112C084E53802E00DF11D1124E25D8E
:104CB000FB4F81E090E0022E01C0880F0A94EAF7D2
:104CC00080959081982310C084E53802E00DF11D95
:104CD0001124E25DFB4F81E090E0022E01C0880FBD
:104CE0000A94EAF79081982B908308951F93CF93AD
:104CF000DF93EC01162FF89460E08F850E94F13667
:104D0000888918161CF460E00E94F136812F0E94F9
:104D10001726888918161CF461E00E94F1367894F1
:104D2000DF91CF911F91089528EF31E0EEE2F4E09A
:104D3000DF01A9011D9241505040E1F7DC011996B5
:104D40001C9219971A961C920895DF92EF92FF9287
:104D50000F931F93CF93DF93EC018C858F5F8C872C
:104D60008EE2E82E84E0F82ED12C6D2D6064CE0109
:104D70000E94762660E8CE010E94762661E08F854B
:104D80000E94F136888918161CF460E00E94F13602
:104D900000E010E0F701E00FF11F80810E9417266C
:104DA0000F5F1F4F04351105A9F7888918161CF4E9
:104DB00061E00E94F136D39484E5E80EF11C86E0B0
:104DC000D812D3CF60E4CE01DF91CF911F910F9124
:104DD000FF90EF90DF900C947626FC0160A361A316
:104DE0000895FC0160A341A30895CF92DF92FF9242
:104DF0000F931F93CF93DF931F92CDB7DEB76C0154
:104E0000062FF42E10E0121754F4412F4F0D602F8F
:104E1000C60129830E941E261F5F2981F4CF0F90AF
:104E2000DF91CF911F910F91FF90DF90CF90089568
:104E3000CF92DF92FF920F931F93CF93DF931F9236
:104E4000CDB7DEB76C01062FF42E10E0121754F424
:104E5000612F600F4F2DC60129830E941E261F5F00
:104E60002981F4CF0F90DF91CF911F910F91FF9087
:104E7000DF90CF900895DF92EF92FF920F931F93F0
:104E8000CF93DF93EC01E62ED22EF42E112707FDEF
:104E90001095040F111D47FD1A958F2D992787FD39
:104EA00090958017910744F42D2D4F2D6E2DCE0136
:104EB0000E941827F394F1CFDF91CF911F910F91AA
:104EC000FF90EF90DF9008958F929F92AF92BF92E4
:104ED000CF92DF92EF92FF920F931F93CF93DF93C6
:104EE000EC01E62ED42E122FCC24C394C21AB22E7B
:104EF000B194BB0CF12C802F8470A82E802F82706F
:104F0000982E802F8870882E0170F1160CF04DC0FD
:104F1000C7FC04C01150B394B394CB0CF3948F2D01
:104F2000880F8F5FC80EAA2071F0412F4D0D6F2D95
:104F30006E0DCE010E941E264F2D4D0D612F6E0D60
:104F4000CE010E941E26992071F04D2D411B6F2D20
:104F50006E0DCE010E941E264D2D4F19612F6E0D34
:104F6000CE010E941E26882071F04F2D4D0D6E2D12
:104F7000611BCE010E941E26412F4D0D6E2D6F1913
:104F8000CE010E941E26002309F4BFCF4D2D4F19DC
:104F90006E2D611BCE010E941E264D2D411B6E2DD4
:104FA0006F19CE010E941E26B0CFDF91CF911F91C5
:104FB0000F91FF90EF90DF90CF90BF90AF909F90B8
:104FC0008F9008958F929F92AF92BF92CF92DF926F
:104FD000EF92FF920F931F93CF93DF93EC01B62EC6
:104FE000A42E122FDD24D394D21AC22EC194CC0C3D
:104FF000FF24F394802F8170882E992493949E0C23
:1050000002708FEF8F0D8117C4F5D7FC04C01150CB
:10501000C394C394DC0C8F2D880F8F5FD80E88202B
:1050200099F0212F220F290D4A2D411B6F2D6B0D59
:10503000CE010E94F52623E02E0D4A2D4F19612F37
:105040006B0DCE010E94F526002399F0212F220F2F
:10505000290D4A2D411B6B2D6F19CE010E94F5269B
:1050600023E02E0D4A2D4F196B2D611BCE010E949E
:10507000F526F394E394E394C4CFDF91CF911F918D
:105080000F91FF90EF90DF90CF90BF90AF909F90E7
:105090008F9008959F92AF92BF92CF92DF92EF923E
:1050A000FF920F931F93CF93DF93EC01B62EF42E54
:1050B000A22EDE2CD194DD0C9D2C920E1E2D160FEF
:1050C000292D612F0E941827CC24CA94C00ECF0C22
:1050D000292D4C2D612FCE010E941827D00EFE0CD9
:1050E0002D2D4F2D6B2DCE010E94F526BA0C6FEFA2
:1050F0006B0D2D2D4F2DCE010E94F52601E02E2D9A
:105100004F2D612FCE010E946427DE2CD094DB0C42
:1051100002E02E2D4F2D6D2DCE010E946427CE185A
:1051200004E02E2D4C2D6D2DCE010E94642708E049
:105130002E2D4C2D612FCE010E946427DF91CF913F
:105140001F910F91FF90EF90DF90CF90BF90AF90A5
:105150009F900895AF92BF92CF92DF92EF92FF920D
:105160000F931F93CF93DF93EC01A62EC42EB22E84
:10517000F02E1E2DE194EE0CD12ED60E2E2D2B0DE1
:105180006D2D0E943B27FA94FE0CC10E6FEF6A0D45
:105190006B0D611BEF2C01E0212F4C2DCE010E94E5
:1051A000E22702E0212F4C2D6D2DCE010E94E22737
:1051B000DF91CF911F910F91FF90EF90DF90CF90F3
:1051C000BF90AF9008956F927F928F929F92AF920F
:1051D000BF92CF92DF92EF92FF920F931F93CF93E4
:1051E000DF93F901A49031965491FC01F0A064354D
:1051F0000CF00CC1BB24A7FCB094A62FBB27A7FDC5
:10520000B095FD01EA0DFB1D1E161F060CF0FEC039
:1052100040330CF0FBC0C52E042F112707FD10955D
:10522000E801C50FD11D57FDDA951C161D060CF0BF
:10523000EDC0E90122969501295F3F4F37FF02C07B
:10524000295F3F4F73E0359527957A95E1F747FF42
:105250000AC0C52EC40E209FA001219F500D11240D
:10526000C41BD50B40E00C2D112707FD1095040F32
:10527000111D47FD1A95013311051CF070E3C72E6F
:10528000C41A67FD60E0E535F10514F0E4E5F0E0EF
:105290001E2FFC0174857427862F992787FD909512
:1052A000FC01EA1BFB0BDF015F01F7E0AF22BB242F
:1052B000E0E8F0E002C0F595E795AA94E2F70E2F3A
:1052C000B7FD179653E0B595A7955A95E1F7AC0F42
:1052D000BD1FE42FE77051E001C0550FEA95EAF7D2
:1052E000459545954595E4E54E02800D911D1124A7
:1052F000825D9B4F40E0DD24C7FCD094BB24B39477
:105300003327E42FF0E0EC15FD050CF07FC0FD0124
:10531000E490F1E0FF1219C0EC01A02EFD01862EF1
:10532000881A9C2E980C911608F067C09E2C9A2023
:1053300019F09880952A9882A69429F43196E490E1
:105340006894AA24A7F82196ECCFF1101BC0752E03
:105350007094EC01A02EFD01862E881A9C2E980CCC
:10536000911608F04AC09E2C9A2019F09880972038
:105370009882A69429F43196E4906894AA24A7F818
:105380002196ECCFE3E0FE1631F0EC01A02EFD01FA
:10539000862E881A2EC0752E7094962EEC01A02EA3
:1053A000FD019116B0F48E2C8A2049F08880692C7A
:1053B000672660FE02C0852A01C087208882A694E5
:1053C00029F43196E4906894AA24A7F8939421963E
:1053D000E8CF7B2512C09E2C9A2019F09880952644
:1053E0009882A69429F43196E4906894AA24A7F8A8
:1053F00021969C2E980C911670F3550F19F48C5A27
:105400009F4F51E04F5FA20FB31F7BCFDF91CF9132
:105410001F910F91FF90EF90DF90CF90BF90AF90D2
:105420009F908F907F906F9008952F923F924F9210
:105430005F926F927F928F929F92AF92BF92CF9224
:10544000DF92EF92FF920F931F93CF93DF93CDB72D
:10545000DEB72A970FB6F894DEBF0FBECDBF6C0142
:10546000262E542F01111CC0E1101AC02A960FB627
:10547000F894DEBF0FBECDBFDF91CF911F910F918A
:10548000FF90EF90DF90CF90BF90AF909F908F9064
:105490007F906F905F904F903F902F900C94E328F7
:1054A000F901849131963490B9016E5F7F4F7A8310
:1054B0006983A82EB12C9501295F3F4FB3E0359544
:1054C0002795BA95E1F73A87298703702FEF280FC0
:1054D000522E10E07FEF730D832D90E09C838B8321
:1054E000812F992787FD90958A159B050CF071C037
:1054F000812F17FF02C087E0810F682E65946594A5
:105500006594812F877887FF03C08150886F8F5FF4
:10551000A0E88A2E912C02C0959487948A95E2F790
:10552000472EF12C772467FC70948F2D992787FDE7
:105530009095EB81FC818E179F070CF047C0A985E1
:10554000BA858A9FF0018B9FF00D9A9FF00D112470
:10555000E60DF71D89819A81E80FF91FE491F0E0CB
:10556000E821F921EF2B79F1023039F0033041F0D5
:10557000013049F4452D6F2D08C0652D442D05C01F
:10558000642D412F02C04F2D612FEE2069F03E2D7A
:105590003370E0FE03C0922F961B692FE1FE05C019
:1055A000A32DA41B4A2F01C030E0620D450FC60198
:1055B0002E833D835F8378870E941E263D81E32EE4
:1055C00078855F812E81F3944A94AFCF1F5F5A9400
:1055D00087CF2A960FB6F894DEBF0FBECDBFDF91FE
:1055E000CF911F910F91FF90EF90DF90CF90BF90E0
:1055F000AF909F908F907F906F905F904F903F9073
:105600002F900895DC01FB0184918F5F14968C9399
:1056100014973196E491EF5F1596EC9315976E5FB2
:105620007F4F5F967C936E935E970895EF920F93F2
:10563000CF93DF93EC014E876D872F87E98A088B24
:1056400081E0888788A319A28F8361E874E3CE0183
:105650000E94022B0E94C2248CB58F7D8CBD8CB51C
:105660008C7F81608CBD8DB581608DBD8CB58C606B
:105670008CBD61E08E850E94B83661E08D850E9408
:10568000B83661E08F850E94B836898918161CF4F7
:1056900061E00E94B836888918161CF461E00E9407
:1056A000B836898918166CF460E00E94F1366AE019
:1056B00070E080E090E00E94B03561E089890E944E
:1056C000F1368D85992787FD9095FC01EB56F84CB6
:1056D000E491F0E0EE0FFF1FED54F84C259134916A
:1056E0003D8B2C8BFC01EF57F84C84918B8F8E8572
:1056F000992787FD9095FC01EB56F84CE491F0E07A
:10570000EE0FFF1FED54F84C259134913B8B2A8B03
:10571000FC01EF57F84C84918A8F8889992787FD7F
:105720009095FC01EB56F84CE491F0E0EE0FFF1F72
:10573000ED54F84C259134913F8B2E8BFC01EF57A3
:10574000F84C84918C8F8F85992787FD9095FC016B
:10575000EB56F84CE491F0E0EE0FFF1FED54F84CDF
:1057600025913491398F288FFC01EF57F84C8491A3
:105770008D8F61E2CE010E94762664E1CE010E9407
:1057800076268B8587FF02C08FE78B876B856068E5
:10579000CE010E94762660E2CE010E9476266CE061
:1057A000CE010E947626CE01DF91CF910F91EF902E
:1057B0000C94A5266F927F928F929F92AF92BF9288
:1057C000CF92DF92EF92FF920F931F93CF93DF93CD
:1057D000EC01162FF42EB02EE8A064350CF081C039
:1057E0008FE284170CF47DC0EC81F0E031970E9FBE
:1057F000C0010F9F900D1124860F911D67FD9A9592
:10580000181619060CF06DC08D81809FC0011124FF
:10581000840F911D47FD9A95181619060CF061C06A
:10582000A62E962EC22ED12C8A2D811B992787FD5C
:1058300090952C8130E0821793070CF051C02150D5
:1058400031098217930779F0C29ED001C39EB00D33
:10585000D29EB00D1124A80FB91FEE8DFF8DEA0F57
:10586000FB1F749001C0712C8F2C6F2C282D2F19C9
:10587000332727FD30958D8190E0281739076CF587
:1058800070FE11C081E0B81206C0482D6A2DCE010D
:105890000E941E261EC00B2D2B2D462D692DCE01DC
:1058A0000E943B2716C089A198A1891791F088A36F
:1058B00081E0B81206C0482D6A2DCE010E941E2636
:1058C00007C00B2D2B2D462D692DCE010E943B27A5
:1058D000E8A276946B0C8394C9CF9B0CA394A4CFBD
:1058E000E8A2DF91CF911F910F91FF90EF90DF9091
:1058F000CF90BF90AF909F908F907F906F900895C2
:105900000F93CF93DF93EC01262F6A3039F42D816A
:1059100098858A85299F800D112422C06D3011F150
:1059200008854A8569850E94DA2B48855C8129852E
:10593000549F200D112429878F81882399F03327C4
:1059400027FD309584E590E0459F80199109112449
:10595000821793073CF49D818A85499F800D11240D
:105960008A87198681E090E0DF91CF910F910895A9
:105970008F929F92AF92BF92CF92DF92EF92FF925F
:105980000F931F93CF93DF93EC015C0186E8A80E81
:10599000B11CD5018C91882309F44DC08C3018F4CA
:1059A0001CE0181B01C010E0FE01EA5AFF4F81E025
:1059B00080836E01BEE4CB0ED11C60E0C6010E9464
:1059C000ED264E01E3E58E0E911CD4018C9103E08F
:1059D000080F9DE2F92E4F2D481B410F23E0E22EC8
:1059E00024E560E0C6010E94AA2861E0C6010E9489
:1059F000ED26F401808103E0080F4F2D481B410F75
:105A000024E560E0C6010E944A28FE01E95AFF4FE2
:105A100084E080833196D4018C91181B115D108332
:105A2000CC57DF4F68817981C6010E949E37F5010E
:105A3000808181508083DF91CF911F910F91FF90E2
:105A4000EF90DF90CF90BF90AF909F908F90089590
:105A5000DF92EF92FF920F931F93CF93DF93EC01AE
:105A60008C8D9D8D892B09F49CC08E01025B1F4F8C
:105A700040E061E0C8010E94F12685E5FE01EE5A92
:105A8000FF4F9081891B3596808331961082698DF6
:105A9000613009F462C028F0888D653008F074C068
:105AA0006FC0CE0185960E946A3381E0FE01EA5AFA
:105AB000FF4F808361E874E3C8010E94022B1D8EB2
:105AC0001C8EFE01EC5AFF4F108238EAD32E7E0165
:105AD0008AE0E80EF11CCE010E94D92D8823D9F36B
