:100000000C94C11A0C94E91A0C94E91A0C94E91A8C
:100010000C94E91A0C94E91A0C94E91A0C94E91A54
:100020000C94E91A0C94E91A0C94E91A0C94A03374
:100030000C94E91A0C94E91A0C94E91A0C94E91A34
:100040000C9413340C94E91A0C94E91A0C94E91AE0
:100050000C94E91A0C94E91A0C94E91A0C94E91A14
:100060000C94E91A0C94E91A5C217D2158215C2139
:1000700060217D216D211523312376232A231B2323
:10008000342348236323204C3A0020033A002F00F6
:10009000043A0044494747455200444947474552BE
:1000A00000CF00D800E400DF00C600BB00AF005462
:1000B0006F67676C65204D6F6465004C6576656C95
:1000C00020646F776E004C6576656C207570004E0D
:1000D00065772047616D6500526573756D650053E6
:1000E000617665004C6F61640008430C4673308490
:1000F00028623218272084631C3119D4A2ABC6D0E1
:1001000094A52D48108618083B2084BF88484210CB
:100110009505CA2154E2108552FCBBD688D037C859
:10012000004631E112C7406AA020A87E21827808EB
:100130006F80CB000689B9D6375AC778B71101232B
:10014000AB6F0B998008430C4673311A408C76E8EC
:100150000813042D2342000171000010571A0109F1
:1001600028E677854F9BE8FA8FA3A3F12DA8F51F0A
:100170009F47F93D8CD7E018C798E91F0B6A6CEBD5
:10018000520E101B4334917E310C5144673477D2A8
:10019000752008430C46733340063231000018C501
:1001A000A10926B18863A8C15055402124CA8437CB
:1001B00058C7A052ADBD32CF8803EE060318C696CD
:1001C000072C543DD5472D681F3FF6D086B4193B08
:1001D0000C0696000421139CF8063182328E753687
:1001E0008D7C4774DEA9BF8C4322D04008430C4667
:1001F00073301A008842108918840069A280067939
:10020000A62B09EAA2CAC84112A7F03D2D149A17DD
:10021000C3A00A7A08C638623398EA7B9F4300017C
:100220000C463A22EA7A9430C68F4237D088645618
:10023000E4357DD7F1F2733008430C467333400048
:10024000004C10851C4C200841388EB88E8425D473
:10025000231CB0030846D02686681F0E80C8EFE234
:100260000C30114793E14A529471947810F40C00C9
:10027000A328F0210000000E328F2A415471DE8F36
:10028000BFE8FBFE8FBF84218623399808430C46C4
:1002900073300000362900063208841540318E186C
:1002A0008C2A121084A872B902A1D22A2CD3E0F6AB
:1002B0002A5E63D06FC42A94C4A434310AA7F8A973
:1002C0000F9EA5FA3E418C7A2D4AD00000F8855445
:1002D000842BCCB596FCF956A7F108210C3119CC2A
:1002E000C008430C4673318631C31198C538673551
:1002F000480006801548AA00547650C1A1AEA7B2A6
:10030000BE107F048CB9800000A2229A8002001ADD
:10031000125482A8B432553F3B5B516A175D4F546B
:10032000D4FD45464F8E3397271C24006324B6B571
:10033000B6AE2BD50008430C46733084286063901A
:10034000E71A980018C70C461A3D3D53D5FA062FF8
:10035000F514A5A9FF70840000003192429AAA7A90
:10036000BF47ABC2118C210C73209638A01AD6C39C
:10037000118719521A9EA800BF0BEA95C208430CB8
:100380004673308822431141053088410D3B445C5F
:1003900036C68320CD559E8342DD7F8689E0553663
:1003A000568010847194AE100010C0245000D53DCA
:1003B0004C0D1EA7F987A3FCE010042F91622108C1
:1003C00022063894013804218623399808430C46C4
:1003D00073300006846310C6419A73A84150888325
:1003E00018E7309348A6B50D82A2FE021193312082
:1003F000E7CF81BF0631C84E750803F07A239CC34E
:1004000078006310E31FE2A2FE03F0DA021CFC4155
:10041000D423D0BE06E304A93D90FB1F04FBFC7C63
:10042000151AFA00804319249268418623399808E6
:10043000430C467330C638623398EA7B9F42001BF8
:100440001434031B41145493C455297C44BC62A941
:100450004BE2FE23398EA7B9FE207C3154A5F1363C
:10046000A26D94DF909A0C552803E3FE23398C216A
:1004700032EB7A9430C467330008430C4673301A69
:100480000002188F270A806318C6210A1896AA5AF4
:100490006EABD104221221D4AA7A9F46FBC6D08526
:1004A000BF055D30FC9F818C63535F2017F85315A7
:1004B0003E85F94A753EA1267C20680008623C6FA3
:1004C000C0186233998008430C46733182418C24F2
:1004D0001104210C8100881A44600C50410470C73B
:1004E0009248C2B88A58CC025BC67D8207B0080029
:1004F000BD47801DB5BCF340054008C021DC7A8FA4
:100500009420D2221B87C808C84F8C3208B43A28DE
:100510007CC5C41080400003CD4813C7904D82C0F5
:1005200008884DD2A09C45D67A24E67B991682088D
:10053000430C4673300006C411E4E3506A23DFE83D
:1005400090044414303E4080022A236823A839BF17
:1005500025A122C641C31150BE3D080318E18212F5
:10056000A300022A801600AA70134106602105B577
:1005700020C6AF245A3B5B88532427CA10C311906E
:10058000E61D01BEC7E11E4E397EFE1008430C4633
:10059000733086120463180678C24810678D62A211
:1005A00004B41A0042CC4798542A00320D03A2D05A
:1005B000FF9F845D46B51E685D4086288790154A7A
:1005C0005094310943E47C0209040002188C7C1F1A
:1005D00084841104168444036A3DE3908CFD8FE704
:1005E000BD57FE132E6E022A4F7FFE08430C467342
:1005F00030C638606168000862300854004304E087
:100600002688A0F506543A4323D0B98405B9C5819C
:10061000AC1FE1D08015667F1800A98484210950A1
:10062000E8F5123E5CE347F934408618F973894ACD
:1006300068A07E2D0B3CD47415FC26D3BE2C9F766F
:1006400008430C467331084860812088288482085A
:1006500040003620902399C001088428604118C7C3
:100660000C4606A9A9E18C21294B0C6657207A7A01
:100670008082254F907558D043C48BB8E0FB817CB5
:100680006BF02B21044326F3C968442049F0CF3E88
:1006900047C340FC44C4BD1FE05C87CB1E4E8008AE
:1006A000430C467332C0200C63862300000216758B
:1006B000506F2208C84210810DE3504B15071550AA
:1006C0001044154BF2643E8687F37804887E7D0AD9
:1006D000A1F86A7DE7F8D1F61FA4C317B7F1553129
:1006E000DEF0318A2A98F34154532888424304E0CB
:1006F000BAA95C2008430C4673301800006168C634
:100700003088421049504D1500062A9041C20D51C3
:100710009061294A5D1EA3003430000068C2109227
:10072000E8C007A04E140109D0CC610884210EA4B2
:10073000B4042D044418331E83C0A8AC858391A94A
:10074000F43EC482D1EA418884B43461545DC10668
:100750003D83E888645A0808430C467332C00000A1
:10076000228C40118C84206381C304AAA621548268
:1007700010B53AE340FE22A08267C20630E4611160
:10078000082D009F493D21869020BE521341BE7A1C
:1007900080C764AA6A6EA1A0DE62AF0F7BF43E80C0
:1007A0008803113409006307C24FA6A120EA009A0A
:1007B0003810BACFE62A95C208430C467330C638C3
:1007C000623318000110218E0153D30208484A8A6F
:1007D00039CC0841541FC0471DC9D8113DDDA421A3
:1007E00017C0420C4315802A8C841531A1D524D022
:1007F0003F808E3B93B905832C17C9DF7C64A8C862
:100800002159C4AA021079560DA2410CC108618871
:10081000CE6608430C462697C600021803644010B3
:100820002186367CAB40090631C311993292593882
:100830006E63A10C20000006463DCE860D5248D1C5
:10084000F5021330D1FE1AC23AD1BDDFE34420C60F
:10085000386233EE7365EEBA08000862339872DCD2
:1008600097A308430C4673308222106318C61210F7
:1008700080008610AE82204240DA00086A0004112F
:1008800004B030800004835213A102AA1C0344D692
:10089000422DA09F02BF217F22B6B0AD08E118C64D
:1008A0004080DF4C81F813F9CA47ACC53500C5500C
:1008B0009004D0C7E4043A008241773FC7E0015E6C
:1008C0001E05C3A1102420C9A010601807A07751ED
:1008D000E4E808430C4673384266800C001A18C4DA
:1008E00020CE8842430408014CD454FD35A0E6E0F4
:1008F00000F5AE2B0CF459ECD38108FA0F603A2DB9
:10090000BDF8FC77D771E054BBC585E493ABFE0618
:10091000D88253F8B70CB3A1D0BE86F97FD0C0BA45
:1009200082B88CE66008430C467332C2A00010C443
:10093000647210810806420E400C804103C28C474D
:10094000487F221E2350902408C7645B138FC5582C
:1009500028000431D80B421DC3F0E85519350D139A
:10096000502683F0450318F618C388D0337D6F19DD
:10097000B62FAC6642066FA32426D0484210620907
:10098000081273FF784008430C467330C8320C8459
:1009900021C00043000661108E43049351AAF2CE99
:1009A0005720E857C9382D0B8A052032460419070D
:1009B000F1F0F392742B0AD8B8F49F428CE4076DDF
:1009C00004031DE388FE1B1E87DC2BF3A8521D03C6
:1009D000D3F2B4118C70C0C9E8A6D937D1B0467330
:1009E0003008430C4673310848608200C0338000F1
:1009F000003381EB600802021062A800220C64251B
:100A0000F158E31926E7F80464F04641CD000431BB
:100A1000F872150FF1AACBA4BE04020C8794788457
:100A20007C1CC441B88C631FE1A18F4018079D3422
:100A30007A024690924805B24203A10F01EC13419D
:100A4000FC2A15AB91BC3E06FD26D076191682080D
:100A5000430C467338C6020C230848419084212970
:100A60009202783DF5915E1A045160840000008086
:100A70008452C54633E85F090299001E4035826FF3
:100A80001545E140584120B59500000009F080640B
:100A900011067AC7408ABA116E59C23F1200631814
:100AA000F08A83409AB00BE008D126426181098226
:100AB00042136148C2AD406BF86F99168208430C2F
:100AC0004673308428604218000860016042320C8E
:100AD0009108F9300C01094A6294B700484B200193
:100AE000A839DD0AA02680AAA8631C303D10980111
:100AF0000811673AC7C5598C6002F9206823188429
:100B000011847A58C7244C12067184080027B20059
:100B100008049A241A8BE0C27299C44CA9081200E6
:100B2000426825027A1A0FF1154AE108430C467310
:100B3000334000000158442143118042008E292097
:100B400048424311854263597740E21D0748D0006F
:100B5000004311823E09A5BA16B119CC23184838B2
:100B6000A022108428EA80FC2D0B02DA06124A86A5
:100B70005820C8320425F62A0A6360294A5A200000
:100B8000003B9A8A69E43E2112A7A808421023205C
:100B9000E304CD44E43A88CE6608430C46733088BB
:100BA000018C63206411084210424183612042009D
:100BB000D318068290909A05405294A4BC03A200D8
:100BC000003800418B904CD0007C40EE03F08FF059
:100BD00016835080841590420E401907C8041A1ECF
:100BE000F1C8DF03D6BE11085E40C442461A0109AF
:100BF000890E61E400007156013B12742190341A91
:100C000084890917580CE6A8BB28F27408430C46DF
:100C1000733188118C03004812340000179C4E2059
:100C20008C87D503D8A433018E4120C551687E85B9
:100C3000C16C02A3D07830907FD7A2927C1F9545DB
:100C4000655D322D43F10D310483385434A56A9A21
:100C50008A76E0FE0EDB65F802409221914210C3D5
:100C6000119CCE08430C4673300000849182E50944
:100C7000A49501AB01D8180E31516C2406A1CCE823
:100C80009C5625A4FC5D166DA35F378C9411C98416
:100C9000B080160403D07531EE3B17152DD6170D15
:100CA000B5E0691FA8389D13ABD23F26E758501A0C
:100CB000109084CB364E7008430C467330C638A073
:100CC00092404710925820C000022A92417004912D
:100CD000C81A0E4760AC421B43D0088420F8340584
:100CE000433C52150621A47C231908422C84F43E6F
:100CF0008B2826294B0C0423C0341DA40004303A51
:100D0000886DF807536502BE2A321084110441270A
:100D1000B1F8071E07E0087A8AA42DF8E33A4ABA28
:100D200095FD8008430C467330C63180421431195A
:100D30008AA4B22EA8C82121081A9C6B192A0C601B
:100D400001860219A728D0D20002188C2A3FA037AA
:100D500080425294BC8CD51C0C61D683A461249E25
:100D60000714D4F90541C6689C9049ED0077854287
:100D70006A846127F230704DD012127363492E0BD2
:100D80000A33998008430C467338842104242102D5
:100D9000000218184231D443A86780809510EDA155
:100DA000D40320F439E289001A20887A1F223C03F8
:100DB000900E89A9840419218902A10002CF206222
:100DC00010BA8D0CA50F100A9F43006B827C1A008D
:100DD0007E3180440700518C2327C36400950001B5
:100DE000780482F817508426A882426819CC6733A9
:100DF0000008430C46733106718C848608422C75BA
:100E00001D0129084294482964151DC35092A4006D
:100E100001680C4188345A9823F871810850C463E2
:100E20005004351761E4467F153F6DFC2528676245
:100E3000530427C21084230E103A9C10C590421B05
:100E400092C62A6DE63399EB7008430C467332C69E
:100E500031C3119CC410921824532149950D83FC71
:100E60004555FE2FD1F6F97D35B5E8F53FCFF2E8CF
:100E7000FB97CF46FF3F3E5FF384631C3119CC6183
:100E8000086188CE64304008430C4673300006C4C5
:100E900011E4E3506A23DFE890044410C621F20411
:100EA000001151E8350F37E4B4C458C838622A1627
:100EB0008E300C6386084F8C0008AA005802A9C027
:100EC0004D0419808416D4831ABC9168ED6E214CB0
:100ED000909F28430C4643987406FB1F847938E59D
:100EE000FBF84008430C467333400000018C25009A
:100EF000908400430C04944475D8D4399479D1F586
:100F000019800984806318C72CF0219C05408C84CB
:100F1000BE2E2ACEC015B1F0A80017F10C00951F07
:100F20000032040308368EE2315D303F42A046E7CE
:100F300071611281AC81C3138B6F0190840B6510BA
:100F400000988D614C1251A42E8FB64EF6000843C6
:100F50000C467330863108411908208000036A313D
:100F60008C2118AA12108404D1508D63228C19E0B0
:100F70003148C8305B059EBE9B27C8BC783EC42163
:100F800055B78D8008C4ADBA2FE4D12FA8F33AD25B
:100F90000E3FE74AC380308F008A6681085B0545B3
:100FA000E584222089C8814009AE8D83EE95C20870
:100FB000430C46733086120463180678C0631083AE
:100FC0003C6B151025A0D01606047A88E00641A0D7
:100FD000745A1FF3F08BA8D6A3CD0BA810C510E14F
:100FE00002A94A128621287C8F804120800043116B
:100FF0008F83F090822102D088806D47BC72119F50
:10100000B1FCF7A8FFC265CDC002AA3F7FFE08432E
:101010000C467330C63860616800086230085400BE
:101020004304E02688A0F506543A4323D0B984054A
:10103000B9C581AC1FE1D0B02CC7E3001530908456
:10104000212E3D1AA147CB9C68FF268810C31F2E76
:1010500071294D140FC5A1679A8E82BF84DA77C5B6
:1010600093EEC008430C467330C6386042BB65102F
:101070000000B2C0A00311A8231DAECCD05B187A2B
:10108000BA1F521213D81909886860D06A1DF81B5C
:10109000893480451F2688119E321AB78CE01A09C0
:1010A000347D183B9ABE2B440A00F61D186BF8B627
:1010B000AF80DD97B52B8408430C467330C6010C16
:1010C000638E06000001862A018EAA980006D73A90
:1010D0000671A8E33A8E80218AABEE49518C9F8F2E
:1010E000F070F5238C3E098680F9EE900E21F832DF
:1010F00018CA70A46A2036D338CE3887E0180DC0DD
:10110000E8FA10343F13E2EE3E15EC63CCDBA8DBCB
:10111000519CCC08430C467331860080110C8633F9
:1011200004231D2154466000C7EC01B55363CE6310
:10113000C1D3F9AA986318E9DA9884A92AFD1FE7B0
:10114000DF2A56FF4D8F3DFDDFE118FF7FE4630886
:101150005750EE3C8F60337D10C467330008430C5A
:101160004673300008600054AAACE16118C618A8A4
:1011700032079FFE549940C6216C5C8801D0D03163
:101180008926AA6038C0860B24210443FDCD3B5636
:1011900043A08008000000E719001BA2FC1BDCB183
:1011A000DD663A82B603D49A114BA3108109B4BF0D
:1011B00094350ECB2B8408430C467330C635C411CE
:1011C000C4B33812A010850C54F50E57A110641842
:1011D0009B53D46318B46F07E3A8430C6E7D04F0EF
:1011E00029C4428606529793B845C0886000072DEF
:1011F000705217C001104418C951585505E8208491
:101200000108618B0A5C08000860C12000844D560B
:10121000AE2BD50008430C467330C62308631C313F
:10122000300C842540210AA008882A9F20AA2A5D24
:10123000E741268F5267174FC2296398D02A7A68F0
:101240005F01341C8347F8463F07419ABE2AA6A790
:10125000D03A0DC242D1F41178BF28844F80842740
:10126000C6BEC7D191682008430C467330C431888C
:1012700042862319807500C70C46731E860000083D
:101280005463A2FD1B7FE010DB54FF51516AFCCD7B
:10129000467FF452C689FEF9353FF5E568E3184A02
:1012A00050D4FA1FC3A326A459AA44842186233903
:1012B0009808430C46733000D03400088631C311BF
:1012C00085414CD51538424212182686002AA7A916
:1012D0003E40C3118FCE10DFA200010C02A3108488
:1012E0002E2EB9F478D9F0213042BFB0199681A8DA
:1012F00017B2D03330D42217A3F1211A98692AC328
:10130000D3FE1BC6F9BFD008430C46733000000162
:1013100011810840884210B3F08F98A9342DA81588
:1013200030C7C40C7DD54E386072104A5294B53D1A
:10133000C97C854A00000054F5006188CFA09F1A3F
:10134000D6C30DF9323F4800E6FE418EB2D0976118
:101350000426A933EE2A7A93B58008430C467330ED
:101360000008623208C4310C5505BE1A68750908B8
:10137000420404268FC80C630806394E60A9BE18C3
:10138000A6380B34410AA008425284260AB1AF871E
:1013900053B203F4FCD586D02AC6D19132AE07A150
:1013A00090908479779C79EC66FC22F1FDBC200852
:1013B000430C467332C6318C6168000046610D34BF
:1013C000308064180364D40A90C04212A1368FA002
:1013D0000C601E89BD23B26D44DD1B58086188C8AE
:1013E0006210A18B6654D1773E92A7A9C23D5F33AC
:1013F000A8821860252C99F0B400043119CC196E1C
:10140000C9CE0008430C467330C00001B148063114
:10141000C303A865C926E2A8895AE055093F2CE113
:10142000A0E8175178B48E899154DCCE83CC77191B
:10143000A771F0501CC92A52681DD4E7EC8FE1EE69
:1014400066927A55174199C79A10CD9D376AFC422A
:1014500010C3119CCC08430C467330C6300010C03A
:1014600014001AA410EDCE69B53D440004201AF40E
:10147000506855087B8EAEA118EA79CB4307F1DCA2
:1014800097D8EC639093C8B8557454B906838D7699
:101490003E07004D080318EE9DA6A3E3C2D084E1E9
:1014A0002103106723982721D43AACAE1008430CCF
:1014B000467332C6318C5150850C08610D3351CAC8
:1014C00058854A0056E10F06211360EAFE024E34A9
:1014D0008F621863E2A0B2CD0FD900002C9B4406A6
:1014E000D1A3D49B007A8084A5D8884D06A08ABE5B
:1014F00041FC1908BC1DE400001BA0182126177C24
:10150000E3322D0408430C467331800043005482BB
:10151000318C63CF48424304A9FFFD13DC8EAA52ED
:101520000C4317060C29B536F03A83E8054EB9830B
:1015300050DC74668024D1FE2CA2A068000E0461E9
:101540001C401210840E703C02D1B8E719E6A5E8E1
:10155000552E7C1FC467330008430C4673300008C7
:10156000623398426A8357C6A89D11B8854C121001
:1015700090C461A3FBFC9FCF3DFE9AFEAFA3F7781A
:10158000BF59580002D1F43F938708075269FA887F
:1015900000BCBF7F0808430C4673300008623398D4
:1015A0008C108F57D1DBAAC9BF068FC9B740C3B40F
:1015B0007CFF8B1F8042109B4E12218862154BC00E
:1015C00080631C31A44653D02DBF82A3D082A000DB
:1015D00000E838AF86682F6615FC2DD0AFAA87B11A
:1015E0008CE66008430C467331080034000431195E
:1015F00090210041B3E5551E7FC4E824D5788F22A1
:10160000493670101229FE17766E5C47CF19802D6F
:10161000EEB2DDEF35F3393B97E026E84CD344DCFE
:10162000B35F335803739F4097E657330008430C6A
:10163000467332C00000028CA391033F084631C3B9
:1016400003A83381882210BF92FF1A01000088246A
:1016500021218C267809AA2D035CD06C9D14831857
:10166000863F8398104639863A9078816E3C0535DE
:10167000A061220884216E753E8FA18002EB3D227D
:10168000FC43A93DB004218623399808430C4673D6
:101690003340D0000300E21904810908421001AD73
:1016A000EA0FAAA7D0BC8F80291A4710A6A2D73963
:1016B000408B470988418C630C3199D5219E2A4D76
:1016C000149A0713516B9A081B51AF43CE347CEB2D
:1016D0006BD1B3AD1F47DF3B4008430C467330C4AA
:1016E00031443228C410D3F76541A3F29FC7BFFD30
:1016F000D43EFD37A3F9FEC06D0BA23398EA5B7EA2
:10170000A70841C5800AA9C1CEFC0BA98BF31B46D3
:10171000CF3A00C3119CCC08430C467330C421431C
:101720001180C6386024A825B8F2A7B1F435E9FFC6
:1017300018FE110C431038FF9AA1AF2A6A26A7E8B9
:101740003F1D04A52C31A3F520002180C80802A666
:10175000CA9463BC6B2D18C32009FD13E60C311924
:10176000CCC008430C467330C638606100010C469B
:10177000210A8008609C04D1141EA0CA8748647A9C
:10178000174080B738B03583FC3A160598FC6002E4
:10179000A612108425C7A35428F9738D1FE4D10223
:1017A0001863E5CE2529A281F8B42CF351D057F067
:1017B0009B4EF8B27DD808430C46733084286042B3
:1017C000210840B5AD6982118C70C0CB53342150D3
:1017D000000863430547A3D4384FCDA18AA7D80298
:1017E00010C3028ED5706C9B85F6290ABCA9C9531B
:1017F000E8A421347F905FC7CFF08D7DCA7E3DC8BD
:10180000210C3119CCC008430C46733000086233F8
:1018100098CD53DDC1090842022A8C249A9EA5B4B2
:10182000340FA75AD0EA2F8EBFA9F5FF9E21F9FEEB
:101830004A9300F9F4520021F67F99141538175392
:101840008430C467330008430C467330C000B18154
:101850000302C0066010EA1A22B8A2AA59DB40E2CD
:1018600034158C638623398BE78C24AF8A8CF8EA95
:10187000496340D62BBD0430C467327C0000218808
:10188000CE62A875FEACB508B5FEABE11FF46A9F49
:10189000D7FFC008430C4673300E0002188CE61ABE
:1018A0009ED7D001ABD4FFBE8FABFCABA9FFB26813
:1018B0009AB8006A9EA7D1B55E02A7A9F47D4B62D3
:1018C000F9FF818075186188CE6608430C46733233
:1018D000C00043119CC260841A88E2AE98012102C4
:1018E000024511C302C065151511510218A8863CA6
:1018F000622AE459A1461A2543F1F21F272000333A
:10190000E7F8680D13BA66D3E054F3D54FF10E2A09
:10191000947E3DC221917E10C3119CCC08430C469D
:1019200073300601806B0906320C24210F50180613
:1019300001861192B0CAAA505460000153FC753E52
:1019400085DCC55F3F62C2048427CC634311868F68
:10195000996826033E5CF47786899E6855267DC08B
:101960006899F69030006708430C46733008430CC2
:101970004673308421040000A208EEA71D471C68AE
:1019800024D04C6343118D4CC3108486084330210E
:1019900008461D1F4300160002188CE60084C62668
:1019A00040221B99EE7D81088230EA0FDAA50906F4
:1019B0004210DFC92A7A80C0AA6A216886212A9A41
:1019C0009C83A62AAF8030C467330008430C46735B
:1019D00032C00000631C3119108108AA7A6C410ED4
:1019E00073A3909A0D4F4E0F47A7AA7A7F4017CD49
:1019F0004E0BE7CD7E7A7EA7CDFE117045F44B529B
:101A00009BEA07B32998210C3119CCC0318D0C46C3
:101A10007332C02100008CE623180218EA88CE62D7
:101A200031863294621467315405000B6446730E9C
:101A3000800055164467845426357319CC0CF82958
:101A4000031AC18CE61F8BD1917C0A9EA718084D02
:101A50006633987E0212A98CE62A92C19148631AD5
:101A6000188CE66008430C467332C00000E1004168
:101A70001085800042486036056B50D011052F3D1F
:101A800054FB95478BFC4DEEBE8B8A3908E6B004BB
:101A9000842430426F586548CA93C80059A3D45F64
:101AA0003E80739CFA3E8FF27B9F01BE10C3119C57
:101AB000CC08430C467333000043000864C6CAD503
:101AC0003DEA2030216CA7C80D6318E1819A4418C3
:101AD00042CB65989C75C806ED14B94C10848608F5
:101AE0004A8255A9EA7D1F47F998267CFF3FCFF32C
:101AF000FCC18623399808430C467332C00043006A
:101B0000648800042000842862D81005105445A978
:101B10004C6318D53E8262108409B47A9024A85987
:101B2000F0FF1A210CCF88A5862A6F881FC4626F28
:101B300042A7A9299D1F42018C63181F2ED52AD4C4
:101B4000ECA9C2186233998008430C467332C00076
:101B50000042143023088220821A640318E18A6C40
:101B600095132C20539A2D3FA2E6FA3FE39B0F409A
:101B7000180210C3119F803F805987F7CD0B2018A2
:101B8000C70C46731842220A2191680A9EE7D1F8D1
:101B9000708430C4673300304218623398CC1330FD
:101BA0000158C638623103330698000D40218A99E6
:101BB000019A10C6154FF54CE212202188C7A8BE25
:101BC000097518C68629A25415510848629AA87E3C
:101BD0008A9EA3A6BE7F8A9AF6C84AAAA1A7EABD92
:101BE0000337D50211E6FFD8C2608430C46731984C
:101BF000318D0C46733340C0322191406300210C7B
:101C00003119CC2DD0020002188CC000E85ABF3028
:101C10000D06A1D45B99B341F8350204910F53A18D
:101C20008B000057C48BB8D0778F9F4508430C4674
:101C30007A2615996A5A167FA9FC0D036219141F9A
:101C400001A188CE6608430C46733084286233981D
:101C5000EA7B9C21369FA3FDFF30C212C3011C65A5
:101C6000248420035A0002188C25ACA481862339D1
:101C7000843A08E188CE62D03C693AA7B9F47E1C68
:101C8000215FDFF306188CE66008430C46733000D2
:101C90000030842430424E2CA8C1BB326A60083127
:101CA000D95C88C5859094F004209290A82AE154CC
:101CB000FAAD31A3FF74CFCFFC2E9BF9FF9A6FE2F0
:101CC000184631D5C3184C10800C000210C3118483
:101CD000C134545A5EE14C330ED5B98008430C46EA
:101CE00073300008623398EA026BFD492A1D5F33A6
:101CF000A8F57CC743D5E6AA9354CCB450B5AD6BD8
:101D0000733A989F3E8DF1FF1F3E69AA7C26CFC291
:101D1000137C0BCDF55C7F6F08430C4673300008D5
:101D2000600610850C462109980008557D42430045
:101D3000031EAF51553ABD49A82F57A9357D1FFA4B
:101D4000D5EA4D5F47D5FF8A9B57D1F5661747D433
:101D5000FF0184218623399808430C4673308000A4
:101D60001091408231B268054F51500188748D0442
:101D7000431D4240B2B917C3E8D47F00001F869AC2
:101D8000A9FE3A9EA2143155FCC2D80355FCB4CD2D
:101D90005BF2537A90C6CF8CB4D8005D0BC808496B
:101DA000E82FF127C3D032C0084D194B5410084317
:101DB0000C46733008424302104000430C2540316A
:101DC0008E188C2A32543FA8FFFBF180D100CD1F22
:101DD00047D119B47172868FA3E8598E872968FAA2
:101DE0003F3199E832A68FA3FC19DAC23E10D73EE4
:101DF0006E1008430C467330022080F141E512104A
:101E00008BA92CAA8C43A9EA410D9A3ED621F41F36
:101E10003FC54C544301C00C00F14D446094210C6B
:101E20005529CE1695F52AD4F678424001BB0C55BB
:101E300029541547C0425E31449114FC12CCF15232
:101E400006188CE66008430C4673308428602258DC
:101E500022898EA32846318C25A9C45184003802DA
:101E60003AABE228C15000E10555F0D3150E800AC7
:101E7000ABE0A67403D95A88434D0034C545FC0431
:101E800034D68FFC04218623007D13732EBF60FCA3
:101E9000DB308098C1A84F644C5D4DC23F6003E8C1
:101EA000FFA8AA570808430C4673310848608218F7
:101EB000852E54C510CB53E8A3D1F451E8FA3E8ED9
:101EC00010C31188C7338C631922992A51A8A52BF6
:101ED00092F8E849A100F5EFCE004AB53D45C4FCB3
:101EE0000BD10FA0108420CC1086188CE66008431C
:101EF0000C467332D8318E188CC630302100062142
:101F00000A188CC6005444212188CEA5D1F47D1F27
:101F10004728CB10C85F2800086233F9463862337F
:101F2000D142DD3DB40D43F19FFAA9F4FD17E3372B
:101F3000CE186233998008430C467332C2000020E9
:101F40006C4120B2680D00488645A92C1917B0A92C
:101F5000EA7D1F47F809F844322FC410C3119CC210
:101F60003F80008623398F41104510C8BE000030E5
:101F70000E21917402D816C46730FC20043119CCAC
:101F800066CDF87008430C467332C631C3119CC449
:101F9000108C8420C70C5C049AAA1996A2BE34390E
:101FA00087239A7E0C13C00EC3A0E75A2ED23D0F92
:101FB00061914753F65D1E8731D75A3CC5A4FCF4A6
:101FC000EEC7F3F711C906608430C46733000843D5
:101FD0000C467332C0200010C46734042000EAF0BD
:101FE00008751D5F4D547AB535527F228629AA980F
:101FF000658629BD17DB972A620C64A9E9B0B40194
:10200000AB3E426F5567C74C9AAEF8B306772CFECD
:10201000C210C3119CCC08430C467332C631C303B3
:102020001842210C6210821A7472B5407100408807
:1020300003A804151802708020E423BB42A0ACEA78
:1020400046DE390EC3A202A21822118C77DB3FA80C
:10205000AA50187F0A448302B5800C5A96F1515158
:102060001105484A9F48D04B511B434803557C41BA
:102070008623399808430C46733300CB1E7C00013D
:102080006046110B27AA8A38FEE58A9F52CC347D20
:10209000406330E4AF88802440358C72E7C17D8C8A
:1020A000750715F333A0033E6A8821863A8A9F326A
:1020B000D5345CF751F9335DD31FDBC208430C46BE
:1020C0007330C621046100010C46552B400862A7FD
:1020D00018D6321090C467FCEE039066190D9B88E9
:1020E000FD1FB732087E7F899517CFFCEE43F4BE03
:1020F000CA97E7F8751F9FFB3781F0FDE108EA2FCB
:102100009FE3F1FFC008430C467330000860029162
:102110000006541A98C77AD100D54206651526D113
:10212000B05CDF17E6CF9FE70FB6CA9EF9E0BA9022
:102130000A6B188FF4ED1F00C24212180FA2001F85
:10214000E158CD52501A8FC01D17B8F43420843096
:10215000C461E9591475AD8C0008430C46733018FE
:102160000002188F278A82E5CBB4020C84212E0846
:10217000E668D0A62A96E9A9EA7FE430C48B452810
:1021800000043005C880568FC7FC2421218936A25F
:1021900024CD6D1347D1FE018C70C4673118210C1A
:1021A0003119CCC008430C467330C631AE29926455
:1021B0002084020001149E55D0F613834719084865
:1021C00060603CABA3AB4708000001A0698D144DD3
:1021D00041086188C4C6EA27CF9407F9C7F50067AC
:1021E00004AB518AA0D024AA8BECD03E6F6FF83C90
:1021F000A9F006188CE66008430C467330000862AC
:10220000330306318EA1D7FA818C5A3F075013272A
:10221000DC7A017C7ABE804A8F67EC063168FC1359
:102220002A0264FB8FC02F8F57A80951ECFD80C68E
:102230002D1F4418C9648E188CD6309BE1F5E660DA
:1022400008430C467332C6308842108D19067888D0
:102250002AC2539526A550E2751FF3A0619527F079
:102260004A73E1EE3FA1F9334E8C30839EA9860B71
:10227000DAA7A9C2003400600008C9B285414C58F1
:102280002100592D540421218210671CB810861892
:102290008CE66008430C467332C000004014744959
:1022A000A42188441044356542408F601D43A968CD
:1022B00064D0220FEC9A197E0882AB168789549855
:1022C000C6842F8220A6F441F703F8C82F08812680
:1022D00081105375104210B628A7342F20409A69F8
:1022E000BA94661DB751FA319CCC08430C46733240
:1022F000C63188628864008C600C5153D4E3197431
:10230000718744ADEA40876AD8F4510AB7F819F2E8
:102310005D7B07C7ED040CACFE32109748000D86BC
:10232000A7A85954FC8310BE008618D18631C3116A
:102330009CC21361BA6F1408430C467332C631C392
:10234000119CC59FF17518CC20883108823A969669
:10235000A9EA7D0C5A172119FC22F88601822190E6
:102360003A0F8EA7C6298D1F72EC7D8F9EA10300A8
:10237000007C01284B10C818C4421B22E08CC735D2
:102380005BD936D008430C4673301A0002186477C4
:1023900034541A8AEE9E607DC36A121090C4C12123
:1023A000E823A8C776481A3DD9A0FF011C41D0C830
:1023B0004CF80006C411C4AB7D69724C880090844F
:1023C0008607261B411D4616497E4B3DCF8645009C
:1023D000010C462C8CFE0C6633998008430C467326
:1023E000308631C30B8EE6810433355D53DCFA3F12
:1023F0000FF3FFFF0114320C90C4664254241D6099
:102400009860646491526803DA374A9BFBD007F105
:102410004955F54431C3119CC7531AE708430C468C
:10242000733008430C467331084088429023C254ED
:102430004318E188CEA2FA580000638C7FBCB0211B
:10244000160798AF20CE3480F81EC7C1A3789F2D01
:1024500093504977C8BC1A90E09E383EEBE1A10842
:1024600042770DDA000D8279A92D093B433EE06ADF
:102470009FF98AA5708008430C467332C631C303A6
:10248000184601822060434C82A210040886A3D023
:10249000CA0280AC2D44C0000CD1F42F47F0D07399
:1024A0000D0C033545A3E8F99E86C0000CD1FE2C27
:1024B000E2290E67A1D4BA3E820D1F47FEC17444C3
:1024C00001086188CE6608430C46733084212E28AB
:1024D0000800086230084631C3031840118862942E
:1024E000425294A38A2A1BD02DE56A2068518FCBD3
:1024F00031842210A181545F2E7953D4FF0B000F39
:10250000C4212E8E10F704204368D4B40545F18809
:1025100041002A7F907501806F8830C467330008BE
:10252000430C4673300008623398EA7B9F40FDFEFF
:102530007A844221090C465F20C7FFFC03D97FDA69
:1025400020631EC14BCF151340C0442D0546BCA0CF
:1025500007002A80019CC74042102CD02B0A067924
:10256000A8BCCFA2A718C70C46213682186233999F
:102570008008430C4673310216921818E581908446
:102580001D42300C30C54F53E82218F80D1E79A9B2
:10259000FE31713A3FC0127E3EC7517DD420CCFE41
:1025A00011AEF9A89A1034000042508430C467324A
:1025B00003E0632F8C4328EA2A3B222190EA11D4BE
:1025C000F5298210C3119CC608430C467330842839
:1025D0006042580008623008657BD42128CA52C383
:1025E00017BE8FCBFCFC87143E5DBF3842186233A8
:1025F0006FCC318E188C2FFA87E22049A4DD55204C
:102600002A0F86A7654062473A3E8FF106188CE68E
:102610006008430C467332C40008115022A1042301
:1026200000C03146528CE010CDE488718D189B10AB
:10263000B91D0701D1F47FF252D0737BAF42CD7741
:102640004D1731D4F4104BBB1809A0142000218879
:10265000CC00A2291ADC06AC4218623399800843E8
:102660000C467331C00200008E23098027086908D8
:1026700086CAB8288A80328CD1651F08D031FB2ADF
:10268000A4D47E7FE731EE2CD1D75AAFF751747BBB
:1026900091F9008EA3F73920AF4127B7A97F3F08F2
:1026A000799D46E925437CFB7F218210C3119CCC98
:1026B00008430C46733000008043862319E831D06C
:1026C000C50C46384E80BD6346D2747D18C1FA3FB2
:1026D0000D1B3AA6B47F9F47EA747D1FEC296188E1
:1026E000C69C0819D0F71C037E4003A0ACE4A0846C
:1026F0008426E3A97713DD2119CCC008430C467367
:1027000032C0310850C466300021000631C3119830
:10271000EA40430024793C6821086188CE83CBF6E7
:10272000DF8B4FD28216E4FBA7C39FE623D641FC82
:10273000E5C4A90A52C31198747D782317C4618C2B
:1027400070C46750FF1154AE1008430C467330003C
:1027500006C411E4E3506A23DFE890044410C62164
:10276000F2040011511B41A879BF25A122C641C323
:102770001150BE3D080318E18212A300022A801600
:1027800000AA70134106602105B520C6AF245A3B4C
:102790005B88532427CA10C31190E61D01BEC7E110
:1027A0001E4E397EFE1008430C4673334000000174
:1027B0008C2500908400430C04944475D8D439943B
:1027C00079D1F519800984806318C72CF0219C0504
:1027D000408C84BE2E2ACEC015B1F0A80017F10C93
:1027E0000368A8780190201841B477118AE981FA2A
:1027F0001502373B8B08940D640E189C5B780C8493
:10280000205B288004C46B0A60928D21747DB277AE
:10281000B008430C467331822108421C30318C8D44
:102820000B42100661A024221023A870AA90633DD9
:1028300045F554C0A200BFB2A7D07E7A9800001A16
:10284000306C41CAAA021080A809B010952723A0B5
:102850001E88D619F0B7E91B46323746086188CE84
:1028600061F87318AA55CBF7F08008430C46733013
:1028700086120463180678C24810678D62A204B4F9
:102880001A0042CC4798542A00320D03A2D0FF9F71
:10289000845D46B51E685D4086288708154A5094B9
:1028A000310943E47C0209040002188C7C1F8484F3
:1028B0001104168444036A3DE3908CFD8FE7BD57F5
:1028C000FE132E6E022A4F7FFE08430C467330C65D
:1028D000210800048039800010422A86791CB21B2E
:1028E00082A121084AE43A8049607C01086180D4D1
:1028F0001F07F01080000003A1E438880208831845
:10290000CC3C0C26A06D43FC6B039A342D846125CE
:10291000323D03E2D1AA1CE7E007C24184440B40E8
:102920000012A6D044100C60E6160203E018C44260
:1029300007386E81FC454697C008430C467330004B
:102940000880920CB118D4521DF0102AA33D93A315
:102950001F98F855BC06F23FB582E79EC683987271
:102960001A9F17A3F1212687899FF85681AD68FC2D
:1029700081EE0D055AB607A3CE5D1680626A1782F6
:10298000F91CC09F07951E4E8008430C4673308487
:1029900028604208E5318C2118C70C4A15385A00C6
:1029A0000063212EEA8644A9E609E03A1CA5F0DC82
:1029B000E30B5B14548010484EA2A206D40A8893FD
:1029C000C02A50543F3E834C7C0AB4368F8E99F80F
:1029D000C953817529A18185A1086188CE66084205
:1029E0006882388CE621086318844210220B48D292
:1029F000373850AC0A80231869926803A90813E895
:102A0000B50F91F08347104218603504A9F080009B
:102A10008623810842C63C1A8ED018E7808461184C
:102A20004631C303F9A826F723DF2D310854C689A0
:102A3000B8613F168E11104B19070C7C2DF9A33984
:102A40009808430C467330863108411908208000ED
:102A5000036A318C2118AA12108404D1508D63238B
:102A60004C19E03148C8305B059EBE9B27C8BC7836
:102A70003EC42155B78D8008C4ADBA2FE4D12FA82C
:102A8000F33AD20E3FE74AC380308F008A6681084E
:102A90005B0545E584222089C8814009AE8D83EE1F
:102AA00095C208430C467331042110821C70218C9E
:102AB00063182A2B0434006B0306A00CA21112B079
:102AC00090378D001A27C1B1682DE4099268DD871F
:102AD000A5907E3A08423AC691ACB4268FF0D13622
:102AE0000D0413B6C5A183B4F4B70F8034BFE7F06B
:102AF0002C6D002188C010C461A0EC322D04084365
:102B00000C4673308421082D0480318C4311AA5067
:102B100054C31D4F944F3F386921F442084A5294E0
:102B2000B5091A00021800714EEA5655E4427400C5
:102B300004D5A3EA17DFC1260342D4B4520C6208BD
:102B4000430C463F3846218A20085753EF24193852
:102B50007F5C2008430C4673308428623118C822F9
:102B6000460108C6386231C2423154F50B6A06E8A4
:102B70002B20C8388743213E1094A58C3E027C143C
:102B8000484E100015083F8863E11D4E418A20F829
:102B9000B80A9F442109F2D4F519F47D1421E83EC6
:102BA0000113E0DE46ACA350F83A8C0A33D60DBDD3
:102BB0000008430C46733008100C6118C0096042CD
:102BC0001882165701A82E805B2BA82F8A8DA3A8E8
:102BD000BFCF4740BAA5108C5E85D44E2042D24468
:102BE000408C8124403D045F8885F56B3F003E2288
:102BF0007300EC0944461F1637B000269C47E06678
:102C00005ADD922A8B3BFE462DA26B210246EF42F3
:102C1000EA15966B733008430C467330842884237E
:102C200018C669A27808D63B080050309A88152843
:102C300015FC1084A9C0040291A9FE04000118C665
:102C400031FC1148821A62A0254B79489546824290
:102C50005E35BE8C218B32D12A7FAC210C3118CB52
:102C6000E10A000043000108486230D1F970800891
:102C7000430C467330C44108630884118C72812A66
:102C800029806B18C000007A28422A203514F431BC
:102C9000760200041A23F2F834AC22501ABF017FE6
:102CA0005E813982046040343DE08210AA202B41CD
:102CB000FE36AE474510F20E4084DA3A81FC0595A7
:102CC0000648EF4120C880000000A2118882A801B8
:102CD000CC640218006A6481086188CE6608430CDF
:102CE00046733000000C8410C6310C510843345434
:102CF000248C2A1B2021C4000A8743A88551042163
:102D0000F9EA2A6338A9C2100021F66B9B67E00834
:102D1000044112D0043118D45B4908150010C011C9
:102D2000E82C144D40102100468210AB30D03F8576
:102D300001485773C454160E419C7C01318D98FD97
:102D40000A00010C7C310C8B410008430C467333A4
:102D500040D0000300E21904810908421001ADEAE5
:102D60000FAAA7D0BC8F80291A4710B2A2D739402A
:102D70008B470988418C630C3199D5219E2A4D14CB
:102D80009A0713516B9A081B52692BCE747CEB6B1C
:102D9000D1F4AD1F46DF3B4008430C467330C431CD
:102DA000443228C410D3F76541A3F29FC7BFFDD4B6
:102DB0003EFD37A3F9FEC06D0BA23398EA5B7EA7F8
:102DC0000841C5800DA9C1CEFC0BA98BF31B46CFD2
:102DD0003A00C3119CCC08430C467330C421431104
:102DE00080C6386022A825B8F2A7B1F435E9FF18EB
:102DF000FE110C431038FF9AA1AF2A6A2423000663
:102E00000D13F1D04A52C31A3F520002180C8080B1
:102E10002A6CA96B10567A31824013FA268FACC700
:102E200093A008430C467330C2388645A02A605CE4
:102E3000C6D1015056A0F8A93ACEF0F83236DAF5EC
:102E400025235AB7429DB83F83B7D93E400E45A9C6
:102E5000C3505EDA152759DE010AE97B934888647E
:102E60005A0C08430C467330C638623398EA7B9F8D
:102E700047E1FE7FFFE7FFFE7FFFE7FFFE7FFC21CC
:102E80006B5B0C35A00000018AA7A9402AA0212174
:102E9000090C466427C66ABEA3584218623399805B
:102EA00008430C467330C638606160000862300821
:102EB00054002000270134450AA832A1D2191E85EA
:102EC000CC202CCE2C0D60FF0E8531663F1E71305C
:102ED0009084212A1D1EA257C08F8738D1FE4D1025
:102EE00021863E5DA2529A28157C3A1679A8E82BD5
:102EF000F84DA77C593EEC08430C467330C6386247
:102F00003318853C540218A21902FC0869FAB7FA72
:102F10008AA5000CBA18C42143118943F2719E0896
:102F20002A7A7AA7A7F47A7FE7FBC7F3FEA21042BA
:102F30001F20215E9FCE1ADAC0A57008430C46738D
:102F40003084286042210840B18C6182118C70C0AD
:102F5000CB53302150000863430547A3D4384FCDED
:102F6000A18AA7D80210C3028ED5706C9B85F62962
:102F70000ABCA9C953E8A421347F905FC7CFF08D64
:102F80007DCA7E3DC8210C3119CCC008430C4626B1
:102F900097C6000218032440102186367CAB4009F6
:102FA0000631C31199329259386E63A10C2000008A
:102FB00006463DCE860D5248D1F5021330D1FE1A99
:102FC000C23AD1BDDFE34420C6386233EE7365EE0A
:102FD000BA08000862339872DC97A308430C467362
:102FE000308222106318C6121080008610AE822034
:102FF0004240DA00086A00041104B0308000048303
:103000005213A101EA1C0344D6422DA09F01FF21C7
:103010007F22B6B0AD092118C64080DF4C81F8137D
:10302000F9CA47ACC53500C5509004D0C7E4043A8E
:10303000008241773FC7E0015E1E05C3A110242036
:10304000C9A010601807A07751E4E808430C467344
:10305000310848608120882884820840003220900E
:103060002399C001088428604118C70C4606A9A905
:10307000E18C21294B0C6657207A7A8082254F906B
:103080007558D043C48BB8E0FB817C6BF02B2104D6
:103090004326F3C968442049F0CF3E47C340FC446F
:1030A000C4BD1FE05C87CB1E4E8008430C467330C6
:1030B0008428623314E410800318E188CAA7ABC2E5
:1030C0005294BA1043AE0B995FCB59906418CDF36C
:1030D000E56219081097C4FF3A1F802409022C04E6
:1030E00030C46350563508000863E0A9368A9EE96B
:1030F000D43F8CEEA5D8024212188C4210C3119C0A
:10310000CC08430C467332C0200C638623000002B7
:103110001675506F2208C84210810DE3504B1507F9
:1031200015501044154BF2643E8687F37804887E70
:103130007D0AA1F86A7DE7F8D1F61FA4C317B7F19D
:103140005531DEF0318AA29C724A62A2002631100B
:10315000848609C17552B8403508430C4673310660
:1031600031C3023086196424084130042310AA7048
:1031700082DAA93CAA849BCF724FCAA3213800935C
:10318000C918C530F05584C5A1884216B350936064
:10319000D084418331E807520844583F0A9F44ECE9
:1031A000347D0AA2188648C346154E31FC3FC467D9
:1031B0003300080670E8F86070D8080670B8F83078
:1031C00070D8080670F8702070D8080670A87020B3
:1031D00070D8080670F8F87020D8080620582470B7
:1031E00020580806106890381068080670A8F87013
:1031F00020D80806002050B87020080620702070E3
:10320000A8240806784848584848080600FC84481E
:1032100030FC080600205088502008069024885072
:1032200004480806007078F8F8700806FC84FCFC76
:1032300030FC080600000000000003053F213F129B
:1032400008120A100A0E1C0E0C1E0C141A14161F5B
:10325000161E131E1E1B1E1E1F1E3F213F3A2F3A15
:10326000173D173F213F181F02040A041F0E0404D4
:103270000E1F0A1F0A0E0E1F04110E2E252E2F2AB6
:103280002E262929021F02081F08150E04040E15F8
:103290000E15151B151B040604040C040000000089
:1032A00017000300031F0A1F16371A1904130A1503
:1032B0003A000300000E11110E000A040A040E0465
:1032C0000030000404040010001804031F111F1232
:1032D0001F101D151711151F07041F17151D1F158A
:1032E0001D01011F1F151F17151F000A00003200C6
:1032F000040A110A0A0A110A040115020E11171E06
:10330000051E1F150A0E110A1F110E1F15111F058C
:10331000010E111D1F041F111F1108100F1F041B88
:103320001F10101F061F1E040F0E110E1F09060E80
:10333000112E1F051A121509011F011F101F0F184A
:103340000F1F0C1F1B041B031C03191513001F1157
:10335000030418111F000201022020200001020CAA
:10336000121E1F120C0C12120C121F0C1A14041E27
:1033700005242A1E1F021C141D1020201D1F0814C6
:10338000111F101E041E1E021C0C120C3E0A040CFF
:10339000123E1E040214160A020F120E101E0E1008
:1033A0000E1E081E120C1226281E322A26041E216A
:1033B000001F00211E040102013F213F0A4E6F2021
:1033C00053442063617264206F720A6E6F204C4F09
:1033D000414445522E4845580A0A153A45786974C1
:1033E000001D20466C617368696E670A20206C6F4F
:1033F000616465722E2E2E0A0A444F4E27542054C3
:1034000055524E204F464621000A0A153A49676E2A
:103410006F7265006D560A0A504C45415345205461
:1034200055524E204F464620004C4F5720424154A3
:1034300054455259212000175344001613780016A2
:103440001314001510200015201000540A03E18108
:10345000867F3E186D830F0F0E0183866033186DD3
:10346000C3198F1803C38E6033186DE330CF180370
:10347000C39E603630CDE360CF3006C79E7E3E30BF
:10348000CDB360CF300CC6F6603330D9B660CF33E1
:10349000CFCCF66061B0DB1E60CF30D86CE6C06187
:1034A000B0DB1E618F19986CC6C063B19B0E330FE1
:1034B0000FB078C6FF7E1F1B061E0F05008930085F
:1034C000023802497868140000F6E8DBCFC3B8AED2
:1034D000A49B928A827B746E68625C57524E494507
:1034E000413E3A3734312E2C29272523211F1D1C1C
:1034F0001A1917161514131211100F0E0D0C0B0AB2
:103500000908070645006801000005006801380148
:103510000000050038016801000022351E35010158
:10352000FF030101F703000000080002010000038F
:103530000407000000000000000001020408102041
:103540004080010204081020010204081020040435
:10355000040404040404020202020202030303033B
:1035600003030000000023002600290000000000E3
:10357000250028002B0000000000240027002A005E
:10358000932311241FBECFEFD8E0DEBFCDBF12E0E2
:10359000A0E0B1E0E6E6F3E702C005900D92AE369A
:1035A000B107D9F726E0AEE6B2E001C01D92A5331F
:1035B000B207E1F715E3C2E8D5E304C02297FE01A4
:1035C0000E947D39C038D107C9F70E942D360C946E
:1035D000B1390C9400000C949B390C94A3391092CF
:1035E0007B028AEF80930B01109277021092760291
:1035F0001092790210927802109273021092750262
:1036000008951F93CF93DF93162F2091710230916D
:103610007202E82FF0E0EE0FFF1FE45FFE4FC901DA
:1036200037FD079643E0959587954A95E1F7019018
:10363000F081E02DE80FF91FC4913196E491D0E0BC
:10364000DC2FCC27CE0FD11DE12FF0E0C90168E0BF
:1036500070E00E94263940E150E0481B590B4E1B98
:103660005F0B02C0D595C7954A95E2F72E0F3F1F15
:10367000309372022093710281E090E002C0880FC3
:10368000991F1A95E2F701978C23DF91CF911F9133
:103690000895482F80916F029091700264E170E06C
:1036A0000E94263977279C0133274930E9F188F4B5
:1036B0004730D1F1483009F043C08EE0829FF001DD
:1036C000839FF00D1124E60FF71FEA57FD4F88E4A2
:1036D00029C04C3081F04D30D1F04A3089F58EE070
:1036E000829FF001839FF00D1124E60FF71FEA5728
:1036F000FD4F8AE417C08EE0829FF001839FF00D9A
:103700001124E60FF71FEA57FD4F8AE80BC08EE041
:10371000829FF001839FF00D1124E60FF71FEA57F7
:10372000FD4F88EC808308958EE0829FF001839F97
:10373000F00D1124E60FF71FEA57FD4F408308955F
:103740008EE0829FF001839FF00D1124E60FF71F9A
:10375000EA57FD4F40834B3041F43093850220936C
:10376000840270938302609382020895CF92DF9265
:10377000EF92FF920F931F93CF93DF93F82E109247
:103780007C021092720210927102109270021092DA
:103790006F0268E00E94011B80937D02C4E1D0E0CB
:1037A000EEE0EE2E20916F02309170022831314010
:1037B0000CF04DC061E08F2D0E94011B8823B1F1F8
:1037C00066E08F2D0E94011B082F63E08F2D0E9461
:1037D000011B73E0C72EC80ED12C10E0DC1410F7CB
:1037E00020916F0230917002283181E03807E4F4B3
:1037F000C901801B910BBE010E942639E89EF00191
:10380000E99EF00D1124E60FF71FEA57FD4F808166
:103810000E94491B20916F02309170022F5F3F4F31
:103820003093700220936F02D394D8CF64E08F2D31
:103830000E94011B0E94491B20916F02309170026F
:103840002F5F3F4F3093700220936F02ABCFDF9119
:10385000CF911F910F91FF90EF90DF90CF9008953F
:1038600090917B02933920F580917402811106C0FA
:10387000809176028F5F8093760205C080917802F6
:103880008F5F809378022091770280917602821771
:1038900008F4822F80937702209179028091780238
:1038A000821708F4822F809379029F5F90937B02A6
:1038B00080917B020C94B61B0F931F93CF93DF93E1
:1038C00080E090E00E94EB1A813D09F04AC081E05F
:1038D00090E00E94EB1A863609F043C082E090E047
:1038E0000E94EB1A8933E9F583E090E00E94EB1A1D
:1038F000C1E0811101C0C0E0C093740284E090E097
:103900000E94EB1AD82F8093760285E090E00E9407
:10391000EB1A082F8093770286E090E00E94EB1A62
:1039200080930B0188E090E00E94EB1A182F80939F
:10393000780289E090E00E94EB1A902F0D1708F4AE
:103940009D2F90937702811708F4812F809379023D
:10395000C111D12FD0937B02C11101C0892F809357
:103960007A02DF91CF911F910F91089563E970E082
:103970008EE993E00E9444300E945C1C80917B029F
:103980000C94B61B8EE993E00E94C1300E94B61CD5
:103990001092B603089561ED80E090E00E94ED1A68
:1039A00066E681E090E00E94ED1A69E382E090E033
:1039B0000E94ED1A6091740283E090E00E94ED1A7B
:1039C0006091760284E090E00E94ED1A60917702A7
:1039D00085E090E00E94ED1A60910B0186E090E096
:1039E0000E94ED1A6091780288E090E00E94ED1A42
:1039F0006091790289E090E00C94ED1A9EEF980FA7
:103A0000913168F49EEF960F9B3048F49EE0899FB9
:103A1000F0011124E60FF11DEA57FD4F4083089590
:103A2000409184025091850220918202309183025C
:103A30009EE0949FF001959FF00D1124E20FF31F7B
:103A4000EA57FD4F1082480F511D87FD5A9550933C
:103A5000850240938402260F311D67FD3A9530930D
:103A6000830220938202949FF001959FF00D112410
:103A7000E20FF31FEA57FD4F8BE080830895662322
:103A800021F083EC93E00C94F03348E062E088EAA4
:103A900093E00E94CF248823B1F08091840290911A
:103AA0008502029620918202309183024EE0489F67
:103AB000F001499FF00D1124E20FF31FEA57FD4F6B
:103AC00080818823F9F048E060E088EA93E00E9472
:103AD000CF24882361F1809184029091850202971E
:103AE00020918202309183024EE0489FF001499F6D
:103AF000F00D1124E20FF31FEA57FD4F8081882358
:103B000061F0089582E0808360E081E00E94101DF2
:103B100083EC93E00E94DA33D6CF82E0808360E0CA
:103B20008FEF0E94101D83EC93E00C94DA3308951C
:103B300080918202E09184029EE0E99FF0011124CD
:103B4000E80FF11DEA57FD4F8CE0808381E0809300
:103B5000750280910B01815080930B01811103C08C
:103B600082E0809373020895BF92CF92DF92EF922A
:103B7000FF920F931F93CF93DF93E82EF62E082F1B
:103B800010E0C8010197C62FD0E0DE0111974EE08A
:103B9000489FB001499F700D1124CB018A0F9B1FD4
:103BA0008A579D4FFC0180818B3009F447C0CB01BF
:103BB0008C0F9D1F8A579D4FFC0180818B30F1F146
:103BC0009E012F5F3F4FFB01E20FF31FEA57FD4FAE
:103BD00080818B3099F1409FB001419F700D11247D
:103BE000CB018A0F9B1F8A579D4FFC0180818B3030
:103BF00029F1FB01E20FF31FEA57FD4F80818B3063
:103C0000E9F0C8010196489FF001499FF00D112489
:103C1000AE0FBF1FAA57BD4F8C918B3079F0DF01DB
:103C2000AC0FBD1FAA57BD4F8C918B3039F0E20FFE
:103C3000F31FEA57FD4F80818B3011F40E94981DCD
:103C4000BB24BA94BE0C40E0DD24D394DF0C6D2D70
:103C50008B2D0E94FE1C40E06D2D8E2D0E94FE1CBF
:103C6000CC24C394CE0C40E06D2D8C2D0E94FE1C04
:103C700080917402DD24DA94DF0C811122C08EE081
:103C8000809FF001819FF00D1124EC0FFD1FEA577A
:103C9000FD4F84E0808344E06D2D8B2D0E94FE1C3F
:103CA00044E06F2D8B2D0E94FE1C44E06D2D8E2D67
:103CB0000E94FE1C44E06D2D8C2D0E94FE1C44E0F1
:103CC00020C08EE0809FF001819FF00D1124EC0F49
:103CD000FD1FEA57FD4F108240E06D2D8B2D0E9495
:103CE000FE1C40E06F2D8B2D0E94FE1C40E06D2DD0
:103CF0008E2D0E94FE1C40E06D2D8C2D0E94FE1C1E
:103D000040E06F2D8C2DDF91CF911F910F91FF908F
:103D1000EF90DF90CF90BF900C94FE1CEF92FF923B
:103D20000F931F93CF93DF934830B9F040F447309F
:103D300009F04EC0062F10E00F5F1F4F12C0493030
:103D400039F04A3009F044C0C82FD0E021961FC096
:103D5000062F10E00150110904C0C82FD0E02197B0
:103D600016C0E82EF12CF8019EE0899FE00DF11DB0
:103D70001124EA57FD4F80818B3011F40E94981D69
:103D80008EE08E9DF0018F9DF00D112417C0062F3F
:103D900010E08EE08C9FF0018D9FF00D1124E00F5C
:103DA000F11FEA57FD4F80818B3011F40E94981D5E
:103DB0008EE08C9FF0018D9FF00D1124E00FF11F1C
:103DC000EA57FD4F81E09081992319F080E001C00E
:103DD00081E0DF91CF911F910F91FF90EF900895B7
:103DE0000F931F93CF93DF93182F062F8EE0189F0A
:103DF000F0011124E60FF11DEA57FD4FC081DC2FC1
:103E0000D07CCF70D03469F018F4DD2331F028C0B5
:103E1000D03879F0D03CC9F023C0C730F1F4C9E004
:103E20001FC0CA30E1F4C8E01BC0CF5FCB3008F040
:103E3000C7E04C2F602F812F0E948E1E8823A9F38C
:103E40000FC0C150C73008F4CAE04C2F602F812F3B
:103E50000E948E1E8823A9F303C0C7E001C0CAE0F8
:103E60008C2F8D0FDF91CF911F910F910895CF92DD
:103E7000DF92EF92FF920F931F93CF93DF93F82E71
:103E8000E62ED42E60910F047091100480911104DD
:103E9000909112042AE030E040E050E00E943A396C
:103EA000672B682B692B09F0BEC00F2D10E0C801ED
:103EB0000197CE2DD0E04EE0489FF001499FF00DD4
:103EC0001124EC0FFD1FEA57FD4F5081552301F1DE
:103ED00098012F5F3F4F429FF001439FF00D112447
:103EE000EC0FFD1FEA57FD4F2081222389F0409FF0
:103EF000F001419FF00D1124EA57FD4FEC0FFD1F1B
:103F0000DF0111972C91222319F0218121118BC0FF
:103F100027E0D2120CC08EE0809F6001819FD00C00
:103F20001124DE01AC0DBD1DA957BD4F0EC029E007
:103F3000D21219C08EE0809F6001819FD00C1124A5
:103F4000DE01AC0DBD1DAB57BD4F8C918F7049F09C
:103F50008B3009F450C06E2D8F2D0E94F01EF6019B
:103F60005DC0F6013FC028E0D21221C0252F2F707E
:103F700071F02B3009F43FC06E2D8F2D0E94F01E82
:103F80009EE0909FF001919FF00D112447C02EE01C
:103F9000289FD001299FB00D1124AC0FBD1FAA5737
:103FA000BD4F209FF001219FF00D11241BC08AE01E
:103FB000D81239C0C8010196FEE0DF2ED89ED0018C
:103FC000D99EB00D1124AC0FBD1FAA57BD4F8C91C7
:103FD0008F7019F08B3079F018C0D09EF001D19E0F
:103FE000F00D1124EC0FFD1FEA57FD4F8081806218
:103FF0008C93108218C0DF91CF911F910F91FF9089
:10400000EF90DF90CF900C94981D6E2D8F2D0E9415
:10401000F01ED09EF001D19EF00D1124EC0FFD1F7B
:10402000EA57FD4F8083DF91CF911F910F91FF9051
:10403000EF90DF90CF900895FF920F931F93CF934F
:10404000DF93F42EC62FD0E0082F10E02EE0829FE1
:10405000F0011124DF01AC0FBD1FAA57BD4F9C9189
:1040600094FF18C0EA57FD4FEC0FFD1F91819F7020
:10407000993069F028F4973051F0983041F00AC037
:104080009A3029F09B3031F40E94981D03C06F5F75
:104090000E94B41D2EE0209FC001219F900D11248D
:1040A000DC01AC0FBD1FAA57BD4F2C912F7E2C9366
:1040B0009E012F5F3F4FFC01E20FF31FEA57FD4FB8
:1040C0004081411105C0F0821C92808180614DC009
:1040D000423011F04430D1F5C80101964EE0489FBE
:1040E000F001499FF00D1124DF01A20FB31FAA5761
:1040F000BD4F8C91811107C0EC0FFD1FEA57FD4F9A
:1041000080818823B9F0C80101974EE0489FF001F3
:10411000499FF00D1124DF01A20FB31FAA57BD4F15
:104120008C91811123C0EC0FFD1FEA57FD4F808158
:1041300081111CC0FC92409FF001419FF00D1124A1
:10414000EC0FFD1FEA57FD4F108210C022E0F21263
:104150000DC0453059F4FC01EC0FFD1FE857FD4F31
:104160008081811103C01C9284E18083DF91CF9113
:104170001F910F91FF900895EF92FF920F931F935D
:10418000CF93DF9360910F0470911004809111041C
:104190009091120425E030E040E050E00E943A396E
:1041A000672B682B692B09F04AC002E912E0ACE0EA
:1041B000FA2EC0E0D0E0EE24E394F801EC0FFD1FEE
:1041C00096859F729730A1F030F4923059F0943078
:1041D000C1F444E008C0993069F070F09A3089F475
:1041E0004AE00BC042E06F2D8E2D0E941C2009C0BA
:1041F00047E003C049E001C048E06F2D8E2D0E94CA
:10420000371FE3942E96CC3FD105B9F6FA940150AE
:104210001109F110CECF22E932E080E090E0F901FF
:10422000E80FF91F46854F7D46870E968C3F910516
:10423000B1F72150310982E02638380771F7DF9154
:10424000CF911F910F91FF90EF9008950F931F93BF
:1042500027E0260F382F330F230F20930A0125E084
:1042600020936E022091840230918502280F311D27
:1042700087FD3A954EE0429FF001439FF00D1124D7
:104280002091820230918302E20FF31FE60FF11DAD
:1042900067FDFA95EA57FD4F40814F7E042F10E0ED
:1042A0000730110580F5F801EC5CFF4F0C947B3969
:1042B0001F910F910C943F1D1F910F910C94101D95
:1042C0000E94101D80917C028F5F80937C0283ECA2
:1042D00093E01F910F910C94C43330917D02209193
:1042E0007C02231750F00E94101D83EC93E00E9483
:1042F000C4331F910F910C94301C83EC93E01F91F9
:104300000F910C94F0331F910F910C94981D44E081
:1043100064E088EA93E00E94DD24882329F08091FC
:104320007502882309F482C044E065E088EA93E0DE
:104330000E94DD24882321F08091750281117DC0C7
:1043400080917502811130C044E062E088EA93E018
:104350000E94DD24882321F060E081E00E94262174
:1043600044E060E088EA93E00E94DD24882321F0A5
:1043700060E08FEF0E94262144E063E088EA93E04A
:104380000E94DD24882321F061E080E00E94262144
:1043900044E061E088EA93E00E94DD24882321F074
:1043A0006FEF80E00E94262180918202909183022B
:1043B000E6E0E89F9001E99F300D11242551310975
:1043C0004091800250918102CA01880F991F840F89
:1043D000951F6091840270918502E69FA001E79F7E
:1043E000500D112447525109840F951F97FD0396D4
:1043F00095958795959587959093810280938002F6
:1044000040917E0250917F02CA01880F991F840F4C
:10441000951F820F931F97FD039695958795959508
:10442000879590937F0280937E02089583EC93E0BA
:104430000E94C4330E94981D77CF83EC93E00E94C2
:10444000DA3380917B020E94B61B1092750278CFFE
:104450008F929F92AF92BF92CF92DF92EF920F9383
:10446000CF93DF93B6E8AB2EB2E0BB2EC12CD12C9C
:10447000812C912CC0E0D0E080918002909181024B
:10448000BE01681B790B80917E0290917F02F5013D
:10449000E80DF91DE081EF70E43029F420910F045C
:1044A00020FD9AC005C0EB3019F4E0910A01E55FE8
:1044B0009B012A5F3F4F2B35310598F4A601481B1D
:1044C000590B4133510568F4F0E0EE0FFF1FEE5C2D
:1044D000FD4F20813181E12C00E08CEE93E00E94C1
:1044E000F12826968EE0880E911CC837D10521F65A
:1044F00086E0C80ED11C8FEFA81AB80A84E5C8164A
:10450000D10409F0B5CF80916E02811103C097E00C
:1045100090930A01815080936E02609174028CEE38
:1045200093E00E94C92506E024E540E060E08CEEBF
:1045300093E00E9417266091740281E068278CEE58
:1045400093E00E94C9251092F5031092F60360E9EA
:1045500070E08CEE93E00E947A364AE050E0609181
:104560007C028CEE93E00E9484376EE870E08CEE63
:1045700093E00E947A364AE050E060917D028CEE32
:1045800093E00E9484376AE870E08CEE93E00E942A
:104590007A364AE050E060910B018CEE93E00E9485
:1045A000843766E870E08CEE93E00E947A36609182
:1045B0007B0270E06F5F7F4F4AE050E08CEE93E04B
:1045C000DF91CF910F91EF90DF90CF90BF90AF90A0
:1045D0009F908F900C946F37EDE06ACF8EE993E057
:1045E0000E94B52C882309F49DC08091730281300C
:1045F00031F008F47EC0823009F48BC0089547E0A2
:1046000061EA70E08EE993E00E946F2D992787FDA3
:104610009095A92FB92FFC013196E830F10508F0EB
:1046200081C0E55CFF4F0C947B396AE970E08EE94C
:1046300093E00C94443080910B01882309F472C0FC
:10464000815080930B010E94CB1C10927302109238
:10465000750208950E945C1C1092730210927502FC
:104660005DC00E94EF1A5AC0109273021092750238
:1046700090917B0280917402811103C08091770236
:1046800002C080917902981708F04CC00C94301C3D
:1046900090917B02992391F080917402811106C060
:1046A0008091760281508093760205C080917802D5
:1046B000815080937802915090937B021092750202
:1046C000109273022BC08091740291E0892780932D
:1046D0007402811103C08091760202C08091780239
:1046E00080937B02109275020E94B61B1092730297
:1046F000089566E088EA93E00E94C624882319F0B2
:1047000081E0809373020E9487210E94BC200C9458
:1047100028220E94EF1A81E08093730280917B022D
:104720000C94B61B08951092EF031092EE0382E6EC
:1047300092E09093ED038093EC030895CF93CFB76D
:10474000F89480912504811127C0E8E5F5E3849170
:10475000E4E4F5E39491E82FF0E0EE0FFF1FEA5850
:10476000FA4CA591B4918C91892321F461E08AE0FF
:104770000E94CD3561E08AE00E9494358CB580615D
:104780008CBD8CB580648CBD61E08DE00E94943559
:1047900061E08BE00E949435809125048F5F8093C7
:1047A0002504CFBFCF91089521E0FC012083089517
:1047B00070E085E00C940C35AF92BF92CF92DF92FF
:1047C000EF92FF920F931F93CF93DF93EC018981B8
:1047D0009A812FE0289F8001299F100D112485E1E7
:1047E0000E94EF34800F911F24E0969587952A95BB
:1047F000E1F79A8389832881222391F1AC81AD80EE
:10480000B12CC12CD12CE885F9857F0100E010E0A6
:104810006E817F819B0140E050E08617970728F06A
:10482000BC01E817F90708F4BF0180E090E01F928F
:104830001F921F92AF930E9491376B830F900F903E
:104840000F900F9070E085E0DF91CF911F910F9155
:10485000FF90EF90DF90CF90BF90AF900C940C350D
:10486000DF91CF911F910F91FF90EF90DF90CF904C
:10487000BF90AF900895FC018CE39FE09383828307
:1048800084E0818381E084870895CF93DF93EC01F6
:104890008C819D81892B81F18C858F7151F584E10B
:1048A0000E94EF34BC01882777FD8095982F0E94E5
:1048B000073826EE3FE34EEC50E40E9493380E9406
:1048C000D9379B017B836A836115710581F084E090
:1048D0008983FE0140E0848195812817390710F40F
:1048E00049830AC04F5F32964430A9F702C08FEF68
:1048F00089838C858F5F8C87DF91CF910895FC0130
:1049000088E0808389E0818387E0828386E08383F7
:1049100084E0848382E0858381E186830895DF9249
:10492000EF92FF920F931F93CF93DF937C01EC01E3
:1049300000E010E0DD24DA9462E088810E94943582
:1049400088810E940336F701E00FF11F892B21F4C3
:1049500087818F5F878308C08781882349F08F3FD5
:1049600011F4178201C0D78260E088810E949435DB
:104970000F5F1F4F219607301105F1F6DF91CF91A0
:104980001F910F91FF90EF90DF900895FC01E60FCB
:10499000F11D81E09781913009F080E00895860F44
:1049A000911DFC01278130E050E04F5F5F4F81E0B7
:1049B0002417350709F080E00895262F30E0FC0128
:1049C000E20FF31F8781423028F481508E3F48F078
:1049D00080E008958F3FE1F3642F0E940639913003
:1049E000B9F781E008958EBD00000DB407FEFDCF3C
:1049F0008EB50895DC01643508F053C0403308F0EB
:104A000050C090968C919097342F3595359535956B
:104A1000E62FFF27E7FDF095242F2770823099F4C9
:104A2000DF01AA5DBB4F84E53802A00DB11D112442
:104A30008C9190E0022E02C0959587950A94E2F73A
:104A40008095817009C0833039F446271C968C917B
:104A5000482740FF03C014C0811112C084E538020A
:104A6000E00DF11D1124EA5DFB4F81E090E0022E84
:104A700001C0880F0A94EAF780959081982310C0AE
:104A800084E53802E00DF11D1124EA5DFB4F81E061
:104A900090E0022E01C0880F0A94EAF79081982BCB
:104AA000908308951F93CF93DF93EC01162FF89412
:104AB00060E08F850E94CD35888918161CF460E06F
:104AC0000E94CD35812F0E94F324888918161CF48A
:104AD00061E00E94CD357894DF91CF911F910895C8
:104AE00028EF31E0E6E2F4E0DF01A9011D92415038
:104AF0005040E1F7DC0119961C9219971A961C9206
:104B00000895DF92EF92FF920F931F93CF93DF935D
:104B1000EC018C858F5F8C8786E2E82E84E0F82E8E
:104B2000D12C6D2D6064CE010E94522560E8CE012B
:104B30000E94522561E08F850E94CD358889181624
:104B40001CF460E00E94CD3500E010E0F701E00FBA
:104B5000F11F80810E94F3240F5F1F4F0435110560
:104B6000A9F7888918161CF461E00E94CD35D3940A
:104B700084E5E80EF11C86E0D812D3CF60E4CE01C4
:104B8000DF91CF911F910F91FF90EF90DF900C94E8
:104B90005225FC0160A361A30895FC0160A341A319
:104BA0000895CF92DF92FF920F931F93CF93DF93DD
:104BB0001F92CDB7DEB76C01062FF42E10E012174E
:104BC00054F4412F4F0D602FC60129830E94FA240F
:104BD0001F5F2981F4CF0F90DF91CF911F910F912B
:104BE000FF90DF90CF900895CF92DF92FF920F93C6
:104BF0001F93CF93DF931F92CDB7DEB76C01062FC3
:104C0000F42E10E0121754F4612F600F4F2DC601DF
:104C100029830E94FA241F5F2981F4CF0F90DF912E
:104C2000CF911F910F91FF90DF90CF900895DF9269
:104C3000EF92FF920F931F93CF93DF93EC01E62E39
:104C4000D22EF42E112707FD1095040F111D47FDDC
:104C50001A958F2D992787FD90958017910744F419
:104C60002D2D4F2D6E2DCE010E94F425F394F1CF02
:104C7000DF91CF911F910F91FF90EF90DF900895FA
:104C80008F929F92AF92BF92CF92DF92EF92FF925C
:104C90000F931F93CF93DF93EC01E62ED42E122FA8
:104CA000CC24C394C21AB22EB194BB0CF12C802F29
:104CB0008470A82E802F8270982E802F8870882E66
:104CC0000170F1160CF04DC0C7FC04C01150B39434
:104CD000B394CB0CF3948F2D880F8F5FC80EAA204E
:104CE00071F0412F4D0D6F2D6E0DCE010E94FA24F3
:104CF0004F2D4D0D612F6E0DCE010E94FA2499208B
:104D000071F04D2D411B6F2D6E0DCE010E94FA24C6
:104D10004D2D4F19612F6E0DCE010E94FA2488206F
:104D200071F04F2D4D0D6E2D611BCE010E94FA24A6
:104D3000412F4D0D6E2D6F19CE010E94FA240023D4
:104D400009F4BFCF4D2D4F196E2D611BCE010E946E
:104D5000FA244D2D411B6E2D6F19CE010E94FA24AD
:104D6000B0CFDF91CF911F910F91FF90EF90DF9027
:104D7000CF90BF90AF909F908F9008958F929F9209
:104D8000AF92BF92CF92DF92EF92FF920F931F9359
:104D9000CF93DF93EC01B62EA42E122FDD24D394F3
:104DA000D21AC22EC194CC0CFF24F394802F8170B0
:104DB000882E992493949E0C02708FEF8F0D81178B
:104DC000C4F5D7FC04C01150C394C394DC0C8F2DE0
:104DD000880F8F5FD80E882099F0212F220F290D80
:104DE0004A2D411B6F2D6B0DCE010E94D12523E072
:104DF0002E0D4A2D4F19612F6B0DCE010E94D1252A
:104E0000002399F0212F220F290D4A2D411B6B2DD4
:104E10006F19CE010E94D12523E02E0D4A2D4F1986
:104E20006B2D611BCE010E94D125F394E394E39492
:104E3000C4CFDF91CF911F910F91FF90EF90DF9042
:104E4000CF90BF90AF909F908F9008959F92AF9218
:104E5000BF92CF92DF92EF92FF920F931F93CF9367
:104E6000DF93EC01B62EF42EA22EDE2CD194DD0CB5
:104E70009D2C920E1E2D160F292D612F0E94F425B8
:104E8000CC24CA94C00ECF0C292D4C2D612FCE01FD
:104E90000E94F425D00EFE0C2D2D4F2D6B2DCE0132
:104EA0000E94D125BA0C6FEF6B0D2D2D4F2DCE0129
:104EB0000E94D12501E02E2D4F2D612FCE010E94A1
:104EC0004026DE2CD094DB0C02E02E2D4F2D6D2DD4
:104ED000CE010E944026CE1804E02E2D4C2D6D2DC3
:104EE000CE010E94402608E02E2D4C2D612FCE01D0
:104EF0000E944026DF91CF911F910F91FF90EF907C
:104F0000DF90CF90BF90AF909F900895AF92BF92E7
:104F1000CF92DF92EF92FF920F931F93CF93DF9385
:104F2000EC01A62EC42EB22EF02E1E2DE194EE0C16
:104F3000D12ED60E2E2D2B0D6D2D0E941726FA94F4
:104F4000FE0CC10E6FEF6A0D6B0D611BEF2C01E0C3
:104F5000212F4C2DCE010E94BE2602E0212F4C2D88
:104F60006D2DCE010E94BE26DF91CF911F910F9132
:104F7000FF90EF90DF90CF90BF90AF9008956F9229
:104F80007F928F929F92AF92BF92CF92DF92EF92D9
:104F9000FF920F931F93CF93DF93F901A490319663
:104FA0005491FC01F0A064350CF00CC1BB24A7FCAB
:104FB000B094A62FBB27A7FDB095FD01EA0DFB1D00
:104FC0001E161F060CF0FEC040330CF0FBC0C52EB1
:104FD000042F112707FD1095E801C50FD11D57FDBE
:104FE000DA951C161D060CF0EDC0E901229695011C
:104FF000295F3F4F37FF02C0295F3F4F73E0359570
:1050000027957A95E1F747FF0AC0C52EC40E209F69
:10501000A001219F500D1124C41BD50B40E00C2D85
:10502000112707FD1095040F111D47FD1A95013337
:1050300011051CF070E3C72EC41A67FD60E0E5356A
:10504000F10514F0E4E5F0E01E2FFC0174857427EF
:10505000862F992787FD9095FC01EA1BFB0BDF014A
:105060005F01F7E0AF22BB24E0E8F0E002C0F59575
:10507000E795AA94E2F70E2FB7FD179653E0B59582
:10508000A7955A95E1F7AC0FBD1FE42FE77051E0EB
:1050900001C0550FEA95EAF7459545954595E4E534
:1050A0004E02800D911D11248A5D9B4F40E0DD244E
:1050B000C7FCD094BB24B3943327E42FF0E0EC1565
:1050C000FD050CF07FC0FD01E490F1E0FF1219C076
:1050D000EC01A02EFD01862E881A9C2E980C9116AC
:1050E00008F067C09E2C9A2019F09880952A988223
:1050F000A69429F43196E4906894AA24A7F82196FE
:10510000ECCFF1101BC0752E7094EC01A02EFD01A8
:10511000862E881A9C2E980C911608F04AC09E2C58
:105120009A2019F0988097209882A69429F43196B5
:10513000E4906894AA24A7F82196ECCFE3E0FE1649
:1051400031F0EC01A02EFD01862E881A2EC0752E9E
:105150007094962EEC01A02EFD019116B0F48E2CC9
:105160008A2049F08880692C672660FE02C0852A63
:1051700001C087208882A69429F43196E49068942F
:10518000AA24A7F893942196E8CF7B2512C09E2CE1
:105190009A2019F0988095269882A69429F4319641
:1051A000E4906894AA24A7F821969C2E980C911656
:1051B00070F3550F19F48C5A9F4F51E04F5FA20FB7
:1051C000B31F7BCFDF91CF911F910F91FF90EF9095
:1051D000DF90CF90BF90AF909F908F907F906F9017
:1051E00008952F923F924F925F926F927F928F928B
:1051F0009F92AF92BF92CF92DF92EF92FF920F9366
:105200001F93CF93DF93CDB7DEB72A970FB6F894ED
:10521000DEBF0FBECDBF6C01262E542F01111CC066
:10522000E1101AC02A960FB6F894DEBF0FBECDBFAC
:10523000DF91CF911F910F91FF90EF90DF90CF9072
:10524000BF90AF909F908F907F906F905F904F90A6
:105250003F902F900C94BF27F901849131963490A0
:10526000B9016E5F7F4F7A836983A82EB12C9501B7
:10527000295F3F4FB3E035952795BA95E1F73A8717
:10528000298703702FEF280F522E10E07FEF730D48
:10529000832D90E09C838B83812F992787FD9095A8
:1052A0008A159B050CF071C0812F17FF02C087E0A3
:1052B000810F682E659465946594812F877887FFA8
:1052C00003C08150886F8F5FA0E88A2E912C02C0A6
:1052D000959487948A95E2F7472EF12C772467FC02
:1052E00070948F2D992787FD9095EB81FC818E1707
:1052F0009F070CF047C0A985BA858A9FF0018B9F54
:10530000F00D9A9FF00D1124E60DF71D89819A8109
:10531000E80FF91FE491F0E0E821F921EF2B79F192
:10532000023039F0033041F0013049F4452D6F2D42
:1053300008C0652D442D05C0642D412F02C04F2D9E
:10534000612FEE2069F03E2D3370E0FE03C0922FF6
:10535000961B692FE1FE05C0A32DA41B4A2F01C097
:1053600030E0620D450FC6012E833D835F83788751
:105370000E94FA243D81E32E78855F812E81F3948B
:105380004A94AFCF1F5F5A9487CF2A960FB6F894EE
:10539000DEBF0FBECDBFDF91CF911F910F91FF9068
:1053A000EF90DF90CF90BF90AF909F908F907F90C5
:1053B0006F905F904F903F902F900895DC01FB011C
:1053C00084918F5F14968C9314973196E491EF5FDC
:1053D0001596EC9315976E5F7F4F5F967C936E9357
:1053E0005E970895EF920F93CF93DF93EC014E8772
:1053F0006D872F87E98A088B81E0888788A319A2A7
:105400008F836AE372E3CE010E94DE290E949E230D
:105410008CB58F7D8CBD8CB58C7F81608CBD8DB53E
:1054200081608DBD8CB58C608CBD61E08E850E94E5
:10543000943561E08D850E94943561E08F850E94EE
:105440009435898918161CF461E00E949435888986
:1054500018161CF461E00E949435898918166CF4C2
:1054600060E00E94CD356AE070E080E090E00E944C
:105470008C3461E089890E94CD358D85992787FD1F
:105480009095FC01E25BFA4CE491F0E0EE0FFF1F17
:10549000E459FA4C259134913D8B2C8BFC01E65C50
:1054A000FA4C84918B8F8E85992787FD9095FC010E
:1054B000E25BFA4CE491F0E0EE0FFF1FE459FA4C86
:1054C000259134913B8B2A8BFC01E65CFA4C84914C
:1054D0008A8F8889992787FD9095FC01E25BFA4CB9
:1054E000E491F0E0EE0FFF1FE459FA4C259134915E
:1054F0003F8B2E8BFC01E65CFA4C84918C8F8F8560
:10550000992787FD9095FC01E25BFA4CE491F0E06D
:10551000EE0FFF1FE459FA4C25913491398F288FF3
:10552000FC01E65CFA4C84918D8F61E2CE010E9411
:10553000522564E1CE010E9452258B8587FF02C06F
:105540008FE78B876B856068CE010E94522560E2F1
:10555000CE010E9452256CE0CE010E945225CE0160
:10556000DF91CF910F91EF900C9481256F927F92F4
:105570008F929F92AF92BF92CF92DF92EF92FF9263
:105580000F931F93CF93DF93EC01162FF42EB02EC1
:10559000E8A064350CF081C08FE284170CF47DC064
:1055A000EC81F0E031970E9FC0010F9F900D112408
:1055B000860F911D67FD9A95181619060CF06DC09F
:1055C0008D81809FC0011124840F911D47FD9A9504
:1055D000181619060CF061C0A62E962EC22ED12CDC
:1055E0008A2D811B992787FD90952C8130E08217A9
:1055F00093070CF051C0215031098217930779F0BD
:10560000C29ED001C39EB00DD29EB00D1124A80F32
:10561000B91FEE8DFF8DEA0FFB1F749001C0712C36
:105620008F2C6F2C282D2F19332727FD30958D8136
:1056300090E0281739076CF570FE11C081E0B812B0
:1056400006C0482D6A2DCE010E94FA241EC00B2DE3
:105650002B2D462D692DCE010E94172616C089A13B
:1056600098A1891791F088A381E0B81206C0482D4F
:105670006A2DCE010E94FA2407C00B2D2B2D462D3A
:10568000692DCE010E941726E8A276946B0C8394B4
:10569000C9CF9B0CA394A4CFE8A2DF91CF911F9117
:1056A0000F91FF90EF90DF90CF90BF90AF909F90C1
:1056B0008F907F906F9008950F93CF93DF93EC01BD
:1056C000262F6A3039F42D8198858A85299F800D8F
:1056D000112422C06D3011F108854A8569850E9428
:1056E000B62A48855C812985549F200D112429877D
:1056F0008F81882399F0332727FD309584E590E04A
:10570000459F801991091124821793073CF49D81CC
:105710008A85499F800D11248A87198681E090E04F
:10572000DF91CF910F9108958F929F92AF92BF9288
:10573000CF92DF92EF92FF920F931F93CF93DF935D
:10574000EC015C0186E8A80EB11CD5018C91882380
:1057500009F44DC08C3018F41CE0181B01C010E097
:10576000FE01EA5AFF4F81E080836E01BEE4CB0E5A
:10577000D11C60E0C6010E94C9254E01E3E58E0EF2
:10578000911CD4018C9103E0080F9DE2F92E4F2D5E
:10579000481B410F23E0E22E24E560E0C6010E9491
:1057A000862761E0C6010E94C925F401808103E0DB
:1057B000080F4F2D481B410F24E560E0C6010E94F1
:1057C0002627FE01E95AFF4F84E080833196D401F9
:1057D0008C91181B115D1083CC57DF4F6881798144
:1057E000C6010E947A36F501808181508083DF9165
:1057F000CF911F910F91FF90EF90DF90CF90BF90CE
:10580000AF909F908F900895DF92EF92FF920F9349
:105810001F93CF93DF93EC018C8D9D8D892B09F421
:105820009CC08E01025B1F4F40E061E0C8010E94F6
:10583000CD2585E5FE01EE5AFF4F9081891B3596F7
:10584000808331961082698D613009F462C028F03E
:10585000888D653008F074C06FC0CE0185960E94B7
:10586000463281E0FE01EA5AFF4F80836AE372E329
:10587000C8010E94DE291D8E1C8EFE01EC5AFF4FCE
:10588000108238EAD32E7E018AE0E80EF11CCE01A8
:105890000E94B52C8823D9F369E274E3C8010E9401
:1058A0007A366A8D7B8D4AE050E0C8010E948B37C2
:1058B00064E174E3C8010E947A366D2D62956F70C1
:1058C00070E04AE050E0C8010E946F3769E074E37D
:1058D000C8010E947A3664E0C7010E94C624811183
:1058E0003CC0DA94A1F660E0CE010E94D82383B7D1
:1058F000817F846083BF83B7816083BF83B781600A
:1059000083BF889583B78E7F83BF83B78E7F83BF26
:10591000BECFCF58DF4F488159816A817B814F705C
:10592000552766277727483051056105710510F422
:1059300067E009C068E707C0882379F06B5F03C0A0
:10594000882359F06FE2C801DF91CF911F910F9129
:10595000FF90EF90DF900C949F36DF91CF911F91D5
:105960000F91FF90EF90DF9008958F929F92AF92EA
:10597000BF92EF92FF920F931F93CF93DF93EC01AF
:105980007C0100E8E00EF11CF70180809180A2808C
:10599000B3800E945D3495018401061B170B280B10
:1059A000390BB901A8015E011FE7A10EB11CF50179
:1059B000808190E0A0E0B0E08E0105581F4F841771
:1059C0009507A607B70750F4F80180819181A2815D
:1059D000B381892B8A2B8B2B09F040C0F801808181
:1059E0009181A281B381892B8A2B8B2BA9F57E0112
:1059F000F5E2EF0EF11CC7010E944332C7010E947D
:105A0000B032C7010E947433CE010E94942BCE01A4
:105A10000E94042C7E012EE4E20EF11CC7010E94BC
:105A20008125FE01EC5AFF4F8081811103C0C7011F
:105A30000E9470250E946934F8016083718382831B
:105A40009383FE01EB58FF4FC958DF4F28813981FE
:105A5000621B730B7183608380E036C00E945D34EB
:105A6000F5012081620F711D811D911DF701608379
:105A7000718382839383FE01EF58FF4F40815181F0
:105A8000628173814F5F5F4F6F4F7F4F40835183C0
:105A900062837383F80110821182128213820E9442
:105AA0006934FE01E958FF4F6083718382839383D9
:105AB000CE010E94DC23CE010A960E948F24CE01E3
:105AC00048960E94452481E0DF91CF911F910F916C
:105AD000FF90EF90BF90AF909F908F9008952F927E
