:100000000C94F61B0C941E1C0C941E1C0C941E1CB1
:100010000C941E1C0C941E1C0C941E1C0C941E1C78
:100020000C941E1C0C941E1C0C941E1C0C94D53499
:100030000C941E1C0C941E1C0C941E1C0C941E1C58
:100040000C9448350C941E1C0C941E1C0C941E1C05
:100050000C941E1C0C941E1C0C941E1C0C941E1C38
:100060000C941E1C0C941E1C9122B2228D229122F3
:100070009522B222A2224A246624AB245F24502473
:1000800069247D249824204C3A0020033A002F0054
:10009000043A0044494747455200444947474552BE
:1000A00000CF00D800E400DF00C600BB00AF005462
:1000B0006F67676C65204D6F6465004C6576656C95
:1000C00020646F776E004C6576656C207570004E0D
:1000D00065772047616D6500526573756D650053E6
:1000E000617665004C6F61640008430C467330C450
:1000F000230C6318D7190C24A8AC018AC08C268A5B
:100100009EA0AE2A5CA0210C93F3C8341000A0007E
:100110001F0E021D409A668FC8E8FC4D97D07602EC
:10012000F665B094A52946305D2210842FE01F06A5
:10013000F1516045A8BA01C521B82F8D09A06EC044
:10014000408430C467330008430C46733084210870
:100150002310C431086000815355753E818C68FAC4
:1001600030E181FC9F486A65FD15004610814A0018
:10017000000DCF14F9AA7D4021284B3794A5080023
:1001800016C404210840CE00861A00D6012088211A
:1001900054CD09EB0168FB0F13A090C1086188CE14
:1001A0006608430C467330C6386022108420827083
:1001B0005D40218AA798834C8B479874407C40F817
:1001C0006A18E7E1FE0295000008411CF0011441A5
:1001D000ECE8DB9F49538B20887A1084A5297B8229
:1001E00086309202100010C024154B81254F7CD818
:1001F000150557A1E12608430C46733008430C4609
:100200007330C6386233988D50014210840100115A
:1002100008003D0123210841906314403A8813C827
:10022000EA0A6B18A8C42A829BD1BD88A2C8F9FE2D
:100230004AAEA7A86ABF944216D5FCFCA427A1A980
:100240007CC218A20F0251F856007F11001B2A042D
:10025000218623399808430C467330C63862339898
:10026000EA010C510C8A3104221D763294A5002338
:100270000A808410C1FFFC2421083055D78043290F
:10028000D4FA0800A00010C461840066D0032C27B3
:10029000E20903F18650DA29A21029A8880204BADB
:1002A0003E82412C44FE3EA8CC2211218FC010C4B6
:1002B00062AF83F88CE66008430C467330842208F2
:1002C0006118C70C46419B02700010C00600042054
:1002D0006CE2121090C465A20820D3741C3F47182A
:1002E0008628846004A810D3B6E887A00C70C46781
:1002F000318420ABEA638C8B00010C466006824A95
:100300007EA430BEFF9430C467330008430C4673AC
:1003100030860002188CC001E60400367EC0020858
:100320004600E9FCC0748316A0AE319E4310DEC2C5
:100330004D81340A2A7C8713D1F91D81529D4DE4E9
:10034000761BA785EC467F10064DAB92EE083A88E7
:100350009A5237A2542BA835798340F3FFE0084323
:100360000C4673300000450497EA199A72A6348946
:10037000863995390D1FDAC2A3CDEAC6C2F5AB871F
:100380000190E8AB9781ED3EA080989E43B5725DE9
:1003900096A3BD7CB70F43B7842BBD72CD1B7CEDFC
:1003A0000008430C467330C4318E1834773C541324
:1003B000248A3A9EDFD1F7FF9DAD437E7FAD842333
:1003C0003E7D1084D1FE66FCFF2789F3D8FF3ECF27
:1003D000F3FF2BF9C2186233998008430C4673303F
:1003E0000008623094820682A10929A1045105D334
:1003F0005088757715538406F634527229081753BE
:10040000FC64EE632F9881086180DB12800259CC76
:100410008425A8419C6009240D484215420A849D08
:10042000427C0A9F9BF24A52E8671E80318E188CEC
:1004300030FD7C2008430C46733000086003908830
:1004400010185505A7C10C63086A2212F88C853470
:1004500006B88E6A29E6A1F23E1A8FB8A919EC10E7
:100460002BF848305A1A26A3BC0E5907C2318E68A1
:100470002000050340A8A6800E61022492F922D232
:1004800088308822883E1208934D90521485FA33A2
:10049000820C84B249C08E68F83F88CE6608430C4F
:1004A000467339024088640800003229A9C202104C
:1004B00082882A7D002308E20D1EA11723537600AF
:1004C000002188C42118C63184BC474038F0431A43
:1004D000E68B68042109ED802401044A80753846C2
:1004E0000FA4001D51A1A4243D100A847A3E82204D
:1004F000D3032FCA4C44612109F0E01154AE100817
:10050000430C467331062100000800310E48962A3C
:1005100001CB21A7F4100348088399E83C0EA012F0
:100520006A18C043F0780AAC0150000425B1695F35
:100530005510C55100401441510AA418C43F6340EE
:1005400039043F01B508CA518FE1A23C9084800074
:1005500000025446A96A92547A355110057C08620B
:10056000AB822191682008430C4673300001000DD6
:100570008CA609E2A008C24B8726084F390C8009D7
:10058000824212A2E8E600844216860DC000184896
:10059000118C631847F0701A12FB04791F086B8DD9
:1005A0000C822089F112AA8C7E33D48120C2008F64
:1005B00048902A5F400327F1F3EB29910A3F80001E
:1005C00057000002188CB2CD939C08430C4673333D
:1005D0004000004124728984810835021023E266BC
:1005E000194413C9063210840453710E888A4630A8
:1005F000464109BBB98681A8A7AA489108C3F42F30
:1006000040ACFFA27C20F80004000111044886A041
:10061000EE25BDD03A17D420037A0683FC7B45C271
:100620003208C4001108417964886E7CDC200843DC
:100630000C46733080011084862310001982C40197
:1006400088628864408401008631C3119147515209
:10065000C2F4000D084426944192A62084321084EE
:10066000E62A7FB2A32687560521EE2E0F807A4117
:1006700004417C06A809F0B74CF8341A8728080012
:100680008003980034301072C471FC1070C6E1C44D
:1006900046733008430C467330C8320C8421C000C6
:1006A00043000661108E43049351E241CE5720E887
:1006B00057C9382D0B8A05203246041907F1F0F38B
:1006C00092B42B0AD8B8F49F428CE4076D04031D42
:1006D000E388FE1B1E87DC2BF3A8541D03D3F2B462
:1006E000118C70C0C9E8AAD937D1B046733008431D
:1006F0000C46733084210820102189B2A428C63109
:1007000096A7D05350E8FF1D4FF01425882A49AC16
:100710003D48F436CD810280007CB2C200108618BC
:10072000B43E39F0C300C110683DC6552C9EA521CA
:10073000084254348E8FFCAFE7DA8766E099E00810
:10074000430C4673308428623218272084631C319E
:1007500019D4A2ABC6D094A52D48108618083B200A
:1007600084BF884842109505CA2154E2108552FC86
:10077000BBD688D037C8004631E112C7406AA020F6
:10078000A87E218278086F80CB000689B9D6375AB7
:10079000C778B7110123AB6F0B998008430C4673E0
:1007A000311A408C76E80813042D234200017100B1
:1007B0000010571A010928E677854F9BE8FA8FA3A6
:1007C000A3F12DA8F51F9F47F93D8CD7E018C798D6
:1007D000E91F0B6A6CEB520E101B4334917E310CF7
:1007E0005144673477D2752008430C467333400672
:1007F0003231000018C5A10926B18863A8C150553F
:10080000402124CA843758C7A052ADBD32CF8803D7
:10081000EE060318C696072C543DD5472D681F3F9A
:10082000F6D086B4193B0C0696000421139CF806FA
:100830003182328E75368D7C4774DEA9BF8C43229F
:10084000D04008430C4673301A008842108918843F
:100850000069A2800679A62B09EAA2CAC84112A79C
:10086000F03D2D149A17C3A00A7A08C6386233984F
:10087000EA7B9F4300010C463A22EA7A9430C68F05
:100880004237D0886456E4357DD7F1F2733008439F
:100890000C4673334000004C10851C4C2008413836
:1008A0008EB88E8425D4231CB0030846D0268668D3
:1008B0001F0E80C8EFE20C30114793E14A52947149
:1008C000947810F40C00A328F0210000000E328F61
:1008D0002A415471DE8FBFE8FBFE8FBF842186233F
:1008E000399808430C467330000036290006320858
:1008F000841540318E188C2A121084A872B902A176
:10090000D22A2CD3E0F62A5E63D06FC42A94C4A402
:1009100034310AA7F8A90F9EA5FA3E418C7A2D4AD8
:10092000D00000F88554842BCCB596FCF956A7F17D
:1009300008210C3119CCC008430C4673318631C3F1
:100940001198C5386735480006801548AA005476C6
:1009500050C1A1AEA7B2BE107F048CB9800000A226
:10096000229A8002001A125482A8B432553F3B5B8F
:10097000516A175D4F54D4FD45464F8E3397271C5F
:1009800024006324B6B5B6AE2BD50008430C4673DD
:10099000308428606390E71A980018C70C461A3D07
:1009A0003D53D5FA062FF514A5A9FF708400000069
:1009B0003192429AAA7ABF47ABC2118C210C7320A4
:1009C0009638A01AD6C3118719521A9EA800BF0BD9
:1009D000EA95C208430C4673308822431141053022
:1009E00088410D3B445C36C68320CD559E8342DD55
:1009F0007F8689E05536568010847194AE100010C1
:100A0000C0245000D53D4C0D1EA7F987A3FCE01073
:100A1000042F91622108220638940138042186238C
:100A2000399808430C4673300006846310C6419A17
:100A300073A84150888318E7309348A6B50D82A269
:100A4000FE0211933120E7CF81BF0631C84E7508F1
:100A500003F07A239CC378006310E31FE2A2FE0335
:100A6000F0DA021CFC41D423D0BE06E304A93D9079
:100A7000FB1F04FBFC7C151AFA00804319249268C2
:100A8000418623399808430C467330C63862339840
:100A9000EA7B9F42001B1434031B41145493C4553A
:100AA000297C44BC62A94BE2FE23398EA7B9FE2003
:100AB0007C3154A5F136A26D94DF909A0C55280331
:100AC000E3FE23398C2132EB7A9430C4673300087B
:100AD000430C4673301A0002188F270A806318C629
:100AE000210A1896AA5A6EABD104221221D4AA7AEE
:100AF0009F46FBC6D085BF055D30FC9F818C63534C
:100B00005F2017F853153E85F94A753EA1267C20D3
:100B1000680008623C6FC0186233998008430C4635
:100B2000733182418C241104210C8100881A4460A5
:100B30000C50410470C79248C2B88A58CC025BC6B8
:100B40007D8207B00800BD47801DB5BCF34005405D
:100B500008C021DC7A8F9420D2221B87C808C84F96
:100B60008C3208B43A287CC5C41080400003CD48BC
:100B700013C7904D82C008884DD2A09C45D67A24D8
:100B8000E67B99168208430C4673300006C411E4D4
:100B9000E3506A23DFE890044414303E4080022A88
:100BA000236823A839BF25A122C641C31150BE3DE9
:100BB000080318E18212A300022A801600AA70130B
:100BC0004106602105B520C6AF245A3B5B885324FB
:100BD00027CA10C31190E61D01BEC7E11E4E397E23
:100BE000FE1008430C46733086120463180678C260
:100BF0004810678D62A204B41A0042CC4798542A68
:100C000000320D03A2D0FF9F845D46B51E685D4093
:100C100086288790154A5094310943E47C020904E0
:100C20000002188C7C1F84841104168444036A3DDE
:100C3000E3908CFD8FE7BD57FE132E6E022A4F7F87
:100C4000FE08430C4673301800006168C6308842C5
:100C50001049504D1500062A9041C20D519061294E
:100C60004A5D1EA3003430000068C21092E8C0073D
:100C7000A04E140109D0CC610884210EA4B4042D27
:100C8000044418331E83C0A8AC858391A9F43EC4E4
:100C900082D1EA418884B43461545DC1063D83E861
:100CA00088645A0808430C467332C00000228C4006
:100CB000118C84206381C304AAA621548210B53A02
:100CC000E340FE22A08267C20630E46111082D00D5
:100CD0009F493D21869020BE521341BE7A80C76451
:100CE000AA6A6EA1A0DE62AF0F7BF43E808803117A
:100CF0003409006307C24FA6A120EA009A3810BA4F
:100D0000CFE62A95C208430C467330C638623318C2
:100D1000000110218E0153D30208484A8A39CC08B9
:100D200041541FC0471DC9D8113DDDA42117C04241
:100D30000C4315802A8C841531A1D524D03F808E98
:100D40003B93B905832C17C9DF7C64A8C82159C41B
:100D5000AA021079560DA2410CC1086188CE66081E
:100D6000430C4673384266800C001A18C420CE88A3
:100D700042430408014CD454FD35A0E6E000F5AE32
:100D80002B0CF459ECD38108FA0F603A2DBDF8FC16
:100D900077D771E054BBC585E493ABFE06D8825388
:100DA000F8B70CB3A1D0BE86F97FD0C0BA82B88C98
:100DB000E66008430C467332C2A00010C46472108F
:100DC000810806420E400C804103C28C47487F22B6
:100DD0001E2350902408C7645B138FC55828000455
:100DE00031D80B421DC3F0E85519350D1350268339
:100DF000F0450318F618C388D0337D6F19B62FACB1
:100E00006642066FA32426D0484210620908127376
:100E1000FF784008430C467330C8320C8421C00070
:100E200043000661108E43049351AAF2CE5720E886
:100E300057C9382D0B8A05203246041907F1F0F303
:100E400092742B0AD8B8F49F428CE4076D04031DFA
:100E5000E388FE1B1E87DC2BF3A8521D03D3F2B4DC
:100E6000118C70C0C9E8A6D937D1B0467330084399
:100E70000C4673310848608200C033800000338123
:100E8000EB600802021062A800220C6425F158E30E
:100E90001926E7F80464F04641CD000431F87215D4
:100EA0000FF1AACBA4BE04020C879478847C1CC4E6
:100EB00041B88C631FE1A18F4018079D347A024628
:100EC00090924805B24203A10F01EC1341FC2A1590
:100ED000AB91BC3E06FD26D07619168208430C461F
:100EE0007338C6020C230848419084212992027865
:100EF0003DF5915E1A04516084000000808452C563
:100F00004633E85F090299001E4035826F1545E1BE
:100F100040584120B59500000009F0806411067A20
:100F2000C7408ABA116E59C23F12006318F08A8313
:100F3000409AB00BE008D1264261810982421361D8
:100F400048C2AD406BF86F99168208430C46733067
:100F50008428604218000860016042320C9108F950
:100F6000300C01094A6294B700484B2001A839DDD2
:100F70000AA02680AAA8631C303D109801081167BA
:100F80003AC7C5598C6002F9206823188411847A05
:100F900058C7244C12067184080027B20008049A2E
:100FA000241A8BE0C27299C44CA908120042682529
:100FB000027A1A0FF1154AE108430C4673334000D8
:100FC000000158442143118042008E2920484243A9
:100FD00011854263597740E21D0748D00000431154
:100FE000823E09A5BA16B119CC23184838A02210A0
:100FF0008428EA80FC2D0B02DA06124A865820C8A3
:10100000320425F62A0A6360294A5A2000003B9AD6
:101010008A69E43E2112A7A80842102320E304CDE8
:1010200044E43A88CE6608430C46733088018C63EA
:1010300020641108421042418361204200D3180607
:101040008290909A05405294A4BC03A200003800FC
:10105000418B904CD0007C40EE03F08FF016835013
:1010600080841590420E401907C8041A1EF1C8DF8B
:1010700003D6BE11085E40C442461A0109890E61BA
:10108000E400007156013B12742190341A848909DE
:1010900017580CE6A8BB28F27408430C4673318835
:1010A000118C03004812340000179C4E208C87D509
:1010B00003D8A433018E4120C551687E85C16C02DE
:1010C000A3D07830907FD7A2927C1F9545655D3282
:1010D0002D43F10D310483385434A56A9A8A76E0A1
:1010E000FE0EDB65F802409221914210C3119CCEA6
:1010F00008430C4673300000849182E509A49501F1
:10110000AB01D8180E31516C2406A1CCE89C5625B1
:10111000A4FC5D166DA35F378C9411C984B0801652
:101120000403D07531EE3B17152DD6170DB5E069C8
:101130001FA8389D13ABD23F26E758501A10908451
:10114000CB364E7008430C467330C638A0924047E9
:1011500010925820C000022A9241700491C81A0EC1
:101160004760AC421B43D0088420F83405433C520E
:10117000150621A47C231908422C84F43E8B2826D2
:10118000294B0C0423C0341DA40004303A886DF8A8
:1011900007536502BE2A32108411044127B1F807B3
:1011A0001E07E0087A8AA42DF8E33A4ABA95FD8032
:1011B00008430C467330C63180421431198AA4B2F8
:1011C0002EA8C82121081A9C6B192A0C60018602DE
:1011D00019A728D0D20002188C2A3FA0378042528B
:1011E00094BC8CD51C0C61D683A461249E0714D4B6
:1011F000F90541C6689C9049ED007785426A846193
:1012000027F230704DD012127363492E0B0A3399B6
:101210008008430C467338842104242102000218FC
:10122000184231D443A86780809510EDA1D40320E3
:10123000F439E289001A20887A1F223C03900E8933
:10124000A9840419218902A10002CF206210BA8D5D
:101250000CA50F100A9F43006B827C1A007E318020
:10126000440700518C2327C3640095000178048251
:10127000F817508426A882426819CC6733000843C7
:101280000C46733106718C848608422C751D012929
:10129000084294482964151DC35092A40001680CAB
:1012A0004188345A9823F871810850C4635004353A
:1012B0001761E4467F153F6DFC25286762530427BC
:1012C000C21084230E103A9C10C590421B92C62A6D
:1012D0006DE63399EB7008430C467332C631C31187
:1012E0009CC410921824532149950D83FC4555FE4A
:1012F0002FD1F6F97D35B5E8F53FCFF2E8FB97CF72
:1013000046FF3F3E5FF384631C3119CC610861885E
:10131000CE64304008430C4673300006C411E4E349
:10132000506A23DFE890044410C621F204001151F2
:10133000E8350F37E4B4C458C838622A168E300C2A
:101340006386084F8C0008AA005802A9C04D0419F2
:10135000808416D4831ABC9168ED6E214C909F282E
:10136000430C4643987406FB1F847938E5FBF8402C
:1013700008430C467333400000018C250090840024
:10138000430C04944475D8D4399479D1F519800963
:1013900084806318C72CF0219C05408C84BE2E2AC3
:1013A000CEC015B1F0A80017F10C00951F00320453
:1013B0000308368EE2315D303F42A046E77161128C
:1013C00081AC81C3138B6F0190840B651000988DE5
:1013D000614C1251A42E8FB64EF60008430C467392
:1013E00030863108411908208000036A318C2118A9
:1013F000AA12108404D1508D63228C19E03148C8A0
:10140000305B059EBE9B27C8BC783EC42155B78D76
:101410008008C4ADBA2FE4D12FA8F33AD20E3FE72B
:101420004AC380308F008A6681085B0545E58422C7
:101430002089C8814009AE8D83EE95C208430C46D1
:101440007330C6386042BB65100000B2C0A0031103
:10145000A8231DAECCD05B187ABA1F521213D8192C
:1014600009886860D06A1DF81B893480451F26886A
:10147000119E321AB78CE01A09347D183B9ABE2BA4
:10148000440A00F61D186BF8B6AF80DD97B52B84C3
:1014900008430C467330C6010C638E0600000186BB
:1014A0002A018EAA980006D73A0671A8E33A8E80E0
:1014B000218AABEE49518C9F8FF070F5238C3E0949
:1014C0008680F9EE900E21F83218CA70A46A203690
:1014D000D338CE3887E0180DC0E8FA10343F13E255
:1014E000EE3E15EC63CCDBA8DB519CCC08430C46EC
:1014F0007331860080110C863304231D215446600D
:1015000000C7EC01B55363CE63C1D3F9AA98631841
:10151000E9DA9884A92AFD1FE7DF2A56FF4D8F3D9F
:10152000FDDFE118FF7FE463085750EE3C8F603326
:101530007D10C467330008430C4673300008600018
:1015400054AAACE16118C618A832079FFE5499400E
:10155000C6216C5C8801D0D0318926AA6038C0864B
:101560000B24210443FDCD3B5643A080080000001E
:10157000E719001BA2FC1BDCB1DD663A82B603D47E
:101580009A114BA3108109B4BF94350ECB2B84085C
:10159000430C467330C635C411C4B33812A010854D
:1015A0000C54F50E57A11064189B53D46318B46FF4
:1015B00007E3A8430C6E7D04F029C44286065297C7
:1015C00093B845C0886000072D705217C0011044C1
:1015D00018C951585505E820840108618B0A5C0838
:1015E000000860C12000844D56AE2BD50008430C86
:1015F000467330C62308631C31300C842540210A11
:10160000A008882A9F20AA2A5DE741268F526717E3
:101610004FC2296398D02A7A685F01341C8347F847
:10162000463F07419ABE2AA6A7D03A0DC242D1F43E
:101630001178BF28844F808427C6BEC7D191682007
:1016400008430C467330C4318842862319807500E4
:10165000C70C46731E860000085463A2FD1B7FE082
:1016600010DB54FF51516AFCCD467FF452C689FE0F
:10167000F9353FF5E568E3184A50D4FA1FC3A326AD
:10168000A459AA4484218623399808430C46733010
:1016900000D03400088631C31185414CD51538423D
:1016A0004212182686002AA7A93E40C3118FCE10E9
:1016B000DFA200010C02A310842E2EB9F478D9F019
:1016C000213042BFB0199681A817B2D03330D4224E
:1016D00017A3F1211A98692AC3D3FE1BC6F9BFD0FC
:1016E00008430C4673300000011181084088421005
:1016F000B3F08F98A9342DA81530C7C40C7DD54EF2
:10170000386072104A5294B53DC97C854A00000089
:1017100054F5006188CFA09F1AD6C30DF9323F4817
:1017200000E6FE418EB2D097610426A933EE2A7AF4
:1017300093B58008430C4673300008623208C43108
:101740000C5505BE1A68750908420404268FC80C9A
:10175000630806394E60A9BE18A6380B34410AA0AA
:1017600008425284260AB1AF8753B203F4FCD586EF
:10177000D02AC6D19132AE07A190908479779C7916
:10178000EC66FC22F1FDBC2008430C467332C631E6
:101790008C6168000046610D34308064180364D4A5
:1017A0000A90C04212A1368FA00C601E89BD23B2E0
:1017B0006D44DD1B58086188C86210A18B6654D146
:1017C000773E92A7A9C23D5F33A8821860252C9965
:1017D000F0B400043119CC196EC9CE0008430C4690
:1017E0007330C00001B1480631C303A865C926E2C1
:1017F000A8895AE055093F2CE1A0E8175178B48E2A
:10180000899154DCCE83CC7719A771F0501CC92A7A
:1018100052681DD4E7EC8FE1EE66927A5517419934
:10182000C79A10CD9D376AFC4210C3119CCC084367
:101830000C467330C6300010C014001AA410EDCE50
:1018400069B53D440004201AF4506855087B8EAEFB
:10185000A118EA79CB4307F1DC97D8EC639093C8E1
:10186000B8557454B906838D763E07004D080318A9
:10187000EE9DA6A3E3C2D084E1210310672398273D
:1018800021D43AACAE1008430C467332C6318C51A9
:1018900050850C08610D3351CA58854A0056E10F36
:1018A00006211360EAFE024E348F621863E2A0B292
:1018B000CD0FD900002C9B4406D1A3D49B007A8085
:1018C00084A5D8884D06A08ABE41FC1908BC1DE439
:1018D00000001BA0182126177CE3322D0408430CBE
:1018E000467331800043005482318C63CF484243B9
:1018F00004A9FFFD13DC8EAA520C4317060C29B570
:1019000036F03A83E8054EB98350DC74668024D102
:10191000FE2CA2A068000E04611C401210840E7000
:101920003C02D1B8E719E6A5E8552E7C1FC4673301
:101930000008430C4673300008623398426A8357AC
:10194000C6A89D11B8854C121090C461A3FBFC9FE2
:10195000CF3DFE9AFEAFA3F778BF59580002D1F4ED
:101960003F938708075269FA8800BCBF7F08084385
:101970000C46733000086233988C108F57D1DBAA65
:10198000C9BF068FC9B740C3B47CFF8B1F8042100C
:101990009B4E12218862154BC080631C31A44653B4
:1019A000D02DBF82A3D082A00000E838AF86682F78
:1019B0006615FC2DD0AFAA87B18CE66008430C46B3
:1019C00073310800340004311990210041B3E5550A
:1019D0001E7FC4E824D5788F22493670101229FE64
:1019E00017766E5C47CF19802DEEB2DDEF35F339F7
:1019F0003B97E026E84CD344DCB35F335803739F36
:101A00004097E657330008430C467332C00000028B
:101A10008CA391033F084631C303A8338188221069
:101A2000BF92FF1A010000882421218C267809AA80
:101A30002D035CD06C9D148318863F839810463923
:101A4000863A9078816E3C0535A061220884216E2B
:101A5000753E8FA18002EB3D22FC43A93DB00421DD
:101A60008623399808430C467330C421431180C63D
:101A7000386024A825B8F2A7B1F435E9FF18FE11A3
:101A80000C431038FF9AA1AF2A6A26A7E83F1D042D
:101A9000A52C31A3F520002180C80802A6CA9463B2
:101AA000BC6B2D18C32009FD13E60C3119CCC008FE
:101AB000430C467330C000B1810302C0066010EAD7
:101AC0001A22B8A2AA59DB40E234158C6386233966
:101AD0008BE78C24AF8A8CF8EA496340D62BBD048F
:101AE00030C467327C00002188CE62A875FEACB598
:101AF00008B5FEABE11FF46A9FD7FFC008430C4650
:101B000073300E0002188CE61A9ED7D001ABD4FFBA
:101B1000BE8FABFCABA9FFB2689AB8006A9EA7D192
:101B2000B55E02A7A9F47D4B62F9FF81807518614B
:101B300088CE6608430C467332C00043119CC260D5
:101B4000841A88E2AE98012102024511C302C065E1
:101B5000151511510218A8863C622AE459A1461AAB
:101B60002543F1F21F27200033E7F8680D13BA660A
:101B7000D3E054F3D54FF10E2A947E3DC221917EDD
:101B800010C3119CCC08430C4673300601806B09CE
:101B900006320C24210F50180601861192B0CAAAF1
:101BA000505460000153FC753E85DCC55F3F62C246
:101BB000048427CC634311868F996826033E5CF426
:101BC0007786899E6855267DC06899F690300067B3
:101BD00008430C46733008430C46733084210400DC
:101BE00000A208EEA71D471C6824D04C6343118D4A
:101BF0004CC31084860843302108461D1F4300163D
:101C00000002188CE60084C62640221B99EE7D81D6
:101C1000088230EA0FDAA509064210DFC92A7A8065
:101C2000C0AA6A216886212A9A9C83A62AAF80309E
:101C3000C467330008430C467332C00000631C3194
:101C400019108108AA7A6C410E73A3909A0D4F4E19
:101C50000F47A7AA7A7F4017CD4E0BE7CD7E7A7E3D
:101C6000A7CDFE117045F44B529BEA07B32998218A
:101C70000C3119CCC0318D0C467332C02100008C60
:101C8000E623180218EA88CE62318632946214671D
:101C9000315405000B6446730E800055164467846A
:101CA0005426357319CC0CF829031AC18CE61F8B06
:101CB000D1917C0A9EA718084D6633987E0212A91E
:101CC0008CE62A92C19148631A188CE66008430C8E
:101CD000467332C00000E100411085800042486038
:101CE00036056B50D011052F3D54FB95478BFC4DAD
:101CF000EEBE8B8A3908E6B004842430426F586502
:101D000048CA93C80059A3D45F3E80739CFA3E8FA3
:101D1000F27B9F01BE10C3119CCC08430C46733369
:101D2000000043000864C6CAD53DEA2030216CA7F4
:101D3000C80D6318E1819A441842CB65989C75C818
:101D400006ED14B94C108486084A8255A9EA7D1F15
:101D500047F998267CFF3FCFF3FCC18623399808CA
:101D6000430C467332C000430064880004200084A2
:101D70002862D81005105445A94C6318D53E8262DC
:101D8000108409B47A9024A859F0FF1A210CCF8846
:101D9000A5862A6F881FC4626F42A7A9299D1F428A
:101DA000018C63181F2ED52AD4ECA9C2186233996E
:101DB0008008430C467332C000004214302308826E
:101DC00020821A640318E18A6C95132C20539A2DF3
:101DD0003FA2E6FA3FE39B0F40180210C3119F8019
:101DE0003F805987F7CD0B2018C70C467318422245
:101DF0000A2191680A9EE7D1F8708430C4673300E5
:101E0000304218623398CC13300158C6386231031F
:101E1000330698000D40218A99019A10C6154FF596
:101E20004CE212202188C7A8BE097518C68629A2CF
:101E30005415510848629AA87E8A9EA3A6BE7F8A3E
:101E40009AF6C84AAAA1A7EABD0337D50211E6FF50
:101E5000D8C2608430C4673198318D0C46733340EA
:101E6000C0322191406300210C3119CC2DD00200E9
:101E700002188CC000E85ABF300D06A1D45B99B39C
:101E800041F8350204910F53A18B000057C48BB861
:101E9000D0778F9F4508430C467A2615996A5A16C3
:101EA0007FA9FC0D036219141F01A188CE660843A7
:101EB0000C4673308428623398EA7B9C21369FA3BA
:101EC000FDFF30C212C3011C65248420035A0002A6
:101ED000188C25ACA481862339843A08E188CE6227
:101EE000D03C693AA7B9F47E1C215FDFF306188C59
:101EF000E66008430C467330000030842430424EC4
:101F00002CA8C1BB326A600831D95C88C585909421
:101F1000F004209290A82AE154FAAD31A3FF74CFC7
:101F2000CFFC2E9BF9FF9A6FE2184631D5C3184CAF
:101F300010800C000210C31184C134545A5EE14C6D
:101F4000330ED5B98008430C4673300008623398CD
:101F5000EA026BFD492A1D5F33A8F57CC743D5E62D
:101F6000AA9354CCB450B5AD6B733A989F3E8DF1A3
:101F7000FF1F3E69AA7C26CFC2137C0BCDF55C7F88
:101F80006F08430C4673300008600610850C46212C
:101F900009980008557D424300031EAF51553ABDD4
:101FA00049A82F57A9357D1FFAD5EA4D5F47D5FFC0
:101FB0008A9B57D1F5661747D4FF018421862339C0
:101FC0009808430C46733080001091408231B2680B
:101FD000054F51500188748D04431D4240B2B9171A
:101FE000C3E8D47F00001F869AA9FE3A9EA214314E
:101FF00055FCC2D80355FCB4CD5BF2537A90C6CFE2
:102000008CB4D8005D0BC80849E82FF127C3D03243
:10201000C0084D194B541008430C46733008424316
:1020200002104000430C2540318E188C2A32543F58
:10203000A8FFFBF180D100CD1F47D119B471728682
:102040008FA3E8598E872968FA3F3199E832A68F25
:10205000A3FC19DAC23E10D73E6E1008430C46733B
:1020600030022080F141E512108BA92CAA8C43A9E3
:10207000EA410D9A3ED621F41F3FC54C544301C09E
:102080000C00F14D446094210C5529CE1695F52A8B
:10209000D4F678424001BB0C5529541547C0425E26
:1020A00031449114FC12CCF15206188CE6600843BE
:1020B0000C467330842860225822898EA32846312A
:1020C0008C25A9C451840038023AABE228C15000E3
:1020D000E10555F0D3150E800AABE0A67403D95A7A
:1020E00088434D0034C545FC0434D68FFC0421865A
:1020F00023007D13732EBF60FCDB308098C1A84F96
:10210000644C5D4DC23F6003E8FFA8AA570808432E
:102110000C4673310848608218852E54C510CB5385
:10212000E8A3D1F451E8FA3E8E10C31188C7338C6E
:10213000631922992A51A8A52B92F8E849A100F524
:10214000EFCE004AB53D45C4FC0BD10FA010842052
:10215000CC1086188CE66008430C467332D8318E5A
:10216000188CC63030210006210A188CC600544451
:10217000212188CEA5D1F47D1F4728CB10C85F2828
:1021800000086233F946386233D142DD3DB40D4375
:10219000F19FFAA9F4FD17E337CE1862339980084E
:1021A000430C467332C20000206C4120B2680D001F
:1021B000488645A92C1917B0A9EA7D1F47F809F8E8
:1021C00044322FC410C3119CC23F80008623398F34
:1021D00041104510C8BE0000300E21917402D8167F
:1021E000C46730FC20043119CC66CDF87008430C6C
:1021F000467332C631C3119CC4108C8420C70C5C5A
:10220000049AAA1996A2BE343987239A7E0C13C069
:102210000EC3A0E75A2ED23D0F61914753F65D1EC3
:102220008731D75A3CC5A4FCF4EEC7F3F711C906B1
:10223000608430C467330008430C467332C020000A
:1022400010C46734042000EAF008751D5F4D547A0D
:10225000B535527F228629AA98658629BD17DB9756
:102260002A620C64A9E9B0B401AB3E426F5567C75E
:102270004C9AAEF8B306772CFEC210C3119CCC0862
:10228000430C467332C631C3031842210C621082DC
:102290001A7472B5407100408803A80415180270C2
:1022A0008020E423BB42A0ACEA46DE390EC3A20282
:1022B000A21822118C77DB3FA8AA50187F0A44830A
:1022C00002B5800C5A96F151511105484A9F48D0E9
:1022D0004B511B434803557C418623399808430CD6
:1022E00046733300CB1E7C00016046110B27AA8A7F
:1022F00038FEE58A9F52CC347D406330E4AF88805D
:102300002440358C72E7C17D8C750715F333A0032B
:102310003E6A8821863A8A9F32D5345CF751F93378
:102320005DD31FDBC208430C467330C62104610035
:10233000010C46552B400862A718D6321090C4678E
:10234000FCEE039066190D9B88FD1FB732087E7F57
:10235000899517CFFCEE43F4BECA97E7F8751F9F27
:10236000FB3781F0FDE108EA2F9FE3F1FFC008434E
:102370000C46733000086002910006541A98C77A20
:10238000D100D54206651526D1B05CDF17E6CF9F98
:10239000E70FB6CA9EF9E0BA900A6B188FF4ED1FEA
:1023A00000C24212180FA2001FE158CD52501A8FDE
:1023B000C01D17B8F434208430C461E9591475ADD8
:1023C0008C0008430C467330180002188F278A824D
:1023D000E5CBB4020C84212E08E668D0A62A96E943
:1023E000A9EA7FE430C48B452800043005C8805634
:1023F0008FC7FC2421218936A224CD6D1347D1FE3D
:10240000018C70C4673118210C3119CCC008430C01
:10241000467330C631AE2992642084020001149EB6
:1024200055D0F613834719084860603CABA3AB470F
:1024300008000001A0698D144D41086188C4C6EAF6
:1024400027CF9407F9C7F5006704AB518AA0D024C1
:10245000AA8BECD03E6F6FF83CA9F006188CE660B2
:1024600008430C467330000862330306318EA1D74F
:10247000FA818C5A3F07501327DC7A017C7ABE80A0
:102480004A8F67EC063168FC132A0264FB8FC02F69
:102490008F57A80951ECFD80C62D1F4418C9648EC2
:1024A000188CD6309BE1F5E66008430C467332C6C3
:1024B000308842108D190678882AC2539526A55077
:1024C000E2751FF3A0619527F04A73E1EE3FA1F991
:1024D000334E8C30839EA9860BDAA7A9C200340044
:1024E000600008C9B285414C582100592D5404217F
:1024F000218210671CB81086188CE66008430C46D1
:102500007332C0000040147449A42188441044353B
:102510006542408F601D43A96864D0220FEC9A1970
:102520007E0882AB1687895498C6842F8220A6F431
:1025300041F703F8C82F0881268110537510421007
:10254000B628A7342F20409A69BA94661DB751FA6D
:10255000319CCC08430C467332C6318862886400D3
:102560008C600C5153D4E31974718744ADEA4087F1
:102570006AD8F4510AB7F819F25D7B07C7ED040C6D
:10258000ACFE32109748000D86A7A85954FC831062
:10259000BE008618D18631C3119CC21361BA6F1474
:1025A00008430C467332C631C3119CC59FF17518A0
:1025B000CC20883108823A9696A9EA7D0C5A1721D8
:1025C00019FC22F886018221903A0F8EA7C6298D28
:1025D0001F72EC7D8F9EA10300007C01284B10C868
:1025E00018C4421B22E08CC7355BD936D008430C97
:1025F0004673301A000218647734541A8AEE9E60CB
:102600007DC36A121090C4C121E823A8C776481A76
:102610003DD9A0FF011C41D0C84CF80006C411C42C
:10262000AB7D69724C880090848607261B411D464D
:1026300016497E4B3DCF864500010C462C8CFE0C86
:102640006633998008430C4673308631C30B8EE69F
:10265000810433355D53DCFA3F0FF3FFFF01143281
:102660000C90C4664254241D609860646491526862
:1026700003DA374A9BFBD007F14955F54431C311C2
:102680009CC7531AE708430C46733008430C467343
:1026900031084088429023C2544318E188CEA2FA00
:1026A000580000638C7FBCB021160798AF20CE3451
:1026B00080F81EC7C1A3789F2D93504977C8BC1AD4
:1026C00090E09E383EEBE1A10842770DDA000D82E2
:1026D00079A92D093B433EE06A9FF98AA5708008DD
:1026E000430C467332C631C303184601822060434F
:1026F0004C82A210040886A3D0CA0280AC2D44C02C
:10270000000CD1F42F47F0D0730D0C033545A3E82E
:10271000F99E86C0000CD1FE2CE2290E67A1D4BA26
:102720003E820D1F47FEC1744401086188CE6608D1
:10273000430C46733084212E280800086230084676
:1027400031C303184011886294425294A38A2A1B11
:10275000D02DE56A2068518FCB31842210A181549D
:102760005F2E7953D4FF0B000FC4212E8E10F70477
:10277000204368D4B40545F18841002A7F90750153
:10278000806F8830C467330008430C4673300008FC
:10279000623398EA7B9F40FDFE7A844221090C4611
:1027A0005F20C7FFFC03D97FDA20631EC14BCF1522
:1027B0001340C0442D0546BCA007002A80019CC7D9
:1027C0004042102CD02B0A0679A8BCCFA2A718C76C
:1027D0000C46213682186233998008430C467331C7
:1027E0000216921818E58190841D42300C30C54FB6
:1027F00053E82218F80D1E79A9FE31713A3FC01234
:102800007E3EC7517DD420CCFE11AEF9A89A10347B
:10281000000042508430C4673203E0632F8C4328A9
:10282000EA2A3B222190EA11D4F5298210C3119C97
:10283000C608430C46733084286042580008623052
:1028400008657BD42128CA52C317BE8FCBFCFC87F6
:10285000143E5DBF38421862336FCC318E188C2F16
:10286000FA87E22049A4DD55202A0F86A765406239
:10287000473A3E8FF106188CE66008430C467332E7
:10288000C40008115022A1042300C03146528CE03C
:1028900010CDE488718D189B10B91D0701D1F47F0C
:1028A000F252D0737BAF42CD774D1731D4F4104B39
:1028B000BB1809A01420002188CC00A2291ADC062C
:1028C000AC42186233998008430C467331C0020051
:1028D000008E2309802708690886CAB8288A8032B2
:1028E0008CD1651F08D031FB2AA4D47E7FE731EE5E
:1028F0002CD1D75AAFF751747B91F9008EA3F739D9
:1029000020AF4127B7A97F3F08799D46E925437C41
:10291000FB7F218210C3119CCC08430C467330000E
:10292000008043862319E831D0C50C46384E80BD5F
:102930006346D2747D18C1FA3F0D1B3AA6B47F9F3F
:1029400047EA747D1FEC296188C69C0819D0F71CE2
:10295000037E4003A0ACE4A0848426E3A97713DDC2
:102960002119CCC008430C467332C0310850C466EC
:10297000300021000631C31198EA40430024793C1D
:102980006821086188CE83CBF6DF8B4FD28216E4B4
:10299000FBA7C39FE623D641FCE5C4A90A52C31195
:1029A00098747D782317C4618C70C46750FF1154EC
:1029B000AE1008430C4673300006C411E4E3506ABD
:1029C00023DFE890044410C621F2040011511B419A
:1029D000A879BF25A122C641C31150BE3D080318E6
:1029E000E18212A300022A801600AA701341066039
:1029F0002105B520C6AF245A3B5B88532427CA1053
:102A0000C31190E61D01BEC7E11E4E397EFE1008BF
:102A1000430C467333400000018C25009084004332
:102A20000C04944475D8D4399479D1F5198009846B
:102A3000806318C72CF0219C05408C84BE2E2ACEC2
:102A4000C015B1F0A80017F10C0368A87801902018
:102A50001841B477118AE981FA1502373B8B089443
:102A60000D640E189C5B780C84205B288004C46B7A
:102A70000A60928D21747DB277B008430C467331A1
:102A8000822108421C30318C8D0B42100661A0243B
:102A9000221023A870AA90633D45F554C0A200BF40
:102AA000B2A7D07E7A9800001A306C41CAAA0210F0
:102AB00080A809B010952723A01E88D619F0B7E981
:102AC0001B46323746086188CE61F87318AA55CB89
:102AD000F7F08008430C46733086120463180678BA
:102AE000C24810678D62A204B41A0042CC479854C1
:102AF0002A00320D03A2D0FF9F845D46B51E685D9B
:102B00004086288708154A5094310943E47C02091D
:102B1000040002188C7C1F84841104168444036A08
:102B20003DE3908CFD8FE7BD57FE132E6E022A4FBA
:102B30007FFE08430C467330C621080004803980AC
:102B40000010422A86791CB21B82A121084AE43A6D
:102B50008049607C01086180D41F07F0108000006C
:102B600003A1E4388802088318CC3C0C26A06D43EE
:102B7000FC6B039A342D846125323D03E2D1AA1CFB
:102B8000E7E007C24184440B400012A6D044100C79
:102B900060E6160203E018C44207386E81FC454621
:102BA00097C008430C467330000880920CB118D4CB
:102BB000521DF0102AA33D93A31F98F855BC06F2AE
:102BC0003FB582E79EC68398721A9F17A3F121260C
:102BD00087899FF85681AD68FC81EE0D055AB607CE
:102BE000A3CE5D1680626A1782F91CC09F07951EEE
:102BF0004E8008430C4673308428604208E5318CCF
:102C00002118C70C4A15385A000063212EEA864461
:102C1000A9E609E03A1CA5F0DCE30B5B1454801034
:102C2000484EA2A206D40A8893C02A50543F3E833D
:102C30004C7C0AB4368F8E99F8C953817529A181CD
:102C400085A1086188CE6608426882388CE6210832
:102C50006318844210220B48D2373850AC0A8023C4
:102C60001869926803A90813E8B50F91F08347101B
:102C70004218603504A9F080008623810842C63CD2
:102C80001A8ED018E7808461184631C303F9A8264C
:102C9000F723DF2D310854C689B8613F168E111015
:102CA0004B19070C7C2DF9A3399808430C46733057
:102CB000863108411908208000036A318C2118AA46
:102CC00012108404D1508D63234C19E03148C83070
:102CD0005B059EBE9B27C8BC783EC42155B78D803E
:102CE00008C4ADBA2FE4D12FA8F33AD20E3FE74A79
:102CF000C380308F008A6681085B0545E584222009
:102D000089C8814009AE8D83EE95C208430C467395
:102D100031042110821C70218C63182A2B0434008A
:102D20006B0306A00CA21112B090378D001A27C1B8
:102D3000B1682DE4099268DD87A5907E3A08423A91
:102D4000C691ACB4268FF0D1360D0413B6C5A1835D
:102D5000B4F4B70F8034BFE7F02C6D002188C010A9
:102D6000C461A0EC322D0408430C46733084210862
:102D70002D0480318C4311AA5054C31D4F944F3FF2
:102D8000386921F442084A5294B5091A0002180021
:102D9000714EEA5655E442740004D5A3EA17DFC128
:102DA000260342D4B4520C6208430C463F384621F5
:102DB0008A20085753EF2419387F5C2008430C46BB
:102DC00073308428623118C822460108C63862313F
:102DD000C2423154F50B6A06E82B20C838874321DC
:102DE0003E1094A58C3E027C14484E100015083FFE
:102DF0008863E11D4E418A20F8B80A9F442109F2F8
:102E0000D4F519F47D1421E83E0113E0DE46ACA3AD
:102E100050F83A8C0A33D60DBD0008430C46733087
:102E200008100C6118C00960421882165701A82EBC
:102E3000805B2BA82F8A8DA3A8BFCF4740BAA510CF
:102E40008C5E85D44E2042D244408C8124403D0487
:102E50005F8885F56B3F003E227300EC0944461FF6
:102E60001637B000269C47E0665ADD922A8B3BFE5F
:102E7000462DA26B210246EF42EA15966B7330088D
:102E8000430C4673308428842318C669A27808D678
:102E90003B080050309A88152815FC1084A9C004FE
:102EA0000291A9FE04000118C631FC1148821A6281
:102EB000A0254B7948954682425E35BE8C218B32E7
:102EC000D12A7FAC210C3118CBE10A00004300016C
:102ED00008486230D1F9708008430C467330C44111
:102EE00008630884118C72812A29806B18C0000045
:102EF0007A28422A203514F431760200041A23F28B
:102F0000F834AC22501ABF017F5E813982046040E0
:102F1000343DE08210AA202B41FE36AE474510F228
:102F20000E4084DA3A81FC05950648EF4120C880BE
:102F3000000000A2118882A801CC640218006A6413
:102F400081086188CE6608430C46733000000C840B
:102F500010C6310C5108433454248C2A1B2021C440
:102F6000000A8743A885510421F9EA2A6338A9C2D7
:102F7000100021F66B9B67E008044112D004311861
:102F8000D45B4908150010C011E82C144D401021E5
:102F900000468210AB30D03F8501485773C45416A9
:102FA0000E419C7C01318D98FD0A00010C7C310C96
:102FB0008B410008430C46733340D0000300E219F4
:102FC00004810908421001ADEA0FAAA7D0BC8F8086
:102FD000291A4710B2A2D739408B470988418C6320
:102FE0000C3199D5219E2A4D149A0713516B9A08DA
:102FF0001B52692BCE747CEB6BD1F4AD1F46DF3BCB
:103000004008430C467330C431443228C410D3F70F
:103010006541A3F29FC7BFFDD43EFD37A3F9FEC0B3
:103020006D0BA23398EA5B7EA70841C5800DA9C14C
:10303000CEFC0BA98BF31B46CF3A00C3119CCC08E6
:10304000430C467330C421431180C6386022A82542
:10305000B8F2A7B1F435E9FF18FE110C431038FFA0
:103060009AA1AF2A6A242300060D13F1D04A52C355
:103070001A3F520002180C80802A6CA96B10567AF5
:1030800031824013FA268FACC793A008430C4673D5
:1030900030C2388645A02A605CC6D1015056A0F8DF
:1030A000A93ACEF0F83236DAF525235AB7429DB860
:1030B0003F83B7D93E400E45A9C3505EDA15275964
:1030C000DE010AE97B934888645A0C08430C467376
:1030D00030C638623398EA7B9F47E1FE7FFFE7FF07
:1030E000FE7FFFE7FFFE7FFC216B5B0C35A000003D
:1030F000018AA7A9402AA02121090C466427C66A93
:10310000BEA35842186233998008430C467330C6F8
:1031100038606160000862300854002000270134E4
:10312000450AA832A1D2191E85CC202CCE2C0D60C8
:10313000FF0E8531663F1E71309084212A1D1EA22C
:1031400057C08F8738D1FE4D1021863E5DA2529A1E
:1031500028157C3A1679A8E82BF84DA77C593EEC47
:1031600008430C467330C638623318853C54021845
:10317000A21902FC0869FAB7FA8AA5000CBA18C4A9
:103180002143118943F2719E082A7A7AA7A7F47A1B
:103190007FE7FBC7F3FEA210421F20215E9FCE1ADD
:1031A000DAC0A57008430C467330842860422108B9
:1031B00040B18C6182118C70C0CB5330215000081B
:1031C00063430547A3D4384FCDA18AA7D80210C3C3
:1031D000028ED5706C9B85F6290ABCA9C953E8A458
:1031E00021347F905FC7CFF08D7DCA7E3DC8210C12
:1031F0003119CCC008430C462697C6000218032498
:1032000040102186367CAB40090631C311993292B9
:1032100059386E63A10C20000006463DCE860D5243
:1032200048D1F5021330D1FE1AC23AD1BDDFE344D2
:1032300020C6386233EE7365EEBA08000862339830
:1032400072DC97A308430C4673308222106318C6C1
:10325000121080008610AE82204240DA00086A0018
:10326000041104B030800004835213A101EA1C034E
:1032700044D6422DA09F01FF217F22B6B0AD092187
:1032800018C64080DF4C81F813F9CA47ACC5350039
:10329000C5509004D0C7E4043A008241773FC7E0AC
:1032A000015E1E05C3A1102420C9A010601807A04C
:1032B0007751E4E808430C46733108486081208860
:1032C0002884820840003220902399C00108842875
:1032D000604118C70C4606A9A9E18C21294B0C6650
:1032E00057207A7A8082254F907558D043C48BB886
:1032F000E0FB817C6BF02B21044326F3C96844205A
:1033000049F0CF3E47C340FC44C4BD1FE05C87CBBF
:103310001E4E8008430C4673308428623314E41038
:10332000800318E188CAA7ABC25294BA1043AE0B0F
:10333000995FCB59906418CDF3E56219081097C4D2
:10334000FF3A1F802409022C0430C463505635080C
:10335000000863E0A9368A9EE9D43F8CEEA5D80226
:103360004212188C4210C3119CCC08430C46733295
:10337000C0200C6386230000021675506F2208C817
:103380004210810DE3504B150715501044154BF2B8
:10339000643E8687F37804887E7D0AA1F86A7DE71B
:1033A000F8D1F61FA4C317B7F15531DEF0318AA268
:1033B0009C724A62A200263110848609C17552B8F7
:1033C000403508430C4673310631C3023086196418
:1033D00024084130042310AA7082DAA93CAA849BF5
:1033E000CF724FCAA321380093C918C530F0558455
:1033F000C5A1884216B3509360D084418331E80759
:10340000520844583F0A9F44EC347D0AA21886486B
:10341000C346154E31FC3FC4673300080670E8F818
:103420006070D8080670B8F83070D8080670F87068
:103430002070D8080670A8702070D8080670F8F8B8
:103440007020D8080620582470205808061068906C
:10345000381068080670A8F87020D80806002050B8
:10346000B87020080620702070A824080678484804
:10347000584848080600FC844830FC0806002050E4
:103480008850200806902488500448080600707868
:10349000F8F8700806FC84FCFC30FC08060000000C
:1034A00000000003053F213F1208120A100A0E1CFB
:1034B0000E0C1E0C141A14161F161E131E1E1B1E95
:1034C0001E1F1E3F213F3A2F3A173D173F213F183D
:1034D0001F02040A041F0E04040E1F0A1F0A0E0E08
:1034E0001F04110E2E252E2F2A2E262929021F02F7
:1034F000081F08150E04040E150E15151B151B04C8
:103500000604040C040000000017000300031F0A57
:103510001F16371A1904130A153A000300000E117A
:10352000110E000A040A040E040030000404040012
:1035300010001804031F111F121F101D151711155D
:103540001F07041F17151D1F151D01011F1F151F24
:1035500017151F000A00003200040A110A0A0A1196
:103560000A040115020E11171E051E1F150A0E1161
:103570000A1F110E1F15111F05010E111D1F041F1B
:10358000111F1108100F1F041B1F10101F061F1EF4
:10359000040F0E110E1F09060E112E1F051A12150B
:1035A00009011F011F101F0F180F1F0C1F1B041BE9
:1035B000031C03191513001F11030418111F000227
:1035C00001022020200001020C121E1F120C0C12FE
:1035D000120C121F0C1A14041E05242A1E1F021C92
:1035E000141D1020201D1F0814111F101E041E1E64
:1035F000021C0C120C3E0A040C123E1E040214168D
:103600000A020F120E101E0E100E1E081E120C12B1
:1036100026281E322A26041E21001F00211E040116
:1036200002013F213F0A4E6F2053442063617264C0
:10363000206F720A6E6F204C4F414445522E484510
:10364000580A0A153A45786974001D20466C617362
:1036500068696E670A20206C6F616465722E2E2E79
:103660000A0A444F4E2754205455524E204F464686
:1036700021000A0A153A49676E6F7265006D560A95
:103680000A504C45415345205455524E204F464612
:1036900020004C4F5720424154544552592120009C
:1036A0001753440016137800161314001510200049
:1036B00015201000540A03E181867F3E186D830FA8
:1036C0000F0E0183866033186DC3198F1803C38EE4
:1036D0006033186DE330CF1803C39E603630CDE3FE
:1036E00060CF3006C79E7E3E30CDB360CF300CC673
:1036F000F6603330D9B660CF33CFCCF66061B0DB43
:103700001E60CF30D86CE6C061B0DB1E618F1998A7
:103710006CC6C063B19B0E330F0FB078C6FF7E1F1F
:103720001B061E0F0500893008023802497868140C
:103730000000F6E8DBCFC3B8AEA49B928A827B740C
:103740006E68625C57524E4945413E3A3734312EDD
:103750002C29272523211F1D1C1A19171615141390
:103760001211100F0E0D0C0B0A0908070645006810
:1037700001000005006801380100000500380168FB
:103780000100008B3787370101FF030101F70300B8
:103790000000080002010000030407000000000010
:1037A00000000001020408102040800102040810FB
:1037B0002001020408102004040404040404040288
:1037C00002020202020303030303030000000023BA
:1037D000002600290000000000250028002B000022
:1037E000000000240027002A0000C82411241FBE66
:1037F000CFEFD8E0DEBFCDBF12E0A0E0B1E0E0ED5A
:10380000F5E702C005900D92AA37B107D9F726E077
:10381000AAE7B2E001C01D92A134B207E1F717E3B5
:10382000CCEED7E304C02297FE010E94B23ACA3E12
:10383000D107C9F70E9462370C94E63A0C94000055
:103840000C94D03A0C94D83A109287028AEF809365
:103850000B01109283021092820210928502109244
:10386000840210927F021092810208951F93CF93D9
:10387000DF93162F20917D0230917E02E82FF0E039
:10388000EE0FFF1FE45FFE4FC90137FD079643E0CF
:10389000959587954A95E1F70190F081E02DE80F25
:1038A000F91FC4913196E491D0E0DC2FCC27CE0FE4
:1038B000D11DE12FF0E0C90168E070E00E945B3AA1
:1038C00040E150E0481B590B4E1B5F0B02C0D595E1
:1038D000C7954A95E2F72E0F3F1F30937E02209343
:1038E0007D0281E090E002C0880F991F1A95E2F7EF
:1038F00001978C23DF91CF911F910895482F8091DC
:103900007B0290917C0264E170E00E945B3A772731
:103910009C0133274930E9F188F44730D1F1483030
:1039200009F043C08EE0829FF001839FF00D1124C7
:10393000E60FF71FEE56FD4F88E429C04C3081F0AA
:103940004D30D1F04A3089F58EE0829FF001839F9F
:10395000F00D1124E60FF71FEE56FD4F8AE417C055
:103960008EE0829FF001839FF00D1124E60FF71F78
:10397000EE56FD4F8AE80BC08EE0829FF001839FD8
:10398000F00D1124E60FF71FEE56FD4F88EC8083F3
:1039900008958EE0829FF001839FF00D1124E60FC1
:1039A000F71FEE56FD4F408308958EE0829FF00191
:1039B000839FF00D1124E60FF71FEE56FD4F408355
:1039C0004B3041F4309391022093900270938F0218
:1039D00060938E020895CF92DF92EF92FF920F9341
:1039E0001F93CF93DF93F82E1092880210927E02DD
:1039F00010927D0210927C0210927B0268E00E947D
:103A0000361C80938902C4E1D0E0EEE0EE2E2091D6
:103A10007B0230917C02283131400CF04DC061E0D6
:103A20008F2D0E94361C8823B1F166E08F2D0E94F5
:103A3000361C082F63E08F2D0E94361C73E0C72EC2
:103A4000C80ED12C10E0DC1410F720917B023091CD
:103A50007C02283181E03807E4F4C901801B910B16
:103A6000BE010E945B3AE89EF001E99EF00D112430
:103A7000E60FF71FEE56FD4F80810E947E1C2091BD
:103A80007B0230917C022F5F3F4F30937C0220936A
:103A90007B02D394D8CF64E08F2D0E94361C0E9405
:103AA0007E1C20917B0230917C022F5F3F4F309330
:103AB0007C0220937B02ABCFDF91CF911F910F91BE
:103AC000FF90EF90DF90CF90089590918702993901
:103AD00020F580918002811106C0809182028F5F63
:103AE0008093820205C0809184028F5F809384025C
:103AF0002091830280918202821708F4822F8093A2
:103B000083022091850280918402821708F4822F1B
:103B1000809385029F5F90938702809187020C9427
:103B2000EB1C0F931F93CF93DF9380E090E00E94F4
:103B3000201C813D09F04AC081E090E00E94201CD9
:103B4000863609F043C082E090E00E94201C893351
:103B5000E9F583E090E00E94201CC1E0811101C0E2
:103B6000C0E0C093800284E090E00E94201CD82F27
:103B70008093820285E090E00E94201C082F8093B1
:103B8000830286E090E00E94201C80930B0188E075
:103B900090E00E94201C182F8093840289E090E01E
:103BA0000E94201C902F0D1708F49D2F90938302E4
:103BB000811708F4812F80938502C111D12FD093F2
:103BC0008702C11101C0892F80938602DF91CF91B6
:103BD0001F910F91089563E970E08AEA93E00E94D3
:103BE00079310E94911D809187020C94EB1C8AEA26
:103BF00093E00E94F6310E94EB1D1092C2030895DB
:103C000061ED80E090E00E94221C66E681E090E099
:103C10000E94221C69E382E090E00E94221C6091D5
:103C2000800283E090E00E94221C6091820284E086
:103C300090E00E94221C6091830285E090E00E9447
:103C4000221C60910B0186E090E00E94221C609192
:103C5000840288E090E00E94221C6091850289E045
:103C600090E00C94221C9EEF980F913168F49EEF27
:103C7000960F9B3048F49EE0899FF0011124E60FD7
:103C8000F11DEE56FD4F40830895409190025091F2
:103C9000910220918E0230918F029EE0949FF0015C
:103CA000959FF00D1124E20FF31FEE56FD4F108289
:103CB000480F511D87FD5A955093910240939002F1
:103CC000260F311D67FD3A9530938F0220938E02A7
:103CD000949FF001959FF00D1124E20FF31FEE5613
:103CE000FD4F8BE080830895662321F08FEC93E0F5
:103CF0000C94253548E062E084EB93E00E940426B2
:103D00008823B1F0809190029091910202962091C7
:103D10008E0230918F024EE0489FF001499FF00DD6
:103D20001124E20FF31FEE56FD4F80818823F9F036
:103D300048E060E084EB93E00E940426882361F170
:103D40008091900290919102029720918E02309181
:103D50008F024EE0489FF001499FF00D1124E20FC1
:103D6000F31FEE56FD4F8081882361F0089582E0B5
:103D7000808360E081E00E94451E8FEC93E00E940A
:103D80000F35D6CF82E0808360E08FEF0E94451E22
:103D90008FEC93E00C940F35089580918E02E091A2
:103DA00090029EE0E99FF0011124E80FF11DEE560C
:103DB000FD4F8CE0808381E08093810280910B0134
:103DC000815080930B01811103C082E080937F02B8
:103DD0000895BF92CF92DF92EF92FF920F931F93BD
:103DE000CF93DF93E82EF62E082F10E0C80101973D
:103DF000C62FD0E0DE0111974EE0489FB001499FE9
:103E0000700D1124CB018A0F9B1F8E569D4FFC0114
:103E100080818B3009F447C0CB018C0F9D1F8E56DB
:103E20009D4FFC0180818B30F1F19E012F5F3F4F50
:103E3000FB01E20FF31FEE56FD4F80818B3099F1AD
:103E4000409FB001419F700D1124CB018A0F9B1F31
:103E50008E569D4FFC0180818B3029F1FB01E20FD2
:103E6000F31FEE56FD4F80818B30E9F0C8010196BB
:103E7000489FF001499FF00D1124AE0FBF1FAE56B1
:103E8000BD4F8C918B3079F0DF01AC0FBD1FAE566A
:103E9000BD4F8C918B3039F0E20FF31FEE56FD4F82
:103EA00080818B3011F40E94CD1EBB24BA94BE0CCD
:103EB00040E0DD24D394DF0C6D2D8B2D0E94331E4A
:103EC00040E06D2D8E2D0E94331ECC24C394CE0C69
:103ED00040E06D2D8C2D0E94331E80918002DD24E8
:103EE000DA94DF0C811122C08EE0809FF001819F67
:103EF000F00D1124EC0FFD1FEE56FD4F84E0808382
:103F000044E06D2D8B2D0E94331E44E06F2D8B2DD0
:103F10000E94331E44E06D2D8E2D0E94331E44E01E
:103F20006D2D8C2D0E94331E44E020C08EE0809FBA
:103F3000F001819FF00D1124EC0FFD1FEE56FD4F97
:103F4000108240E06D2D8B2D0E94331E40E06F2DBE
:103F50008B2D0E94331E40E06D2D8E2D0E94331E4E
:103F600040E06D2D8C2D0E94331E40E06F2D8C2D76
:103F7000DF91CF911F910F91FF90EF90DF90CF9045
:103F8000BF900C94331EEF92FF920F931F93CF9329
:103F9000DF934830B9F040F4473009F04EC0062FA7
:103FA00010E00F5F1F4F12C0493039F04A3009F05E
:103FB00044C0C82FD0E021961FC0062F10E001504A
:103FC000110904C0C82FD0E0219716C0E82EF12CAB
:103FD000F8019EE0899FE00DF11D1124EE56FD4F82
:103FE00080818B3011F40E94CD1E8EE08E9DF001F9
:103FF0008F9DF00D112417C0062F10E08EE08C9FCE
:10400000F0018D9FF00D1124E00FF11FEE56FD4FD2
:1040100080818B3011F40E94CD1E8EE08C9FF001C8
:104020008D9FF00D1124E00FF11FEE56FD4F81E042
:104030009081992319F080E001C081E0DF91CF9158
:104040001F910F91FF90EF9008950F931F93CF93BF
:10405000DF93182F062F8EE0189FF0011124E60F32
:10406000F11DEE56FD4FC081DC2FD07CCF70D034D7
:1040700069F018F4DD2331F028C0D03879F0D03C55
:10408000C9F023C0C730F1F4C9E01FC0CA30E1F461
:10409000C8E01BC0CF5FCB3008F0C7E04C2F602FCB
:1040A000812F0E94C31F8823A9F30FC0C150C730BE
:1040B00008F4CAE04C2F602F812F0E94C31F882371
:1040C000A9F303C0C7E001C0CAE08C2F8D0FDF91B8
:1040D000CF911F910F910895CF92DF92EF92FF92AF
:1040E0000F931F93CF93DF93F82EE62ED42E60917B
:1040F0001B0470911C0480911D0490911E042AE001
:1041000030E040E050E00E946F3A672B682B692B4B
:1041100009F0BEC00F2D10E0C8010197CE2DD0E0F0
:104120004EE0489FF001499FF00D1124EC0FFD1F58
:10413000EE56FD4F5081552301F198012F5F3F4FFF
:10414000429FF001439FF00D1124EC0FFD1FEE562E
:10415000FD4F2081222389F0409FF001419FF00D07
:104160001124EE56FD4FEC0FFD1FDF0111972C912E
:10417000222319F0218121118BC027E0D2120CC01B
:104180008EE0809F6001819FD00C1124DE01AC0D78
:10419000BD1DAD56BD4F0EC029E0D21219C08EE034
:1041A000809F6001819FD00C1124DE01AC0DBD1DEC
:1041B000AF56BD4F8C918F7049F08B3009F450C0D1
:1041C0006E2D8F2D0E942520F6015DC0F6013FC0A7
:1041D00028E0D21221C0252F2F7071F02B3009F466
:1041E0003FC06E2D8F2D0E9425209EE0909FF001F4
:1041F000919FF00D112447C02EE0289FD001299FE8
:10420000B00D1124AC0FBD1FAE56BD4F209FF00165
:10421000219FF00D11241BC08AE0D81239C0C801BB
:104220000196FEE0DF2ED89ED001D99EB00D11245C
:10423000AC0FBD1FAE56BD4F8C918F7019F08B30F7
:1042400079F018C0D09EF001D19EF00D1124EC0F32
:10425000FD1FEE56FD4F808180628C93108218C046
:10426000DF91CF911F910F91FF90EF90DF90CF9052
:104270000C94CD1E6E2D8F2D0E942520D09EF00116
:10428000D19EF00D1124EC0FFD1FEE56FD4F8083E3
:10429000DF91CF911F910F91FF90EF90DF90CF9022
:1042A0000895FF920F931F93CF93DF93F42EC62FA1
:1042B000D0E0082F10E02EE0829FF0011124DF01F2
:1042C000AC0FBD1FAE56BD4F9C9194FF18C0EE566B
:1042D000FD4FEC0FFD1F91819F70993069F028F41C
:1042E000973051F0983041F00AC09A3029F09B3055
:1042F00031F40E94CD1E03C06F5F0E94E91E2EE0C4
:10430000209FC001219F900D1124DC01AC0FBD1F27
:10431000AE56BD4F2C912F7E2C939E012F5F3F4FA9
:10432000FC01E20FF31FEE56FD4F4081411105C025
:10433000F0821C92808180614DC0423011F0443087
:10434000D1F5C80101964EE0489FF001499FF00D5C
:104350001124DF01A20FB31FAE56BD4F8C91811106
:1043600007C0EC0FFD1FEE56FD4F80818823B9F08A
:10437000C80101974EE0489FF001499FF00D1124BC
:10438000DF01A20FB31FAE56BD4F8C91811123C028
:10439000EC0FFD1FEE56FD4F808181111CC0FC9279
:1043A000409FF001419FF00D1124EC0FFD1FEE56D0
:1043B000FD4F108210C022E0F2120DC0453059F4BA
:1043C000FC01EC0FFD1FEC56FD4F8081811103C0F5
:1043D0001C9284E18083DF91CF911F910F91FF9018
:1043E0000895EF92FF920F931F93CF93DF93609105
:1043F0001B0470911C0480911D0490911E0425E003
:1044000030E040E050E00E946F3A672B682B692B48
:1044100009F04AC00EE912E0ACE0FA2EC0E0D0E0AC
:10442000EE24E394F801EC0FFD1F96859F72973000
:10443000A1F030F4923059F09430C1F444E008C057
:10444000993069F070F09A3089F44AE00BC042E08C
:104450006F2D8E2D0E94512109C047E003C049E015
:1044600001C048E06F2D8E2D0E946C20E3942E96A3
:10447000CC3FD105B9F6FA9401501109F110CECF15
:104480002EE932E080E090E0F901E80FF91F46855F
:104490004F7D46870E968C3F9105B1F7215031092B
:1044A00082E02239380771F7DF91CF911F910F9188
:1044B000FF90EF9008950F931F9327E0260F382F5A
:1044C000330F230F20930A0125E020937A022091D5
:1044D000900230919102280F311D87FD3A954EE0F0
:1044E000429FF001439FF00D112420918E023091E4
:1044F0008F02E20FF31FE60FF11D67FDFA95EE56EE
:10450000FD4F40814F7E042F10E00730110580F5EC
:10451000F801EC5CFF4F0C94B03A1F910F910C9492
:10452000741E1F910F910C94451E0E94451E809190
:1045300088028F5F809388028FEC93E01F910F9128
:104540000C94F9343091890220918802231750F09D
:104550000E94451E8FEC93E00E94F9341F910F9149
:104560000C94651D8FEC93E01F910F910C942535F1
:104570001F910F910C94CD1E44E064E084EB93E016
:104580000E941226882329F080918102882309F451
:1045900082C044E065E084EB93E00E941226882309
:1045A00021F08091810281117DC080918102811171
:1045B00030C044E062E084EB93E00E94122688233E
:1045C00021F060E081E00E945B2244E060E084EB47
:1045D00093E00E941226882321F060E08FEF0E9472
:1045E0005B2244E063E084EB93E00E941226882380
:1045F00021F061E080E00E945B2244E061E084EB16
:1046000093E00E941226882321F06FEF80E00E9441
:104610005B2280918E0290918F02E6E0E89F9001EC
:10462000E99F300D11242551310940918C025091A0
:104630008D02CA01880F991F840F951F6091900207
:1046400070919102E69FA001E79F500D11244752FF
:104650005109840F951F97FD03969595879595951C
:10466000879590938D0280938C0240918A0250919D
:104670008B02CA01880F991F840F951F820F931F09
:1046800097FD0396959587959595879590938B02C1
:1046900080938A0208958FEC93E00E94F9340E947F
:1046A000CD1E77CF8FEC93E00E940F35809187026B
:1046B0000E94EB1C1092810278CF8F929F92AF9252
:1046C000BF92CF92DF92EF920F93CF93DF93B2E935
:1046D000AB2EB2E0BB2EC12CD12C812C912CC0E092
:1046E000D0E080918C0290918D02BE01681B790B05
:1046F00080918A0290918B02F501E80DF91DE0810D
:10470000EF70E43029F420911B0420FD9AC005C00D
:10471000EB3019F4E0910A01E55F9B012A5F3F4FFE
:104720002B35310598F4A601481B590B413351052F
:1047300068F4F0E0EE0FFF1FE25CFD4F2081318155
:10474000E12C00E088EF93E00E94262A26968EE076
:10475000880E911CC837D10521F686E0C80ED11C01
:104760008FEFA81AB80A84E5C816D10409F0B5CFAE
:1047700080917A02811103C097E090930A018150E1
:1047800080937A026091800288EF93E00E94FE2677
:1047900006E024E540E060E088EF93E00E944C27CB
:1047A0006091800281E0682788EF93E00E94FE26F6
:1047B000109201041092020460E970E088EF93E027
:1047C0000E94AF374AE050E06091880288EF93E0A2
:1047D0000E94B9386EE870E088EF93E00E94AF372E
:1047E0004AE050E06091890288EF93E00E94B93876
:1047F0006AE870E088EF93E00E94AF374AE050E04B
:1048000060910B0188EF93E00E94B93866E870E090
:1048100088EF93E00E94AF376091870270E06F5F8E
:104820007F4F4AE050E088EF93E0DF91CF910F9106
:10483000EF90DF90CF90BF90AF909F908F900C94AF
:10484000A438EDE06ACF8AEA93E00E94EA2D88233B
:1048500009F49DC080917F02813031F008F47EC060
:10486000823009F48BC0089547E061EA70E08AEA7B
:1048700093E00E94A42E992787FD9095A92FB92F28
:10488000FC013196E830F10508F081C0E55CFF4F8E
:104890000C94B03A6AE970E08AEA93E00C947931BA
:1048A00080910B01882309F472C0815080930B0121
:1048B0000E94001E10927F021092810208950E94B1
:1048C000911D10927F02109281025DC00E94241CF3
:1048D0005AC010927F0210928102909187028091BB
:1048E0008002811103C08091830202C08091850201
:1048F000981708F04CC00C94651D9091870299237D
:1049000091F080918002811106C0809182028150D5
:104910008093820205C0809184028150809384023A
:104920009150909387021092810210927F022BC0C7
:104930008091800291E0892780938002811103C0D9
:104940008091820202C0809184028093870210923B
:1049500081020E94EB1C10927F02089566E084EBB6
:1049600093E00E94FB25882319F081E080937F0269
:104970000E94BC220E94F1210C945D230E94241C01
:1049800081E080937F02809187020C94EB1C089554
:104990001092FB031092FA038EE692E09093F903D3
:1049A0008093F8030895CF93CFB7F89480913104A2
:1049B000811127C0E1ECF7E38491EDEAF7E39491EC
:1049C000E82FF0E0EE0FFF1FE152F84CA591B491F3
:1049D0008C91892321F461E08AE00E94023761E032
:1049E0008AE00E94C9368CB580618CBD8CB580642C
:1049F0008CBD61E08DE00E94C93661E08BE00E94D1
:104A0000C936809131048F5F80933104CFBFCF913D
:104A1000089521E0FC012083089570E085E00C9466
:104A20004136AF92BF92CF92DF92EF92FF920F93F7
:104A30001F93CF93DF93EC0189819A812FE0289F08
:104A40008001299F100D112485E10E942436800FDA
:104A5000911F24E0969587952A95E1F79A8389839B
:104A60002881222391F1AC81AD80B12CC12CD12CB5
:104A7000E885F9857F0100E010E06E817F819B0170
:104A800040E050E08617970728F0BC01E817F907C7
:104A900008F4BF0180E090E01F921F921F92AF9335
:104AA0000E94C6386B830F900F900F900F9070E0AC
:104AB00085E0DF91CF911F910F91FF90EF90DF90F4
:104AC000CF90BF90AF900C944136DF91CF911F9162
:104AD0000F91FF90EF90DF90CF90BF90AF9008952F
:104AE000FC018CE39FE09383828384E0818381E0F7
:104AF00084870895CF93DF93EC018C819D81892B6E
:104B000081F18C858F7151F584E10E942436BC01BE
:104B1000882777FD8095982F0E943C3926EE3FE349
:104B20004EEC50E40E94C8390E940E399B017B83F1
:104B30006A836115710581F084E08983FE0140E09C
:104B4000848195812817390710F449830AC04F5F83
:104B500032964430A9F702C08FEF89838C858F5F2E
:104B60008C87DF91CF910895FC0188E0808389E0F4
:104B7000818387E0828386E0838384E0848382E08C
:104B8000858381E186830895DF92EF92FF920F93F0
:104B90001F93CF93DF937C01EC0100E010E0DD2454
:104BA000DA9462E088810E94C93688810E94383791
:104BB000F701E00FF11F892B21F487818F5F878335
:104BC00008C08781882349F08F3F11F4178201C004
:104BD000D78260E088810E94C9360F5F1F4F2196FF
:104BE00007301105F1F6DF91CF911F910F91FF90E2
:104BF000EF90DF900895FC01E60FF11D81E09781B1
:104C0000913009F080E00895860F911DFC01278105
:104C100030E050E04F5F5F4F81E02417350709F027
:104C200080E00895262F30E0FC01E20FF31F87811A
:104C3000423028F481508E3F48F080E008958F3F45
:104C4000E1F3642F0E943B3A9130B9F781E0089577
:104C50008EBD00000DB407FEFDCF8EB50895DC01BA
:104C6000643508F053C0403308F050C090968C91E2
:104C70009097342F359535953595E62FFF27E7FD2D
:104C8000F095242F2770823099F4DF01AE5CBB4F82
:104C900084E53802A00DB11D11248C9190E0022E04
:104CA00002C0959587950A94E2F78095817009C0B6
:104CB000833039F446271C968C91482740FF03C067
:104CC00014C0811112C084E53802E00DF11D1124D9
:104CD000EE5CFB4F81E090E0022E01C0880F0A9449
:104CE000EAF780959081982310C084E53802E00DA2
:104CF000F11D1124EE5CFB4F81E090E0022E01C01B
:104D0000880F0A94EAF79081982B908308951F9357
:104D1000CF93DF93EC01162FF89460E08F850E940B
:104D20000237888918161CF460E00E940237812F30
:104D30000E942826888918161CF461E00E94023718
:104D40007894DF91CF911F91089528EF31E0E2E34D
:104D5000F4E0DF01A9011D9241505040E1F7DC0170
:104D600019961C9219971A961C920895DF92EF9249
:104D7000FF920F931F93CF93DF93EC018C858F5F8E
:104D80008C8782E3E82E84E0F82ED12C6D2D6064B0
:104D9000CE010E94872660E8CE010E94872661E04E
:104DA0008F850E940237888918161CF460E00E94E3
:104DB000023700E010E0F701E00FF11F80810E9450
:104DC00028260F5F1F4F04351105A9F7888918168B
:104DD0001CF461E00E940237D39484E5E80EF11CD4
:104DE00086E0D812D3CF60E4CE01DF91CF911F913E
:104DF0000F91FF90EF90DF900C948726FC0160A349
:104E000061A30895FC0160A341A30895CF92DF92AE
:104E1000FF920F931F93CF93DF931F92CDB7DEB70F
:104E20006C01062FF42E10E0121754F4412F4F0D91
:104E3000602FC60129830E942F261F5F2981F4CF8E
:104E40000F90DF91CF911F910F91FF90DF90CF9046
:104E50000895CF92DF92FF920F931F93CF93DF932A
:104E60001F92CDB7DEB76C01062FF42E10E012179B
:104E700054F4612F600F4F2DC60129830E942F2605
:104E80001F5F2981F4CF0F90DF91CF911F910F9178
:104E9000FF90DF90CF900895DF92EF92FF920F93F3
:104EA0001F93CF93DF93EC01E62ED22EF42E112721
:104EB00007FD1095040F111D47FD1A958F2D992799
:104EC00087FD90958017910744F42D2D4F2D6E2D61
:104ED000CE010E942927F394F1CFDF91CF911F914A
:104EE0000F91FF90EF90DF9008958F929F92AF9275
:104EF000BF92CF92DF92EF92FF920F931F93CF93C7
:104F0000DF93EC01E62ED42E122FCC24C394C21AC8
:104F1000B22EB194BB0CF12C802F8470A82E802F60
:104F20008270982E802F8870882E0170F1160CF0F8
:104F30004DC0C7FC04C01150B394B394CB0CF39490
:104F40008F2D880F8F5FC80EAA2071F0412F4D0D55
:104F50006F2D6E0DCE010E942F264F2D4D0D612F0E
:104F60006E0DCE010E942F26992071F04D2D411B10
:104F70006F2D6E0DCE010E942F264D2D4F19612FE2
:104F80006E0DCE010E942F26882071F04F2D4D0D01
:104F90006E2D611BCE010E942F26412F4D0D6E2DCF
:104FA0006F19CE010E942F26002309F4BFCF4D2D8B
:104FB0004F196E2D611BCE010E942F264D2D411BD6
:104FC0006E2D6F19CE010E942F26B0CFDF91CF91A9
:104FD0001F910F91FF90EF90DF90CF90BF90AF9017
:104FE0009F908F9008958F929F92AF92BF92CF9291
:104FF000DF92EF92FF920F931F93CF93DF93EC0119
:10500000B62EA42E122FDD24D394D21AC22EC19410
:10501000CC0CFF24F394802F8170882E99249394D4
:105020009E0C02708FEF8F0D8117C4F5D7FC04C062
:105030001150C394C394DC0C8F2D880F8F5FD80E52
:10504000882099F0212F220F290D4A2D411B6F2D09
:105050006B0DCE010E94062723E02E0D4A2D4F191D
:10506000612F6B0DCE010E940627002399F0212F9E
:10507000220F290D4A2D411B6B2D6F19CE010E9465
:10508000062723E02E0D4A2D4F196B2D611BCE01F3
:105090000E940627F394E394E394C4CFDF91CF9169
:1050A0001F910F91FF90EF90DF90CF90BF90AF9046
:1050B0009F908F9008959F92AF92BF92CF92DF9270
:1050C000EF92FF920F931F93CF93DF93EC01B62ED5
:1050D000F42EA22EDE2CD194DD0C9D2C920E1E2DD2
:1050E000160F292D612F0E942927CC24CA94C00EA7
:1050F000CF0C292D4C2D612FCE010E942927D00ED7
:10510000FE0C2D2D4F2D6B2DCE010E940627BA0CC3
:105110006FEF6B0D2D2D4F2DCE010E94062701E064
:105120002E2D4F2D612FCE010E947527DE2CD0949D
:10513000DB0C02E02E2D4F2D6D2DCE010E94752728
:10514000CE1804E02E2D4C2D6D2DCE010E9475271A
:1051500008E02E2D4C2D612FCE010E947527DF9186
:10516000CF911F910F91FF90EF90DF90CF90BF9064
:10517000AF909F900895AF92BF92CF92DF92EF923F
:10518000FF920F931F93CF93DF93EC01A62EC42EB3
:10519000B22EF02E1E2DE194EE0CD12ED60E2E2D19
:1051A0002B0D6D2D0E944C27FA94FE0CC10E6FEF53
:1051B0006A0D6B0D611BEF2C01E0212F4C2DCE01F0
:1051C0000E94F32702E0212F4C2D6D2DCE010E946D
:1051D000F327DF91CF911F910F91FF90EF90DF9018
:1051E000CF90BF90AF9008956F927F928F929F92D1
:1051F000AF92BF92CF92DF92EF92FF920F931F93E5
:10520000CF93DF93F901A49031965491FC01F0A063
:1052100064350CF00CC1BB24A7FCB094A62FBB27AF
:10522000A7FDB095FD01EA0DFB1D1E161F060CF033
:10523000FEC040330CF0FBC0C52E042F112707FD24
:105240001095E801C50FD11D57FDDA951C161D06F6
:105250000CF0EDC0E90122969501295F3F4F37FF21
:1052600002C0295F3F4F73E0359527957A95E1F7A6
:1052700047FF0AC0C52EC40E209FA001219F500DDC
:105280001124C41BD50B40E00C2D112707FD1095F0
:10529000040F111D47FD1A95013311051CF070E331
:1052A000C72EC41A67FD60E0E535F10514F0E4E5AA
:1052B000F0E01E2FFC0174857427862F992787FD47
:1052C0009095FC01EA1BFB0BDF015F01F7E0AF22C9
:1052D000BB24E0E8F0E002C0F595E795AA94E2F778
:1052E0000E2FB7FD179653E0B595A7955A95E1F7A0
:1052F000AC0FBD1FE42FE77051E001C0550FEA95D8
:10530000EAF7459545954595E4E54E02800D911DDA
:1053100011248E5C9B4F40E0DD24C7FCD094BB245D
:10532000B3943327E42FF0E0EC15FD050CF07FC0BB
:10533000FD01E490F1E0FF1219C0EC01A02EFD0187
:10534000862E881A9C2E980C911608F067C09E2C09
:105350009A2019F09880952A9882A69429F431967B
:10536000E4906894AA24A7F82196ECCFF1101BC012
:10537000752E7094EC01A02EFD01862E881A9C2EAD
:10538000980C911608F04AC09E2C9A2019F098802B
:1053900097209882A69429F43196E4906894AA24E0
:1053A000A7F82196ECCFE3E0FE1631F0EC01A02E39
:1053B000FD01862E881A2EC0752E7094962EEC0153
:1053C000A02EFD019116B0F48E2C8A2049F0888021
:1053D000692C672660FE02C0852A01C0872088826A
:1053E000A69429F43196E4906894AA24A7F893949B
:1053F0002196E8CF7B2512C09E2C9A2019F0988028
:1054000095269882A69429F43196E4906894AA246B
:10541000A7F821969C2E980C911670F3550F19F44D
:105420008C5A9F4F51E04F5FA20FB31F7BCFDF918C
:10543000CF911F910F91FF90EF90DF90CF90BF9091
:10544000AF909F908F907F906F9008952F923F9292
:105450004F925F926F927F928F929F92AF92BF9284
:10546000CF92DF92EF92FF920F931F93CF93DF9330
:10547000CDB7DEB72A970FB6F894DEBF0FBECDBF0B
:105480006C01262E542F01111CC0E1101AC02A965F
:105490000FB6F894DEBF0FBECDBFDF91CF911F9145
:1054A0000F91FF90EF90DF90CF90BF90AF909F90C3
:1054B0008F907F906F905F904F903F902F900C94C3
:1054C000F428F901849131963490B9016E5F7F4FD1
:1054D0007A836983A82EB12C9501295F3F4FB3E0F1
:1054E00035952795BA95E1F73A87298703702FEF0D
:1054F000280F522E10E07FEF730D832D90E09C83D8
:105500008B83812F992787FD90958A159B050CF039
:1055100071C0812F17FF02C087E0810F682E65944C
:1055200065946594812F877887FF03C08150886FC9
:105530008F5FA0E88A2E912C02C0959487948A955B
:10554000E2F7472EF12C772467FC70948F2D992772
:1055500087FD9095EB81FC818E179F070CF047C06B
:10556000A985BA858A9FF0018B9FF00D9A9FF00D57
:105570001124E60DF71D89819A81E80FF91FE49146
:10558000F0E0E821F921EF2B79F1023039F0033016
:1055900041F0013049F4452D6F2D08C0652D442D93
:1055A00005C0642D412F02C04F2D612FEE2069F000
:1055B0003E2D3370E0FE03C0922F961B692FE1FE53
:1055C00005C0A32DA41B4A2F01C030E0620D450F7A
:1055D000C6012E833D835F8378870E942F263D81FD
:1055E000E32E78855F812E81F3944A94AFCF1F5FBD
:1055F0005A9487CF2A960FB6F894DEBF0FBECDBF60
:10560000DF91CF911F910F91FF90EF90DF90CF909E
:10561000BF90AF909F908F907F906F905F904F90D2
:105620003F902F900895DC01FB0184918F5F1496C9
:105630008C9314973196E491EF5F1596EC93159740
:105640006E5F7F4F5F967C936E935E970895EF92A7
:105650000F93CF93DF93EC014E876D872F87E98AF5
:10566000088B81E0888788A319A28F8363EA74E39B
:10567000CE010E94132B0E94D3248CB58F7D8CBD4C
:105680008CB58C7F81608CBD8DB581608DBD8CB5F6
:105690008C608CBD61E08E850E94C93661E08D858D
:1056A0000E94C93661E08F850E94C9368989181623
:1056B0001CF461E00E94C936888918161CF461E068
:1056C0000E94C936898918166CF460E00E9402377E
:1056D0006AE070E080E090E00E94C13561E0898975
:1056E0000E9402378D85992787FD9095FC01E9542A
:1056F000F84CE491F0E0EE0FFF1FEB52F84C2591CF
:1057000034913D8B2C8BFC01ED55F84C84918B8FA3
:105710008E85992787FD9095FC01E954F84CE4911A
:10572000F0E0EE0FFF1FEB52F84C259134913B8BCC
:105730002A8BFC01ED55F84C84918A8F8889992732
:1057400087FD9095FC01E954F84CE491F0E0EE0FF0
:10575000FF1FEB52F84C259134913F8B2E8BFC01AF
:10576000ED55F84C84918C8F8F85992787FD909506
:10577000FC01E954F84CE491F0E0EE0FFF1FEB520E
:10578000F84C25913491398F288FFC01ED55F84C58
:1057900084918D8F61E2CE010E94872664E1CE0163
:1057A0000E9487268B8587FF02C08FE78B876B85DA
:1057B0006068CE010E94872660E2CE010E948726A3
:1057C0006CE0CE010E948726CE01DF91CF910F9130
:1057D000EF900C94B6266F927F928F929F92AF9229
:1057E000BF92CF92DF92EF92FF920F931F93CF93CE
:1057F000DF93EC01162FF42EB02EE8A064350CF0E8
:1058000081C08FE284170CF47DC0EC81F0E0319709
:105810000E9FC0010F9F900D1124860F911D67FDF3
:105820009A95181619060CF06DC08D81809FC001E5
:105830001124840F911D47FD9A95181619060CF036
:1058400061C0A62E962EC22ED12C8A2D811B99279F
:1058500087FD90952C8130E0821793070CF051C0A2
:10586000215031098217930779F0C29ED001C39E5F
:10587000B00DD29EB00D1124A80FB91FEE8DFF8D73
:10588000EA0FFB1F749001C0712C8F2C6F2C282DF8
:105890002F19332727FD30958D8190E02817390780
:1058A0006CF570FE11C081E0B81206C0482D6A2D5B
:1058B000CE010E942F261EC00B2D2B2D462D692DAB
:1058C000CE010E944C2716C089A198A1891791F09A
:1058D00088A381E0B81206C0482D6A2DCE010E942F
:1058E0002F2607C00B2D2B2D462D692DCE010E9492
:1058F0004C27E8A276946B0C8394C9CF9B0CA3949D
:10590000A4CFE8A2DF91CF911F910F91FF90EF906C
:10591000DF90CF90BF90AF909F908F907F906F90CF
:1059200008950F93CF93DF93EC01262F6A3039F45B
:105930002D8198858A85299F800D112422C06D3084
:1059400011F108854A8569850E94EB2B48855C81A9
:105950002985549F200D112429878F81882399F050
:10596000332727FD309584E590E0459F8019910904
:105970001124821793073CF49D818A85499F800DED
:1059800011248A87198681E090E0DF91CF910F91F1
:1059900008958F929F92AF92BF92CF92DF92EF9233
:1059A000FF920F931F93CF93DF93EC015C0186E886
:1059B000A80EB11CD5018C91882309F44DC08C3000
:1059C00018F41CE0181B01C010E0FE01EA5AFF4F5A
:1059D00081E080836E01BEE4CB0ED11C60E0C60185
:1059E0000E94FE264E01E3E58E0E911CD4018C919F
:1059F00003E0080F9DE2F92E4F2D481B410F23E0D5
:105A0000E22E24E560E0C6010E94BB2861E0C601E9
:105A10000E94FE26F401808103E0080F4F2D481BF1
:105A2000410F24E560E0C6010E945B28FE01E95AAF
:105A3000FF4F84E080833196D4018C91181B115D57
:105A40001083CC57DF4F68817981C6010E94AF3740
:105A5000F501808181508083DF91CF911F910F915B
:105A6000FF90EF90DF90CF90BF90AF909F908F907E
:105A70000895DF92EF92FF920F931F93CF93DF93DE
:105A8000EC018C8D9D8D892B09F49CC08E01025BED
:105A90001F4F40E061E0C8010E94022785E5FE013A
:105AA000EE5AFF4F9081891B359680833196108284
:105AB000698D613009F462C028F0888D653008F086
:105AC00074C06FC0CE0185960E947B3381E0FE01D9
:105AD000EA5AFF4F808363EA74E3C8010E94132BE4
